{
  "_format": "hh-sol-artifact-1",
  "contractName": "Fantazya",
  "sourceName": "contracts/Fantazya.sol",
  "abi": [
    {
      "inputs": [],
      "stateMutability": "nonpayable",
      "type": "constructor"
    },
    {
      "anonymous": false,
      "inputs": [
        {
          "indexed": true,
          "internalType": "address",
          "name": "owner",
          "type": "address"
        },
        {
          "indexed": true,
          "internalType": "address",
          "name": "approved",
          "type": "address"
        },
        {
          "indexed": true,
          "internalType": "uint256",
          "name": "tokenId",
          "type": "uint256"
        }
      ],
      "name": "Approval",
      "type": "event"
    },
    {
      "anonymous": false,
      "inputs": [
        {
          "indexed": true,
          "internalType": "address",
          "name": "owner",
          "type": "address"
        },
        {
          "indexed": true,
          "internalType": "address",
          "name": "operator",
          "type": "address"
        },
        {
          "indexed": false,
          "internalType": "bool",
          "name": "approved",
          "type": "bool"
        }
      ],
      "name": "ApprovalForAll",
      "type": "event"
    },
    {
      "anonymous": false,
      "inputs": [
        {
          "indexed": true,
          "internalType": "address",
          "name": "previousOwner",
          "type": "address"
        },
        {
          "indexed": true,
          "internalType": "address",
          "name": "newOwner",
          "type": "address"
        }
      ],
      "name": "OwnershipTransferred",
      "type": "event"
    },
    {
      "anonymous": false,
      "inputs": [
        {
          "indexed": true,
          "internalType": "address",
          "name": "from",
          "type": "address"
        },
        {
          "indexed": true,
          "internalType": "address",
          "name": "to",
          "type": "address"
        },
        {
          "indexed": true,
          "internalType": "uint256",
          "name": "tokenId",
          "type": "uint256"
        }
      ],
      "name": "Transfer",
      "type": "event"
    },
    {
      "inputs": [],
      "name": "BASE_URL",
      "outputs": [
        {
          "internalType": "string",
          "name": "",
          "type": "string"
        }
      ],
      "stateMutability": "view",
      "type": "function"
    },
    {
      "inputs": [],
      "name": "EXTENSION",
      "outputs": [
        {
          "internalType": "bytes32",
          "name": "",
          "type": "bytes32"
        }
      ],
      "stateMutability": "view",
      "type": "function"
    },
    {
      "inputs": [],
      "name": "MAX_BATCH",
      "outputs": [
        {
          "internalType": "uint256",
          "name": "",
          "type": "uint256"
        }
      ],
      "stateMutability": "view",
      "type": "function"
    },
    {
      "inputs": [],
      "name": "MAX_SUPPLY",
      "outputs": [
        {
          "internalType": "uint256",
          "name": "",
          "type": "uint256"
        }
      ],
      "stateMutability": "view",
      "type": "function"
    },
    {
      "inputs": [],
      "name": "MAX_WL",
      "outputs": [
        {
          "internalType": "uint256",
          "name": "",
          "type": "uint256"
        }
      ],
      "stateMutability": "view",
      "type": "function"
    },
    {
      "inputs": [],
      "name": "PRIMARY",
      "outputs": [
        {
          "internalType": "address",
          "name": "",
          "type": "address"
        }
      ],
      "stateMutability": "view",
      "type": "function"
    },
    {
      "inputs": [
        {
          "internalType": "address[]",
          "name": "wallets",
          "type": "address[]"
        },
        {
          "internalType": "uint256",
          "name": "quantity",
          "type": "uint256"
        }
      ],
      "name": "airdrop",
      "outputs": [],
      "stateMutability": "nonpayable",
      "type": "function"
    },
    {
      "inputs": [
        {
          "internalType": "address",
          "name": "to",
          "type": "address"
        },
        {
          "internalType": "uint256",
          "name": "tokenId",
          "type": "uint256"
        }
      ],
      "name": "approve",
      "outputs": [],
      "stateMutability": "nonpayable",
      "type": "function"
    },
    {
      "inputs": [
        {
          "internalType": "address",
          "name": "owner",
          "type": "address"
        }
      ],
      "name": "balanceOf",
      "outputs": [
        {
          "internalType": "uint256",
          "name": "",
          "type": "uint256"
        }
      ],
      "stateMutability": "view",
      "type": "function"
    },
    {
      "inputs": [
        {
          "internalType": "uint256",
          "name": "tokenId",
          "type": "uint256"
        }
      ],
      "name": "getApproved",
      "outputs": [
        {
          "internalType": "address",
          "name": "",
          "type": "address"
        }
      ],
      "stateMutability": "view",
      "type": "function"
    },
    {
      "inputs": [
        {
          "internalType": "address",
          "name": "owner",
          "type": "address"
        },
        {
          "internalType": "address",
          "name": "operator",
          "type": "address"
        }
      ],
      "name": "isApprovedForAll",
      "outputs": [
        {
          "internalType": "bool",
          "name": "",
          "type": "bool"
        }
      ],
      "stateMutability": "view",
      "type": "function"
    },
    {
      "inputs": [],
      "name": "name",
      "outputs": [
        {
          "internalType": "string",
          "name": "",
          "type": "string"
        }
      ],
      "stateMutability": "view",
      "type": "function"
    },
    {
      "inputs": [],
      "name": "nextOwnerToExplicitlySet",
      "outputs": [
        {
          "internalType": "uint256",
          "name": "",
          "type": "uint256"
        }
      ],
      "stateMutability": "view",
      "type": "function"
    },
    {
      "inputs": [],
      "name": "owner",
      "outputs": [
        {
          "internalType": "address",
          "name": "",
          "type": "address"
        }
      ],
      "stateMutability": "view",
      "type": "function"
    },
    {
      "inputs": [
        {
          "internalType": "uint256",
          "name": "tokenId",
          "type": "uint256"
        }
      ],
      "name": "ownerOf",
      "outputs": [
        {
          "internalType": "address",
          "name": "",
          "type": "address"
        }
      ],
      "stateMutability": "view",
      "type": "function"
    },
    {
      "inputs": [],
      "name": "paused",
      "outputs": [
        {
          "internalType": "bool",
          "name": "",
          "type": "bool"
        }
      ],
      "stateMutability": "view",
      "type": "function"
    },
    {
      "inputs": [
        {
          "internalType": "uint256",
          "name": "quantity",
          "type": "uint256"
        }
      ],
      "name": "presale",
      "outputs": [],
      "stateMutability": "nonpayable",
      "type": "function"
    },
    {
      "inputs": [
        {
          "internalType": "uint256",
          "name": "quantity",
          "type": "uint256"
        }
      ],
      "name": "pubMint",
      "outputs": [],
      "stateMutability": "nonpayable",
      "type": "function"
    },
    {
      "inputs": [],
      "name": "renounceOwnership",
      "outputs": [],
      "stateMutability": "nonpayable",
      "type": "function"
    },
    {
      "inputs": [],
      "name": "revealed",
      "outputs": [
        {
          "internalType": "bool",
          "name": "",
          "type": "bool"
        }
      ],
      "stateMutability": "view",
      "type": "function"
    },
    {
      "inputs": [
        {
          "internalType": "address",
          "name": "from",
          "type": "address"
        },
        {
          "internalType": "address",
          "name": "to",
          "type": "address"
        },
        {
          "internalType": "uint256",
          "name": "tokenId",
          "type": "uint256"
        }
      ],
      "name": "safeTransferFrom",
      "outputs": [],
      "stateMutability": "nonpayable",
      "type": "function"
    },
    {
      "inputs": [
        {
          "internalType": "address",
          "name": "from",
          "type": "address"
        },
        {
          "internalType": "address",
          "name": "to",
          "type": "address"
        },
        {
          "internalType": "uint256",
          "name": "tokenId",
          "type": "uint256"
        },
        {
          "internalType": "bytes",
          "name": "_data",
          "type": "bytes"
        }
      ],
      "name": "safeTransferFrom",
      "outputs": [],
      "stateMutability": "nonpayable",
      "type": "function"
    },
    {
      "inputs": [],
      "name": "sale_state",
      "outputs": [
        {
          "internalType": "uint16",
          "name": "",
          "type": "uint16"
        }
      ],
      "stateMutability": "view",
      "type": "function"
    },
    {
      "inputs": [
        {
          "internalType": "address",
          "name": "operator",
          "type": "address"
        },
        {
          "internalType": "bool",
          "name": "approved",
          "type": "bool"
        }
      ],
      "name": "setApprovalForAll",
      "outputs": [],
      "stateMutability": "nonpayable",
      "type": "function"
    },
    {
      "inputs": [
        {
          "internalType": "string",
          "name": "_url",
          "type": "string"
        }
      ],
      "name": "setBaseURL",
      "outputs": [],
      "stateMutability": "nonpayable",
      "type": "function"
    },
    {
      "inputs": [
        {
          "internalType": "address[]",
          "name": "wallets",
          "type": "address[]"
        }
      ],
      "name": "setFreemints",
      "outputs": [],
      "stateMutability": "nonpayable",
      "type": "function"
    },
    {
      "inputs": [
        {
          "internalType": "uint256",
          "name": "_supply",
          "type": "uint256"
        }
      ],
      "name": "setMaxSupply",
      "outputs": [],
      "stateMutability": "nonpayable",
      "type": "function"
    },
    {
      "inputs": [
        {
          "internalType": "address",
          "name": "_primary",
          "type": "address"
        }
      ],
      "name": "setPrimaryAddress",
      "outputs": [],
      "stateMutability": "nonpayable",
      "type": "function"
    },
    {
      "inputs": [
        {
          "internalType": "string",
          "name": "_url",
          "type": "string"
        },
        {
          "internalType": "bool",
          "name": "_revealed",
          "type": "bool"
        }
      ],
      "name": "setRevealed",
      "outputs": [],
      "stateMutability": "nonpayable",
      "type": "function"
    },
    {
      "inputs": [
        {
          "internalType": "uint16",
          "name": "_sale_state",
          "type": "uint16"
        }
      ],
      "name": "setSaleState",
      "outputs": [],
      "stateMutability": "nonpayable",
      "type": "function"
    },
    {
      "inputs": [
        {
          "internalType": "bytes4",
          "name": "interfaceId",
          "type": "bytes4"
        }
      ],
      "name": "supportsInterface",
      "outputs": [
        {
          "internalType": "bool",
          "name": "",
          "type": "bool"
        }
      ],
      "stateMutability": "view",
      "type": "function"
    },
    {
      "inputs": [],
      "name": "symbol",
      "outputs": [
        {
          "internalType": "string",
          "name": "",
          "type": "string"
        }
      ],
      "stateMutability": "view",
      "type": "function"
    },
    {
      "inputs": [],
      "name": "togglePaused",
      "outputs": [],
      "stateMutability": "nonpayable",
      "type": "function"
    },
    {
      "inputs": [
        {
          "internalType": "uint256",
          "name": "index",
          "type": "uint256"
        }
      ],
      "name": "tokenByIndex",
      "outputs": [
        {
          "internalType": "uint256",
          "name": "",
          "type": "uint256"
        }
      ],
      "stateMutability": "view",
      "type": "function"
    },
    {
      "inputs": [
        {
          "internalType": "address",
          "name": "owner",
          "type": "address"
        },
        {
          "internalType": "uint256",
          "name": "index",
          "type": "uint256"
        }
      ],
      "name": "tokenOfOwnerByIndex",
      "outputs": [
        {
          "internalType": "uint256",
          "name": "",
          "type": "uint256"
        }
      ],
      "stateMutability": "view",
      "type": "function"
    },
    {
      "inputs": [
        {
          "internalType": "uint256",
          "name": "_tokenId",
          "type": "uint256"
        }
      ],
      "name": "tokenURI",
      "outputs": [
        {
          "internalType": "string",
          "name": "",
          "type": "string"
        }
      ],
      "stateMutability": "view",
      "type": "function"
    },
    {
      "inputs": [],
      "name": "totalSupply",
      "outputs": [
        {
          "internalType": "uint256",
          "name": "",
          "type": "uint256"
        }
      ],
      "stateMutability": "view",
      "type": "function"
    },
    {
      "inputs": [
        {
          "internalType": "address",
          "name": "from",
          "type": "address"
        },
        {
          "internalType": "address",
          "name": "to",
          "type": "address"
        },
        {
          "internalType": "uint256",
          "name": "tokenId",
          "type": "uint256"
        }
      ],
      "name": "transferFrom",
      "outputs": [],
      "stateMutability": "nonpayable",
      "type": "function"
    },
    {
      "inputs": [
        {
          "internalType": "address",
          "name": "newOwner",
          "type": "address"
        }
      ],
      "name": "transferOwnership",
      "outputs": [],
      "stateMutability": "nonpayable",
      "type": "function"
    },
    {
      "inputs": [],
      "name": "withdraw",
      "outputs": [],
      "stateMutability": "payable",
      "type": "function"
    }
  ],
  "bytecode": "0x600080805560075561115c600955600a80556002600b55610140604052604560c0818152906200302c60e03980516200004191600d91602090910190620001d3565b5064173539b7b760d91b600e55601080546001600160a01b03191673ede72391f988707daff883e78941c4ee13c90cae1790553480156200008157600080fd5b506040518060400160405280601981526020017f46616e74617a7961204e46543a20546865205265766976616c00000000000000815250604051806040016040528060058152602001642327232a2960d91b815250600a5460095460008111620001085760405162461bcd60e51b8152600401620000ff90620002c0565b60405180910390fd5b600082116200012b5760405162461bcd60e51b8152600401620000ff9062000279565b835162000140906001906020870190620001d3565b50825162000156906002906020860190620001d3565b5060a09190915260805250620001779050620001716200017d565b62000181565b6200034b565b3390565b600880546001600160a01b038381166001600160a01b0319831681179093556040519116919082907f8be0079c531659141344cd1fd0a4f28419497f9722a3daafe3b4186f6b6457e090600090a35050565b828054620001e1906200030e565b90600052602060002090601f01602090048101928262000205576000855562000250565b82601f106200022057805160ff191683800117855562000250565b8280016001018555821562000250579182015b828111156200025057825182559160200191906001019062000233565b506200025e92915062000262565b5090565b5b808211156200025e576000815560010162000263565b60208082526027908201527f455243373231413a206d61782062617463682073697a65206d757374206265206040820152666e6f6e7a65726f60c81b606082015260800190565b6020808252602e908201527f455243373231413a20636f6c6c656374696f6e206d757374206861766520612060408201526d6e6f6e7a65726f20737570706c7960901b606082015260800190565b6002810460018216806200032357607f821691505b602082108114156200034557634e487b7160e01b600052602260045260246000fd5b50919050565b60805160a051612cb06200037c6000396000818161178c015281816117b60152611bba015260005050612cb06000f3fe60806040526004361061023b5760003560e01c806370a082311161012e578063c87b56dd116100ab578063e6ab14341161006f578063e6ab143414610622578063e985e9c514610642578063f2fde38b14610662578063f5e1713e14610682578063faaaf653146106a45761023b565b8063c87b56dd14610598578063c91d5f97146105b8578063d31a2216146105cd578063d51eeafd146105ed578063d7224ba01461060d5761023b565b806395d89b41116100f257806395d89b4114610503578063a22cb46514610518578063b88d4fde14610538578063c1d9df8d14610558578063c204642c146105785761023b565b806370a082311461048f578063715018a6146104af5780637f78636a146104c45780638da5cb5b146104d9578063950bff9f146104ee5761023b565b806336566f06116101bc5780634f6ccce7116101805780634f6ccce71461040557806351830227146104255780635c975abb1461043a5780636352211e1461044f5780636f8b44b01461046f5761023b565b806336566f06146103935780633ccfd60b146103a857806342842e0e146103b057806346f13619146103d057806349f2553a146103e55761023b565b80631438ddee116102035780631438ddee146102fc57806318160ddd1461031c57806323b872dd1461033e5780632f745c591461035e57806332cb6b0c1461037e5761023b565b806301ffc9a714610240578063062fa1f81461027657806306fdde0314610298578063081812fc146102ba578063095ea7b3146102da575b600080fd5b34801561024c57600080fd5b5061026061025b36600461216a565b6106c4565b60405161026d9190612397565b60405180910390f35b34801561028257600080fd5b5061028b610727565b60405161026d9190612346565b3480156102a457600080fd5b506102ad610736565b60405161026d91906123ab565b3480156102c657600080fd5b5061028b6102d5366004612238565b6107c8565b3480156102e657600080fd5b506102fa6102f53660046120b9565b610814565b005b34801561030857600080fd5b506102fa610317366004612216565b6108ad565b34801561032857600080fd5b50610331610904565b60405161026d91906123a2565b34801561034a57600080fd5b506102fa610359366004611fdd565b61090a565b34801561036a57600080fd5b506103316103793660046120b9565b610915565b34801561038a57600080fd5b50610331610a10565b34801561039f57600080fd5b506102fa610a16565b6102fa610a74565b3480156103bc57600080fd5b506102fa6103cb366004611fdd565b610b24565b3480156103dc57600080fd5b50610331610b3f565b3480156103f157600080fd5b506102fa6104003660046121a2565b610b45565b34801561041157600080fd5b50610331610420366004612238565b610b9b565b34801561043157600080fd5b50610260610bc7565b34801561044657600080fd5b50610260610bd7565b34801561045b57600080fd5b5061028b61046a366004612238565b610be6565b34801561047b57600080fd5b506102fa61048a366004612238565b610bf8565b34801561049b57600080fd5b506103316104aa366004611f91565b610c3c565b3480156104bb57600080fd5b506102fa610c89565b3480156104d057600080fd5b506102ad610cd4565b3480156104e557600080fd5b5061028b610d62565b3480156104fa57600080fd5b50610331610d71565b34801561050f57600080fd5b506102ad610d77565b34801561052457600080fd5b506102fa610533366004612090565b610d86565b34801561054457600080fd5b506102fa610553366004612018565b610e54565b34801561056457600080fd5b506102fa610573366004612238565b610e8d565b34801561058457600080fd5b506102fa610593366004612121565b610f5b565b3480156105a457600080fd5b506102ad6105b3366004612238565b61100b565b3480156105c457600080fd5b506103316110e6565b3480156105d957600080fd5b506102fa6105e83660046120e2565b6110ec565b3480156105f957600080fd5b506102fa610608366004611f91565b6111ab565b34801561061957600080fd5b5061033161120c565b34801561062e57600080fd5b506102fa61063d366004612238565b611212565b34801561064e57600080fd5b5061026061065d366004611fab565b6112b1565b34801561066e57600080fd5b506102fa61067d366004611f91565b6112df565b34801561068e57600080fd5b5061069761134d565b60405161026d9190612ac4565b3480156106b057600080fd5b506102fa6106bf3660046121d4565b611357565b60006001600160e01b031982166380ac58cd60e01b14806106f557506001600160e01b03198216635b5e139f60e01b145b8061071057506001600160e01b0319821663780e9d6360e01b145b8061071f575061071f826113c9565b90505b919050565b6010546001600160a01b031681565b60606001805461074590612bb8565b80601f016020809104026020016040519081016040528092919081815260200182805461077190612bb8565b80156107be5780601f10610793576101008083540402835291602001916107be565b820191906000526020600020905b8154815290600101906020018083116107a157829003601f168201915b5050505050905090565b60006107d3826113e2565b6107f85760405162461bcd60e51b81526004016107ef906129f4565b60405180910390fd5b506000908152600560205260409020546001600160a01b031690565b600061081f82610be6565b9050806001600160a01b0316836001600160a01b031614156108535760405162461bcd60e51b81526004016107ef906127dc565b806001600160a01b03166108656113e9565b6001600160a01b0316148061088157506108818161065d6113e9565b61089d5760405162461bcd60e51b81526004016107ef906125e1565b6108a88383836113ed565b505050565b6108b56113e9565b6001600160a01b03166108c6610d62565b6001600160a01b0316146108ec5760405162461bcd60e51b81526004016107ef906126cf565b600c805461ffff191661ffff92909216919091179055565b60005490565b6108a8838383611449565b600061092083610c3c565b821061093e5760405162461bcd60e51b81526004016107ef906123be565b6000610948610904565b905060008060005b838110156109f1576000818152600360209081526040918290208251808401909352546001600160a01b038116808452600160a01b9091046001600160401b031691830191909152156109a257805192505b876001600160a01b0316836001600160a01b031614156109de57868414156109d057509350610a0a92505050565b836109da81612bf3565b9450505b50806109e981612bf3565b915050610950565b5060405162461bcd60e51b81526004016107ef90612920565b92915050565b60095481565b610a1e6113e9565b6001600160a01b0316610a2f610d62565b6001600160a01b031614610a555760405162461bcd60e51b81526004016107ef906126cf565b600c805462ff0000198116620100009182900460ff1615909102179055565b610a7c6113e9565b6001600160a01b0316610a8d610d62565b6001600160a01b031614610ab35760405162461bcd60e51b81526004016107ef906126cf565b6010546040516000916001600160a01b0316904790610ad190612343565b60006040518083038185875af1925050503d8060008114610b0e576040519150601f19603f3d011682016040523d82523d6000602084013e610b13565b606091505b5050905080610b2157600080fd5b50565b6108a883838360405180602001604052806000815250610e54565b600e5481565b610b4d6113e9565b6001600160a01b0316610b5e610d62565b6001600160a01b031614610b845760405162461bcd60e51b81526004016107ef906126cf565b8051610b9790600d906020840190611ddb565b5050565b6000610ba5610904565b8210610bc35760405162461bcd60e51b81526004016107ef90612490565b5090565b600c546301000000900460ff1681565b600c5462010000900460ff1681565b6000610bf18261175b565b5192915050565b610c006113e9565b6001600160a01b0316610c11610d62565b6001600160a01b031614610c375760405162461bcd60e51b81526004016107ef906126cf565b600955565b60006001600160a01b038216610c645760405162461bcd60e51b81526004016107ef9061263e565b506001600160a01b03166000908152600460205260409020546001600160801b031690565b610c916113e9565b6001600160a01b0316610ca2610d62565b6001600160a01b031614610cc85760405162461bcd60e51b81526004016107ef906126cf565b610cd2600061186d565b565b600d8054610ce190612bb8565b80601f0160208091040260200160405190810160405280929190818152602001828054610d0d90612bb8565b8015610d5a5780601f10610d2f57610100808354040283529160200191610d5a565b820191906000526020600020905b815481529060010190602001808311610d3d57829003601f168201915b505050505081565b6008546001600160a01b031690565b600a5481565b60606002805461074590612bb8565b610d8e6113e9565b6001600160a01b0316826001600160a01b03161415610dbf5760405162461bcd60e51b81526004016107ef90612704565b8060066000610dcc6113e9565b6001600160a01b03908116825260208083019390935260409182016000908120918716808252919093529120805460ff191692151592909217909155610e106113e9565b6001600160a01b03167f17307eab39ab6107e8899845ad3d59bd9653f200f220920489ca2b5937696c3183604051610e489190612397565b60405180910390a35050565b610e5f848484611449565b610e6b848484846118bf565b610e875760405162461bcd60e51b81526004016107ef9061281e565b50505050565b600c5462010000900460ff1615610ea357600080fd5b60095481610eaf610904565b610eb99190612b0a565b1115610ed75760405162461bcd60e51b81526004016107ef906129bd565b600c5461ffff16600214610efd5760405162461bcd60e51b81526004016107ef906125a0565b323314610f1c5760405162461bcd60e51b81526004016107ef90612a83565b600b5481610f29336119db565b610f339190612b0a565b1115610f515760405162461bcd60e51b81526004016107ef9061278d565b610b213382611a2f565b610f636113e9565b6001600160a01b0316610f74610d62565b6001600160a01b031614610f9a5760405162461bcd60e51b81526004016107ef906126cf565b600c5462010000900460ff1615610fb057600080fd5b60005b82811015610e8757610ff9848483818110610fde57634e487b7160e01b600052603260045260246000fd5b9050602002016020810190610ff39190611f91565b83611a2f565b8061100381612bf3565b915050610fb3565b600c546060906301000000900460ff161561105457600d61102b83611a49565b600e5460405160200161104093929190612298565b60405160208183030381529060405261071f565b600d805461106190612bb8565b80601f016020809104026020016040519081016040528092919081815260200182805461108d90612bb8565b80156110da5780601f106110af576101008083540402835291602001916110da565b820191906000526020600020905b8154815290600101906020018083116110bd57829003601f168201915b50505050509050919050565b600b5481565b6110f46113e9565b6001600160a01b0316611105610d62565b6001600160a01b03161461112b5760405162461bcd60e51b81526004016107ef906126cf565b60005b818110156108a8576001600f600085858581811061115c57634e487b7160e01b600052603260045260246000fd5b90506020020160208101906111719190611f91565b6001600160a01b031681526020810191909152604001600020805460ff1916911515919091179055806111a381612bf3565b91505061112e565b6111b36113e9565b6001600160a01b03166111c4610d62565b6001600160a01b0316146111ea5760405162461bcd60e51b81526004016107ef906126cf565b601080546001600160a01b0319166001600160a01b0392909216919091179055565b60075481565b600c5462010000900460ff161561122857600080fd5b60095481611234610904565b61123e9190612b0a565b111561125c5760405162461bcd60e51b81526004016107ef906129bd565b600c5461ffff166001146112825760405162461bcd60e51b81526004016107ef906128e9565b336000908152600f602052604090205460ff16610efd5760405162461bcd60e51b81526004016107ef90612518565b6001600160a01b03918216600090815260066020908152604080832093909416825291909152205460ff1690565b6112e76113e9565b6001600160a01b03166112f8610d62565b6001600160a01b03161461131e5760405162461bcd60e51b81526004016107ef906126cf565b6001600160a01b0381166113445760405162461bcd60e51b81526004016107ef90612400565b610b218161186d565b600c5461ffff1681565b61135f6113e9565b6001600160a01b0316611370610d62565b6001600160a01b0316146113965760405162461bcd60e51b81526004016107ef906126cf565b81516113a990600d906020850190611ddb565b50600c805491151563010000000263ff0000001990921691909117905550565b6001600160e01b031981166301ffc9a760e01b14919050565b6000541190565b3390565b60008281526005602052604080822080546001600160a01b0319166001600160a01b0387811691821790925591518593918516917f8c5be1e5ebec7d5bd14f71427d1e84f3dd0314c0f7b2291e5b200ac8c7c3b92591a4505050565b60006114548261175b565b9050600081600001516001600160a01b031661146e6113e9565b6001600160a01b031614806114a357506114866113e9565b6001600160a01b0316611498846107c8565b6001600160a01b0316145b806114b7575081516114b79061065d6113e9565b9050806114d65760405162461bcd60e51b81526004016107ef9061273b565b846001600160a01b031682600001516001600160a01b03161461150b5760405162461bcd60e51b81526004016107ef90612689565b6001600160a01b0384166115315760405162461bcd60e51b81526004016107ef906124d3565b61153e8585856001610e87565b61154e60008484600001516113ed565b6001600160a01b03851660009081526004602052604081208054600192906115809084906001600160801b0316612b36565b82546101009290920a6001600160801b038181021990931691831602179091556001600160a01b038616600090815260046020526040812080546001945090926115cc91859116612adf565b82546001600160801b039182166101009390930a9283029190920219909116179055506040805180820182526001600160a01b0380871682526001600160401b03428116602080850191825260008981526003909152948520935184549151909216600160a01b0267ffffffffffffffff60a01b19929093166001600160a01b03199091161716179055611661846001612b0a565b6000818152600360205260409020549091506001600160a01b031661170557611689816113e2565b156117055760408051808201825284516001600160a01b0390811682526020808701516001600160401b0390811682850190815260008781526003909352949091209251835494516001600160a01b031990951692169190911767ffffffffffffffff60a01b1916600160a01b93909116929092029190911790555b83856001600160a01b0316876001600160a01b03167fddf252ad1be2c89b69c2b068fc378daa952ba7f163c4a11628f55a4df523b3ef60405160405180910390a46117538686866001610e87565b505050505050565b611763611e5b565b61176c826113e2565b6117885760405162461bcd60e51b81526004016107ef90612446565b60007f000000000000000000000000000000000000000000000000000000000000000083106117e9576117db7f000000000000000000000000000000000000000000000000000000000000000084612b5e565b6117e6906001612b0a565b90505b825b818110611854576000818152600360209081526040918290208251808401909352546001600160a01b038116808452600160a01b9091046001600160401b03169183019190915215611841579250610722915050565b508061184c81612ba1565b9150506117eb565b5060405162461bcd60e51b81526004016107ef9061296e565b600880546001600160a01b038381166001600160a01b0319831681179093556040519116919082907f8be0079c531659141344cd1fd0a4f28419497f9722a3daafe3b4186f6b6457e090600090a35050565b60006118d3846001600160a01b0316611b63565b156119cf57836001600160a01b031663150b7a026118ef6113e9565b8786866040518563ffffffff1660e01b8152600401611911949392919061235a565b602060405180830381600087803b15801561192b57600080fd5b505af192505050801561195b575060408051601f3d908101601f1916820190925261195891810190612186565b60015b6119b5573d808015611989576040519150601f19603f3d011682016040523d82523d6000602084013e61198e565b606091505b5080516119ad5760405162461bcd60e51b81526004016107ef9061281e565b805181602001fd5b6001600160e01b031916630a85bd0160e11b1490506119d3565b5060015b949350505050565b60006001600160a01b038216611a035760405162461bcd60e51b81526004016107ef9061254f565b506001600160a01b0316600090815260046020526040902054600160801b90046001600160801b031690565b610b97828260405180602001604052806000815250611b69565b606081611a6e57506040805180820190915260018152600360fc1b6020820152610722565b8160005b8115611a985780611a8281612bf3565b9150611a919050600a83612b22565b9150611a72565b6000816001600160401b03811115611ac057634e487b7160e01b600052604160045260246000fd5b6040519080825280601f01601f191660200182016040528015611aea576020820181803683370190505b5090505b84156119d357611aff600183612b5e565b9150611b0c600a86612c0e565b611b17906030612b0a565b60f81b818381518110611b3a57634e487b7160e01b600052603260045260246000fd5b60200101906001600160f81b031916908160001a905350611b5c600a86612b22565b9450611aee565b3b151590565b6000546001600160a01b038416611b925760405162461bcd60e51b81526004016107ef906128a8565b611b9b816113e2565b15611bb85760405162461bcd60e51b81526004016107ef90612871565b7f0000000000000000000000000000000000000000000000000000000000000000831115611bf85760405162461bcd60e51b81526004016107ef90612a41565b611c056000858386610e87565b6001600160a01b0384166000908152600460209081526040918290208251808401845290546001600160801b038082168352600160801b9091041691810191909152815180830190925280519091908190611c61908790612adf565b6001600160801b03168152602001858360200151611c7f9190612adf565b6001600160801b039081169091526001600160a01b03808816600081815260046020908152604080832087518154988401518816600160801b029088166fffffffffffffffffffffffffffffffff199099169890981790961696909617909455845180860186529182526001600160401b034281168386019081528883526003909552948120915182549451909516600160a01b0267ffffffffffffffff60a01b19959093166001600160a01b031990941693909317939093161790915582905b85811015611dc95760405182906001600160a01b038916906000907fddf252ad1be2c89b69c2b068fc378daa952ba7f163c4a11628f55a4df523b3ef908290a4611d8d60008884886118bf565b611da95760405162461bcd60e51b81526004016107ef9061281e565b81611db381612bf3565b9250508080611dc190612bf3565b915050611d40565b50600081815561175390878588610e87565b828054611de790612bb8565b90600052602060002090601f016020900481019282611e095760008555611e4f565b82601f10611e2257805160ff1916838001178555611e4f565b82800160010185558215611e4f579182015b82811115611e4f578251825591602001919060010190611e34565b50610bc3929150611e72565b604080518082019091526000808252602082015290565b5b80821115610bc35760008155600101611e73565b60006001600160401b0380841115611ea157611ea1612c4e565b604051601f8501601f19908116603f01168101908282118183101715611ec957611ec9612c4e565b81604052809350858152868686011115611ee257600080fd5b858560208301376000602087830101525050509392505050565b80356001600160a01b038116811461072257600080fd5b60008083601f840112611f24578081fd5b5081356001600160401b03811115611f3a578182fd5b6020830191508360208083028501011115611f5457600080fd5b9250929050565b8035801515811461072257600080fd5b600082601f830112611f7b578081fd5b611f8a83833560208501611e87565b9392505050565b600060208284031215611fa2578081fd5b611f8a82611efc565b60008060408385031215611fbd578081fd5b611fc683611efc565b9150611fd460208401611efc565b90509250929050565b600080600060608486031215611ff1578081fd5b611ffa84611efc565b925061200860208501611efc565b9150604084013590509250925092565b6000806000806080858703121561202d578081fd5b61203685611efc565b935061204460208601611efc565b92506040850135915060608501356001600160401b03811115612065578182fd5b8501601f81018713612075578182fd5b61208487823560208401611e87565b91505092959194509250565b600080604083850312156120a2578182fd5b6120ab83611efc565b9150611fd460208401611f5b565b600080604083850312156120cb578182fd5b6120d483611efc565b946020939093013593505050565b600080602083850312156120f4578182fd5b82356001600160401b03811115612109578283fd5b61211585828601611f13565b90969095509350505050565b600080600060408486031215612135578283fd5b83356001600160401b0381111561214a578384fd5b61215686828701611f13565b909790965060209590950135949350505050565b60006020828403121561217b578081fd5b8135611f8a81612c64565b600060208284031215612197578081fd5b8151611f8a81612c64565b6000602082840312156121b3578081fd5b81356001600160401b038111156121c8578182fd5b6119d384828501611f6b565b600080604083850312156121e6578182fd5b82356001600160401b038111156121fb578283fd5b61220785828601611f6b565b925050611fd460208401611f5b565b600060208284031215612227578081fd5b813561ffff81168114611f8a578182fd5b600060208284031215612249578081fd5b5035919050565b60008151808452612268816020860160208601612b75565b601f01601f19169290920160200192915050565b6000815161228e818560208601612b75565b9290920192915050565b83546000908190600281046001808316806122b457607f831692505b60208084108214156122d457634e487b7160e01b87526022600452602487fd5b8180156122e857600181146122f957612325565b60ff19861689528489019650612325565b6123028c612ad3565b885b8681101561231d5781548b820152908501908301612304565b505084890196505b50612330868b61227c565b9889529097019998505050505050505050565b90565b6001600160a01b0391909116815260200190565b6001600160a01b038581168252841660208201526040810183905260806060820181905260009061238d90830184612250565b9695505050505050565b901515815260200190565b90815260200190565b600060208252611f8a6020830184612250565b60208082526022908201527f455243373231413a206f776e657220696e646578206f7574206f6620626f756e604082015261647360f01b606082015260800190565b60208082526026908201527f4f776e61626c653a206e6577206f776e657220697320746865207a65726f206160408201526564647265737360d01b606082015260800190565b6020808252602a908201527f455243373231413a206f776e657220717565727920666f72206e6f6e657869736040820152693a32b73a103a37b5b2b760b11b606082015260800190565b60208082526023908201527f455243373231413a20676c6f62616c20696e646578206f7574206f6620626f756040820152626e647360e81b606082015260800190565b60208082526025908201527f455243373231413a207472616e7366657220746f20746865207a65726f206164604082015264647265737360d81b606082015260800190565b6020808252601a908201527f41646472657373206973206e6f742077686974656c6973746564000000000000604082015260600190565b60208082526031908201527f455243373231413a206e756d626572206d696e74656420717565727920666f7260408201527020746865207a65726f206164647265737360781b606082015260800190565b60208082526021908201527f5075626c69632073616c652069732063757272656e746c7920696e61637469766040820152606560f81b606082015260800190565b60208082526039908201527f455243373231413a20617070726f76652063616c6c6572206973206e6f74206f60408201527f776e6572206e6f7220617070726f76656420666f7220616c6c00000000000000606082015260800190565b6020808252602b908201527f455243373231413a2062616c616e636520717565727920666f7220746865207a60408201526a65726f206164647265737360a81b606082015260800190565b60208082526026908201527f455243373231413a207472616e736665722066726f6d20696e636f72726563746040820152651037bbb732b960d11b606082015260800190565b6020808252818101527f4f776e61626c653a2063616c6c6572206973206e6f7420746865206f776e6572604082015260600190565b6020808252601a908201527f455243373231413a20617070726f766520746f2063616c6c6572000000000000604082015260600190565b60208082526032908201527f455243373231413a207472616e736665722063616c6c6572206973206e6f74206040820152711bdddb995c881b9bdc88185c1c1c9bdd995960721b606082015260800190565b6020808252602f908201527f41646472657373206973206e6f7420616c6c6f77656420746f206d696e74206d60408201526e1bdc99481d1a185b8813505617d5d3608a1b606082015260800190565b60208082526022908201527f455243373231413a20617070726f76616c20746f2063757272656e74206f776e60408201526132b960f11b606082015260800190565b60208082526033908201527f455243373231413a207472616e7366657220746f206e6f6e204552433732315260408201527232b1b2b4bb32b91034b6b83632b6b2b73a32b960691b606082015260800190565b6020808252601d908201527f455243373231413a20746f6b656e20616c7265616479206d696e746564000000604082015260600190565b60208082526021908201527f455243373231413a206d696e7420746f20746865207a65726f206164647265736040820152607360f81b606082015260800190565b6020808252601d908201527f50726573616c652069732063757272656e746c7920696e616374697665000000604082015260600190565b6020808252602e908201527f455243373231413a20756e61626c6520746f2067657420746f6b656e206f662060408201526d0deeedccae440c4f240d2dcc8caf60931b606082015260800190565b6020808252602f908201527f455243373231413a20756e61626c6520746f2064657465726d696e652074686560408201526e1037bbb732b91037b3103a37b5b2b760891b606082015260800190565b6020808252601b908201527f416c6c20746f6b656e732068617665206265656e206d696e7465640000000000604082015260600190565b6020808252602d908201527f455243373231413a20617070726f76656420717565727920666f72206e6f6e6560408201526c3c34b9ba32b73a103a37b5b2b760991b606082015260800190565b60208082526022908201527f455243373231413a207175616e7469747920746f206d696e7420746f6f2068696040820152610ced60f31b606082015260800190565b60208082526021908201527f436f6e74726163747320617265206e6f7420616c6c6f77656420746f206d696e6040820152601d60fa1b606082015260800190565b61ffff91909116815260200190565b60009081526020902090565b60006001600160801b03808316818516808303821115612b0157612b01612c22565b01949350505050565b60008219821115612b1d57612b1d612c22565b500190565b600082612b3157612b31612c38565b500490565b60006001600160801b0383811690831681811015612b5657612b56612c22565b039392505050565b600082821015612b7057612b70612c22565b500390565b60005b83811015612b90578181015183820152602001612b78565b83811115610e875750506000910152565b600081612bb057612bb0612c22565b506000190190565b600281046001821680612bcc57607f821691505b60208210811415612bed57634e487b7160e01b600052602260045260246000fd5b50919050565b6000600019821415612c0757612c07612c22565b5060010190565b600082612c1d57612c1d612c38565b500690565b634e487b7160e01b600052601160045260246000fd5b634e487b7160e01b600052601260045260246000fd5b634e487b7160e01b600052604160045260246000fd5b6001600160e01b031981168114610b2157600080fdfea2646970667358221220e598fce63f749b35013dbf4a1ba69d073cfdbfe19360f7ba5cd0f161d73aa0a464736f6c63430008010033697066733a2f2f516d546b7933426350637073536e5876764e6e69344147633678674d33676854544e504a68466754624a7a41756a2f756e72657665616c65642e6a736f6e",
  "linkReferences": {},
  "deployedLinkReferences": {}
}