{
  "contracts/Fantazya.sol": {
    "Fantazya": {
      "abi": [
        {
          "inputs": [],
          "stateMutability": "nonpayable",
          "type": "constructor"
        },
        {
          "anonymous": false,
          "inputs": [
            {
              "indexed": true,
              "internalType": "address",
              "name": "owner",
              "type": "address"
            },
            {
              "indexed": true,
              "internalType": "address",
              "name": "approved",
              "type": "address"
            },
            {
              "indexed": true,
              "internalType": "uint256",
              "name": "tokenId",
              "type": "uint256"
            }
          ],
          "name": "Approval",
          "type": "event"
        },
        {
          "anonymous": false,
          "inputs": [
            {
              "indexed": true,
              "internalType": "address",
              "name": "owner",
              "type": "address"
            },
            {
              "indexed": true,
              "internalType": "address",
              "name": "operator",
              "type": "address"
            },
            {
              "indexed": false,
              "internalType": "bool",
              "name": "approved",
              "type": "bool"
            }
          ],
          "name": "ApprovalForAll",
          "type": "event"
        },
        {
          "anonymous": false,
          "inputs": [
            {
              "indexed": true,
              "internalType": "address",
              "name": "previousOwner",
              "type": "address"
            },
            {
              "indexed": true,
              "internalType": "address",
              "name": "newOwner",
              "type": "address"
            }
          ],
          "name": "OwnershipTransferred",
          "type": "event"
        },
        {
          "anonymous": false,
          "inputs": [
            {
              "indexed": true,
              "internalType": "address",
              "name": "from",
              "type": "address"
            },
            {
              "indexed": true,
              "internalType": "address",
              "name": "to",
              "type": "address"
            },
            {
              "indexed": true,
              "internalType": "uint256",
              "name": "tokenId",
              "type": "uint256"
            }
          ],
          "name": "Transfer",
          "type": "event"
        },
        {
          "inputs": [],
          "name": "BASE_URL",
          "outputs": [
            {
              "internalType": "string",
              "name": "",
              "type": "string"
            }
          ],
          "stateMutability": "view",
          "type": "function"
        },
        {
          "inputs": [],
          "name": "EXTENSION",
          "outputs": [
            {
              "internalType": "bytes32",
              "name": "",
              "type": "bytes32"
            }
          ],
          "stateMutability": "view",
          "type": "function"
        },
        {
          "inputs": [],
          "name": "GIVEAWAYS",
          "outputs": [
            {
              "internalType": "uint256",
              "name": "",
              "type": "uint256"
            }
          ],
          "stateMutability": "view",
          "type": "function"
        },
        {
          "inputs": [],
          "name": "MAX_BATCH",
          "outputs": [
            {
              "internalType": "uint256",
              "name": "",
              "type": "uint256"
            }
          ],
          "stateMutability": "view",
          "type": "function"
        },
        {
          "inputs": [],
          "name": "MAX_OG",
          "outputs": [
            {
              "internalType": "uint256",
              "name": "",
              "type": "uint256"
            }
          ],
          "stateMutability": "view",
          "type": "function"
        },
        {
          "inputs": [],
          "name": "MAX_SUPPLY",
          "outputs": [
            {
              "internalType": "uint256",
              "name": "",
              "type": "uint256"
            }
          ],
          "stateMutability": "view",
          "type": "function"
        },
        {
          "inputs": [],
          "name": "MAX_WL",
          "outputs": [
            {
              "internalType": "uint256",
              "name": "",
              "type": "uint256"
            }
          ],
          "stateMutability": "view",
          "type": "function"
        },
        {
          "inputs": [],
          "name": "PRIMARY",
          "outputs": [
            {
              "internalType": "address",
              "name": "",
              "type": "address"
            }
          ],
          "stateMutability": "view",
          "type": "function"
        },
        {
          "inputs": [],
          "name": "PROVENANCE",
          "outputs": [
            {
              "internalType": "string",
              "name": "",
              "type": "string"
            }
          ],
          "stateMutability": "view",
          "type": "function"
        },
        {
          "inputs": [],
          "name": "PUB_KEY",
          "outputs": [
            {
              "internalType": "address",
              "name": "",
              "type": "address"
            }
          ],
          "stateMutability": "view",
          "type": "function"
        },
        {
          "inputs": [],
          "name": "SALE_PRICE",
          "outputs": [
            {
              "internalType": "uint256",
              "name": "",
              "type": "uint256"
            }
          ],
          "stateMutability": "view",
          "type": "function"
        },
        {
          "inputs": [
            {
              "internalType": "address",
              "name": "_account",
              "type": "address"
            }
          ],
          "name": "addDev",
          "outputs": [],
          "stateMutability": "nonpayable",
          "type": "function"
        },
        {
          "inputs": [
            {
              "internalType": "address",
              "name": "_account",
              "type": "address"
            }
          ],
          "name": "addOwner",
          "outputs": [],
          "stateMutability": "nonpayable",
          "type": "function"
        },
        {
          "inputs": [
            {
              "internalType": "address",
              "name": "to",
              "type": "address"
            },
            {
              "internalType": "uint256",
              "name": "tokenId",
              "type": "uint256"
            }
          ],
          "name": "approve",
          "outputs": [],
          "stateMutability": "nonpayable",
          "type": "function"
        },
        {
          "inputs": [
            {
              "internalType": "address",
              "name": "owner",
              "type": "address"
            }
          ],
          "name": "balanceOf",
          "outputs": [
            {
              "internalType": "uint256",
              "name": "",
              "type": "uint256"
            }
          ],
          "stateMutability": "view",
          "type": "function"
        },
        {
          "inputs": [
            {
              "internalType": "uint256",
              "name": "tokenId",
              "type": "uint256"
            }
          ],
          "name": "getApproved",
          "outputs": [
            {
              "internalType": "address",
              "name": "",
              "type": "address"
            }
          ],
          "stateMutability": "view",
          "type": "function"
        },
        {
          "inputs": [
            {
              "internalType": "address",
              "name": "owner",
              "type": "address"
            },
            {
              "internalType": "address",
              "name": "operator",
              "type": "address"
            }
          ],
          "name": "isApprovedForAll",
          "outputs": [
            {
              "internalType": "bool",
              "name": "",
              "type": "bool"
            }
          ],
          "stateMutability": "view",
          "type": "function"
        },
        {
          "inputs": [],
          "name": "name",
          "outputs": [
            {
              "internalType": "string",
              "name": "",
              "type": "string"
            }
          ],
          "stateMutability": "view",
          "type": "function"
        },
        {
          "inputs": [],
          "name": "nextOwnerToExplicitlySet",
          "outputs": [
            {
              "internalType": "uint256",
              "name": "",
              "type": "uint256"
            }
          ],
          "stateMutability": "view",
          "type": "function"
        },
        {
          "inputs": [
            {
              "internalType": "bytes",
              "name": "_signature",
              "type": "bytes"
            },
            {
              "internalType": "uint256",
              "name": "quantity",
              "type": "uint256"
            }
          ],
          "name": "ogMint",
          "outputs": [],
          "stateMutability": "payable",
          "type": "function"
        },
        {
          "inputs": [],
          "name": "owner",
          "outputs": [
            {
              "internalType": "address",
              "name": "",
              "type": "address"
            }
          ],
          "stateMutability": "view",
          "type": "function"
        },
        {
          "inputs": [
            {
              "internalType": "uint256",
              "name": "tokenId",
              "type": "uint256"
            }
          ],
          "name": "ownerOf",
          "outputs": [
            {
              "internalType": "address",
              "name": "",
              "type": "address"
            }
          ],
          "stateMutability": "view",
          "type": "function"
        },
        {
          "inputs": [],
          "name": "paused",
          "outputs": [
            {
              "internalType": "bool",
              "name": "",
              "type": "bool"
            }
          ],
          "stateMutability": "view",
          "type": "function"
        },
        {
          "inputs": [
            {
              "internalType": "uint256",
              "name": "quantity",
              "type": "uint256"
            }
          ],
          "name": "preMint",
          "outputs": [],
          "stateMutability": "nonpayable",
          "type": "function"
        },
        {
          "inputs": [
            {
              "internalType": "bytes",
              "name": "_signature",
              "type": "bytes"
            },
            {
              "internalType": "uint256",
              "name": "quantity",
              "type": "uint256"
            }
          ],
          "name": "presale",
          "outputs": [],
          "stateMutability": "payable",
          "type": "function"
        },
        {
          "inputs": [
            {
              "internalType": "uint256",
              "name": "quantity",
              "type": "uint256"
            }
          ],
          "name": "pubMint",
          "outputs": [],
          "stateMutability": "payable",
          "type": "function"
        },
        {
          "inputs": [
            {
              "internalType": "address",
              "name": "_account",
              "type": "address"
            }
          ],
          "name": "removeDev",
          "outputs": [],
          "stateMutability": "nonpayable",
          "type": "function"
        },
        {
          "inputs": [
            {
              "internalType": "address",
              "name": "_account",
              "type": "address"
            }
          ],
          "name": "removeOwner",
          "outputs": [],
          "stateMutability": "nonpayable",
          "type": "function"
        },
        {
          "inputs": [],
          "name": "renounceOwnership",
          "outputs": [],
          "stateMutability": "nonpayable",
          "type": "function"
        },
        {
          "inputs": [],
          "name": "revealed",
          "outputs": [
            {
              "internalType": "bool",
              "name": "",
              "type": "bool"
            }
          ],
          "stateMutability": "view",
          "type": "function"
        },
        {
          "inputs": [
            {
              "internalType": "address",
              "name": "from",
              "type": "address"
            },
            {
              "internalType": "address",
              "name": "to",
              "type": "address"
            },
            {
              "internalType": "uint256",
              "name": "tokenId",
              "type": "uint256"
            }
          ],
          "name": "safeTransferFrom",
          "outputs": [],
          "stateMutability": "nonpayable",
          "type": "function"
        },
        {
          "inputs": [
            {
              "internalType": "address",
              "name": "from",
              "type": "address"
            },
            {
              "internalType": "address",
              "name": "to",
              "type": "address"
            },
            {
              "internalType": "uint256",
              "name": "tokenId",
              "type": "uint256"
            },
            {
              "internalType": "bytes",
              "name": "_data",
              "type": "bytes"
            }
          ],
          "name": "safeTransferFrom",
          "outputs": [],
          "stateMutability": "nonpayable",
          "type": "function"
        },
        {
          "inputs": [],
          "name": "sale_state",
          "outputs": [
            {
              "internalType": "uint16",
              "name": "",
              "type": "uint16"
            }
          ],
          "stateMutability": "view",
          "type": "function"
        },
        {
          "inputs": [
            {
              "internalType": "address",
              "name": "operator",
              "type": "address"
            },
            {
              "internalType": "bool",
              "name": "approved",
              "type": "bool"
            }
          ],
          "name": "setApprovalForAll",
          "outputs": [],
          "stateMutability": "nonpayable",
          "type": "function"
        },
        {
          "inputs": [
            {
              "internalType": "string",
              "name": "_url",
              "type": "string"
            }
          ],
          "name": "setBaseURL",
          "outputs": [],
          "stateMutability": "nonpayable",
          "type": "function"
        },
        {
          "inputs": [
            {
              "internalType": "address[]",
              "name": "wallets",
              "type": "address[]"
            }
          ],
          "name": "setFreemints",
          "outputs": [],
          "stateMutability": "nonpayable",
          "type": "function"
        },
        {
          "inputs": [
            {
              "internalType": "address",
              "name": "_primary",
              "type": "address"
            }
          ],
          "name": "setPrimaryAddress",
          "outputs": [],
          "stateMutability": "nonpayable",
          "type": "function"
        },
        {
          "inputs": [
            {
              "internalType": "string",
              "name": "_provenance",
              "type": "string"
            }
          ],
          "name": "setProvenance",
          "outputs": [],
          "stateMutability": "nonpayable",
          "type": "function"
        },
        {
          "inputs": [
            {
              "internalType": "address",
              "name": "_key",
              "type": "address"
            }
          ],
          "name": "setPubkey",
          "outputs": [],
          "stateMutability": "nonpayable",
          "type": "function"
        },
        {
          "inputs": [
            {
              "internalType": "string",
              "name": "_url",
              "type": "string"
            },
            {
              "internalType": "bool",
              "name": "_revealed",
              "type": "bool"
            }
          ],
          "name": "setRevealed",
          "outputs": [],
          "stateMutability": "nonpayable",
          "type": "function"
        },
        {
          "inputs": [
            {
              "internalType": "uint256",
              "name": "_salePrice",
              "type": "uint256"
            }
          ],
          "name": "setSalePrice",
          "outputs": [],
          "stateMutability": "nonpayable",
          "type": "function"
        },
        {
          "inputs": [
            {
              "internalType": "uint16",
              "name": "_sale_state",
              "type": "uint16"
            }
          ],
          "name": "setSaleState",
          "outputs": [],
          "stateMutability": "nonpayable",
          "type": "function"
        },
        {
          "inputs": [
            {
              "internalType": "bytes4",
              "name": "interfaceId",
              "type": "bytes4"
            }
          ],
          "name": "supportsInterface",
          "outputs": [
            {
              "internalType": "bool",
              "name": "",
              "type": "bool"
            }
          ],
          "stateMutability": "view",
          "type": "function"
        },
        {
          "inputs": [],
          "name": "symbol",
          "outputs": [
            {
              "internalType": "string",
              "name": "",
              "type": "string"
            }
          ],
          "stateMutability": "view",
          "type": "function"
        },
        {
          "inputs": [],
          "name": "togglePaused",
          "outputs": [],
          "stateMutability": "nonpayable",
          "type": "function"
        },
        {
          "inputs": [
            {
              "internalType": "uint256",
              "name": "index",
              "type": "uint256"
            }
          ],
          "name": "tokenByIndex",
          "outputs": [
            {
              "internalType": "uint256",
              "name": "",
              "type": "uint256"
            }
          ],
          "stateMutability": "view",
          "type": "function"
        },
        {
          "inputs": [
            {
              "internalType": "address",
              "name": "owner",
              "type": "address"
            },
            {
              "internalType": "uint256",
              "name": "index",
              "type": "uint256"
            }
          ],
          "name": "tokenOfOwnerByIndex",
          "outputs": [
            {
              "internalType": "uint256",
              "name": "",
              "type": "uint256"
            }
          ],
          "stateMutability": "view",
          "type": "function"
        },
        {
          "inputs": [
            {
              "internalType": "uint256",
              "name": "_tokenId",
              "type": "uint256"
            }
          ],
          "name": "tokenURI",
          "outputs": [
            {
              "internalType": "string",
              "name": "",
              "type": "string"
            }
          ],
          "stateMutability": "view",
          "type": "function"
        },
        {
          "inputs": [],
          "name": "totalSupply",
          "outputs": [
            {
              "internalType": "uint256",
              "name": "",
              "type": "uint256"
            }
          ],
          "stateMutability": "view",
          "type": "function"
        },
        {
          "inputs": [
            {
              "internalType": "address",
              "name": "from",
              "type": "address"
            },
            {
              "internalType": "address",
              "name": "to",
              "type": "address"
            },
            {
              "internalType": "uint256",
              "name": "tokenId",
              "type": "uint256"
            }
          ],
          "name": "transferFrom",
          "outputs": [],
          "stateMutability": "nonpayable",
          "type": "function"
        },
        {
          "inputs": [
            {
              "internalType": "address",
              "name": "newOwner",
              "type": "address"
            }
          ],
          "name": "transferOwnership",
          "outputs": [],
          "stateMutability": "nonpayable",
          "type": "function"
        },
        {
          "inputs": [],
          "name": "withdraw",
          "outputs": [],
          "stateMutability": "payable",
          "type": "function"
        }
      ],
      "evm": {
        "bytecode": {
          "linkReferences": {},
          "object": "60008080556007819055610d0560095561012c600a556005600b556003600c556064600d55661550f7dca70000600e5560e0604081905260c08290526200004a9160119190620001ce565b5064173539b7b760d91b6012553480156200006457600080fd5b50604051806040016040528060048152602001631193919560e21b815250604051806040016040528060048152602001631193919560e21b815250600b5460095460008111620000d15760405162461bcd60e51b8152600401620000c890620002bb565b60405180910390fd5b60008211620000f45760405162461bcd60e51b8152600401620000c89062000274565b835162000109906001906020870190620001ce565b5082516200011f906002906020860190620001ce565b5060a091909152608052506200014090506200013a62000178565b6200017c565b3360009081526014602090815260408083208054600160ff199182168117909255601390935292208054909116909117905562000346565b3390565b600880546001600160a01b038381166001600160a01b0319831681179093556040519116919082907f8be0079c531659141344cd1fd0a4f28419497f9722a3daafe3b4186f6b6457e090600090a35050565b828054620001dc9062000309565b90600052602060002090601f0160209004810192826200020057600085556200024b565b82601f106200021b57805160ff19168380011785556200024b565b828001600101855582156200024b579182015b828111156200024b5782518255916020019190600101906200022e565b50620002599291506200025d565b5090565b5b808211156200025957600081556001016200025e565b60208082526027908201527f455243373231413a206d61782062617463682073697a65206d757374206265206040820152666e6f6e7a65726f60c81b606082015260800190565b6020808252602e908201527f455243373231413a20636f6c6c656374696f6e206d757374206861766520612060408201526d6e6f6e7a65726f20737570706c7960901b606082015260800190565b6002810460018216806200031e57607f821691505b602082108114156200034057634e487b7160e01b600052602260045260246000fd5b50919050565b60805160a05161397c6200037760003960008181611daf01528181611dd901526121ca01526000505061397c6000f3fe6080604052600436106102ff5760003560e01c8063715018a611610190578063c4026d7b116100dc578063d701dbee11610095578063f2fde38b1161006f578063f2fde38b14610828578063f5e1713e14610848578063faaaf6531461086a578063ffe630b51461088a576102ff565b8063d701dbee146107d3578063d7224ba0146107f3578063e985e9c514610808576102ff565b8063c4026d7b14610729578063c87b56dd14610749578063c91d5f9714610769578063ce2a86f01461077e578063d31a221614610793578063d51eeafd146107b3576102ff565b80638da5cb5b11610149578063a22cb46511610123578063a22cb465146106b6578063b88d4fde146106d6578063b91d3ace146106f6578063c1d9df8d14610716576102ff565b80638da5cb5b14610677578063950bff9f1461068c57806395d89b41146106a1576102ff565b8063715018a6146105f057806377cfe82b146106055780637f205a74146106185780637f78636a1461062d578063814a4c1e146106425780638ad433ac14610657576102ff565b806336566f061161024f57806351830227116102085780636352211e116101e25780636352211e1461057b5780636373a6b11461059b5780637065cb48146105b057806370a08231146105d0576102ff565b8063518302271461053e5780635c975abb14610553578063607019b914610568576102ff565b806336566f06146104ac5780633ccfd60b146104c157806342842e0e146104c957806346f13619146104e957806349f2553a146104fe5780634f6ccce71461051e576102ff565b8063173825d9116102bc57806323b872dd1161029657806323b872dd14610442578063283d26ca146104625780632f745c591461047757806332cb6b0c14610497576102ff565b8063173825d9146103e057806318160ddd146104005780631919fed714610422576102ff565b806301ffc9a714610304578063062fa1f81461033a57806306fdde031461035c578063081812fc1461037e578063095ea7b31461039e5780631438ddee146103c0575b600080fd5b34801561031057600080fd5b5061032461031f3660046129ce565b6108aa565b6040516103319190612ce4565b60405180910390f35b34801561034657600080fd5b5061034f61090d565b6040516103319190612c7a565b34801561036857600080fd5b5061037161091c565b6040516103319190612d16565b34801561038a57600080fd5b5061034f610399366004612b11565b6109ae565b3480156103aa57600080fd5b506103be6103b9366004612936565b6109fa565b005b3480156103cc57600080fd5b506103be6103db366004612aef565b610a93565b3480156103ec57600080fd5b506103be6103fb36600461280d565b610ac7565b34801561040c57600080fd5b50610415610b3c565b6040516103319190612cef565b34801561042e57600080fd5b506103be61043d366004612b11565b610b42565b34801561044e57600080fd5b506103be61045d366004612859565b610b63565b34801561046e57600080fd5b5061034f610b6e565b34801561048357600080fd5b50610415610492366004612936565b610b7d565b3480156104a357600080fd5b50610415610c79565b3480156104b857600080fd5b506103be610c7f565b6103be610cba565b3480156104d557600080fd5b506103be6104e4366004612859565b610d47565b3480156104f557600080fd5b50610415610d62565b34801561050a57600080fd5b506103be610519366004612a79565b610d68565b34801561052a57600080fd5b50610415610539366004612b11565b610d9b565b34801561054a57600080fd5b50610324610dc7565b34801561055f57600080fd5b50610324610dd7565b6103be610576366004612a06565b610de6565b34801561058757600080fd5b5061034f610596366004612b11565b610f2b565b3480156105a757600080fd5b50610371610f3d565b3480156105bc57600080fd5b506103be6105cb36600461280d565b610fcb565b3480156105dc57600080fd5b506104156105eb36600461280d565b611044565b3480156105fc57600080fd5b506103be611091565b6103be610613366004612a06565b6110dc565b34801561062457600080fd5b506104156111a0565b34801561063957600080fd5b506103716111a6565b34801561064e57600080fd5b506104156111b3565b34801561066357600080fd5b506103be610672366004612b11565b6111b9565b34801561068357600080fd5b5061034f6112b3565b34801561069857600080fd5b506104156112c2565b3480156106ad57600080fd5b506103716112c8565b3480156106c257600080fd5b506103be6106d136600461290d565b6112d7565b3480156106e257600080fd5b506103be6106f1366004612894565b6113a5565b34801561070257600080fd5b506103be61071136600461280d565b6113de565b6103be610724366004612b11565b611457565b34801561073557600080fd5b506103be61074436600461280d565b611551565b34801561075557600080fd5b50610371610764366004612b11565b6115c6565b34801561077557600080fd5b506104156116a1565b34801561078a57600080fd5b506104156116a7565b34801561079f57600080fd5b506103be6107ae36600461295f565b6116ad565b3480156107bf57600080fd5b506103be6107ce36600461280d565b611749565b3480156107df57600080fd5b506103be6107ee36600461280d565b611787565b3480156107ff57600080fd5b506104156117c5565b34801561081457600080fd5b50610324610823366004612827565b6117cb565b34801561083457600080fd5b506103be61084336600461280d565b6117f9565b34801561085457600080fd5b5061085d611867565b6040516103319190613771565b34801561087657600080fd5b506103be610885366004612aac565b611871565b34801561089657600080fd5b506103be6108a5366004612a79565b6118c0565b60006001600160e01b031982166380ac58cd60e01b14806108db57506001600160e01b03198216635b5e139f60e01b145b806108f657506001600160e01b0319821663780e9d6360e01b145b806109055750610905826118ef565b90505b919050565b6016546001600160a01b031681565b60606001805461092b90613884565b80601f016020809104026020016040519081016040528092919081815260200182805461095790613884565b80156109a45780601f10610979576101008083540402835291602001916109a4565b820191906000526020600020905b81548152906001019060200180831161098757829003601f168201915b5050505050905090565b60006109b982611908565b6109de5760405162461bcd60e51b81526004016109d5906136a1565b60405180910390fd5b506000908152600560205260409020546001600160a01b031690565b6000610a0582610f2b565b9050806001600160a01b0316836001600160a01b03161415610a395760405162461bcd60e51b81526004016109d5906133b6565b806001600160a01b0316610a4b61190f565b6001600160a01b03161480610a675750610a678161082361190f565b610a835760405162461bcd60e51b81526004016109d59061310b565b610a8e838383611913565b505050565b3360009081526014602052604090205460ff16610aaf57600080fd5b600f805461ffff191661ffff92909216919091179055565b3360009081526013602052604090205460ff16610ae357600080fd5b6001600160a01b03811660009081526013602052604090205460ff16610b1b5760405162461bcd60e51b81526004016109d5906133f8565b6001600160a01b03166000908152601360205260409020805460ff19169055565b60005490565b3360009081526013602052604090205460ff16610b5e57600080fd5b600e55565b610a8e83838361196f565b6017546001600160a01b031681565b6000610b8883611044565b8210610ba65760405162461bcd60e51b81526004016109d590612d60565b6000610bb0610b3c565b905060008060005b83811015610c5a576000818152600360209081526040918290208251808401909352546001600160a01b038116808452600160a01b90910467ffffffffffffffff169183019190915215610c0b57805192505b876001600160a01b0316836001600160a01b03161415610c475786841415610c3957509350610c7392505050565b83610c43816138bf565b9450505b5080610c52816138bf565b915050610bb8565b5060405162461bcd60e51b81526004016109d5906135cd565b92915050565b60095481565b3360009081526014602052604090205460ff16610c9b57600080fd5b600f805462ff0000198116620100009182900460ff1615909102179055565b3360009081526013602052604090205460ff16610cd657600080fd5b6016546040516000916001600160a01b0316904790610cf490612c77565b60006040518083038185875af1925050503d8060008114610d31576040519150601f19603f3d011682016040523d82523d6000602084013e610d36565b606091505b5050905080610d4457600080fd5b50565b610a8e838383604051806020016040528060008152506113a5565b60125481565b3360009081526014602052604090205460ff16610d8457600080fd5b8051610d9790601090602084019061269e565b5050565b6000610da5610b3c565b8210610dc35760405162461bcd60e51b81526004016109d590612ee1565b5090565b600f546301000000900460ff1681565b600f5462010000900460ff1681565b600f5462010000900460ff1615610dfc57600080fd5b600d54600a54610e0c91906137b7565b81610e15610b3c565b610e1f91906137b7565b1115610e3d5760405162461bcd60e51b81526004016109d590613596565b600f5461ffff16600114610e635760405162461bcd60e51b81526004016109d59061355f565b610e6e838333611c83565b610e8a5760405162461bcd60e51b81526004016109d590612f69565b323314610ea95760405162461bcd60e51b81526004016109d590613730565b3360009081526015602052604090205460ff16610eec5780600e54610ece91906137e3565b3414610eec5760405162461bcd60e51b81526004016109d5906134e7565b600c5481610ef933611d10565b610f0391906137b7565b1115610f215760405162461bcd60e51b81526004016109d590613367565b610a8e3382611d64565b6000610f3682611d7e565b5192915050565b60118054610f4a90613884565b80601f0160208091040260200160405190810160405280929190818152602001828054610f7690613884565b8015610fc35780601f10610f9857610100808354040283529160200191610fc3565b820191906000526020600020905b815481529060010190602001808311610fa657829003601f168201915b505050505081565b3360009081526013602052604090205460ff16610fe757600080fd5b6001600160a01b03811660009081526013602052604090205460ff16156110205760405162461bcd60e51b81526004016109d590612e1f565b6001600160a01b03166000908152601360205260409020805460ff19166001179055565b60006001600160a01b03821661106c5760405162461bcd60e51b81526004016109d5906131d6565b506001600160a01b03166000908152600460205260409020546001600160801b031690565b61109961190f565b6001600160a01b03166110aa6112b3565b6001600160a01b0316146110d05760405162461bcd60e51b81526004016109d5906132a9565b6110da6000611e91565b565b600f5462010000900460ff16156110f257600080fd5b600954816110fe610b3c565b61110891906137b7565b11156111265760405162461bcd60e51b81526004016109d59061366a565b600f5461ffff1660021461114c5760405162461bcd60e51b81526004016109d59061355f565b611157838333611c83565b6111735760405162461bcd60e51b81526004016109d590612f69565b3233146111925760405162461bcd60e51b81526004016109d590613730565b80600e54610ece91906137e3565b600e5481565b60108054610f4a90613884565b600a5481565b3360009081526013602052604090205460ff166111d557600080fd5b600f5462010000900460ff16156111eb57600080fd5b3360009081526013602052604090205460ff1661121a5760405162461bcd60e51b81526004016109d590613426565b600b5461122790826138da565b156112445760405162461bcd60e51b81526004016109d590613085565b600d5481611250610b3c565b61125a91906137b7565b11156112785760405162461bcd60e51b81526004016109d590612e97565b6000600b548261128891906137cf565b905060005b81811015610a8e576112a133600b54611d64565b806112ab816138bf565b91505061128d565b6008546001600160a01b031690565b600b5481565b60606002805461092b90613884565b6112df61190f565b6001600160a01b0316826001600160a01b031614156113105760405162461bcd60e51b81526004016109d5906132de565b806006600061131d61190f565b6001600160a01b03908116825260208083019390935260409182016000908120918716808252919093529120805460ff19169215159290921790915561136161190f565b6001600160a01b03167f17307eab39ab6107e8899845ad3d59bd9653f200f220920489ca2b5937696c31836040516113999190612ce4565b60405180910390a35050565b6113b084848461196f565b6113bc84848484611ee3565b6113d85760405162461bcd60e51b81526004016109d59061345d565b50505050565b3360009081526013602052604090205460ff166113fa57600080fd5b6001600160a01b03811660009081526014602052604090205460ff16156114335760405162461bcd60e51b81526004016109d590613168565b6001600160a01b03166000908152601460205260409020805460ff19166001179055565b600f5462010000900460ff161561146d57600080fd5b60095481611479610b3c565b61148391906137b7565b11156114a15760405162461bcd60e51b81526004016109d59061366a565b600f5461ffff166003146114c75760405162461bcd60e51b81526004016109d5906130ca565b3233146114e65760405162461bcd60e51b81526004016109d590613730565b80600e546114f491906137e3565b34146115125760405162461bcd60e51b81526004016109d5906134e7565b600b548161151f33611d10565b61152991906137b7565b11156115475760405162461bcd60e51b81526004016109d590612ff1565b610d443382611d64565b3360009081526013602052604090205460ff1661156d57600080fd5b6001600160a01b03811660009081526014602052604090205460ff166115a55760405162461bcd60e51b81526004016109d59061319f565b6001600160a01b03166000908152601460205260409020805460ff19169055565b600f546060906301000000900460ff161561160f5760106115e683611fff565b6012546040516020016115fb93929190612b71565b604051602081830303815290604052610905565b6010805461161c90613884565b80601f016020809104026020016040519081016040528092919081815260200182805461164890613884565b80156116955780601f1061166a57610100808354040283529160200191611695565b820191906000526020600020905b81548152906001019060200180831161167857829003601f168201915b50505050509050919050565b600c5481565b600d5481565b3360009081526014602052604090205460ff166116c957600080fd5b60005b81811015610a8e576001601560008585858181106116fa57634e487b7160e01b600052603260045260246000fd5b905060200201602081019061170f919061280d565b6001600160a01b031681526020810191909152604001600020805460ff191691151591909117905580611741816138bf565b9150506116cc565b3360009081526013602052604090205460ff1661176557600080fd5b601680546001600160a01b0319166001600160a01b0392909216919091179055565b3360009081526014602052604090205460ff166117a357600080fd5b601780546001600160a01b0319166001600160a01b0392909216919091179055565b60075481565b6001600160a01b03918216600090815260066020908152604080832093909416825291909152205460ff1690565b61180161190f565b6001600160a01b03166118126112b3565b6001600160a01b0316146118385760405162461bcd60e51b81526004016109d5906132a9565b6001600160a01b03811661185e5760405162461bcd60e51b81526004016109d590612dd9565b610d4481611e91565b600f5461ffff1681565b3360009081526014602052604090205460ff1661188d57600080fd5b81516118a090601090602085019061269e565b50600f805491151563010000000263ff0000001990921691909117905550565b3360009081526014602052604090205460ff166118dc57600080fd5b8051610d9790601190602084019061269e565b6001600160e01b031981166301ffc9a760e01b14919050565b6000541190565b3390565b60008281526005602052604080822080546001600160a01b0319166001600160a01b0387811691821790925591518593918516917f8c5be1e5ebec7d5bd14f71427d1e84f3dd0314c0f7b2291e5b200ac8c7c3b92591a4505050565b600061197a82611d7e565b9050600081600001516001600160a01b031661199461190f565b6001600160a01b031614806119c957506119ac61190f565b6001600160a01b03166119be846109ae565b6001600160a01b0316145b806119dd575081516119dd9061082361190f565b9050806119fc5760405162461bcd60e51b81526004016109d590613315565b846001600160a01b031682600001516001600160a01b031614611a315760405162461bcd60e51b81526004016109d590613263565b6001600160a01b038416611a575760405162461bcd60e51b81526004016109d590612f24565b611a6485858560016113d8565b611a746000848460000151611913565b6001600160a01b0385166000908152600460205260408120805460019290611aa69084906001600160801b0316613802565b82546101009290920a6001600160801b038181021990931691831602179091556001600160a01b03861660009081526004602052604081208054600194509092611af29185911661378c565b82546001600160801b039182166101009390930a9283029190920219909116179055506040805180820182526001600160a01b03808716825267ffffffffffffffff428116602080850191825260008981526003909152948520935184549151909216600160a01b0267ffffffffffffffff60a01b19929093166001600160a01b03199091161716179055611b888460016137b7565b6000818152600360205260409020549091506001600160a01b0316611c2d57611bb081611908565b15611c2d5760408051808201825284516001600160a01b03908116825260208087015167ffffffffffffffff90811682850190815260008781526003909352949091209251835494516001600160a01b031990951692169190911767ffffffffffffffff60a01b1916600160a01b93909116929092029190911790555b83856001600160a01b0316876001600160a01b03167fddf252ad1be2c89b69c2b068fc378daa952ba7f163c4a11628f55a4df523b3ef60405160405180910390a4611c7b86868660016113d8565b505050505050565b601754604080516020601f86018190048102820181019092528481526000926001600160a01b031691611cfe9190879087908190840183828082843760009201919091525050600954604051611cf89350611ce49250889190602001612ccb565b60405160208183030381529060405261211a565b90612155565b6001600160a01b031614949350505050565b60006001600160a01b038216611d385760405162461bcd60e51b81526004016109d590612fa0565b506001600160a01b0316600090815260046020526040902054600160801b90046001600160801b031690565b610d97828260405180602001604052806000815250612179565b611d8661271e565b611d8f82611908565b611dab5760405162461bcd60e51b81526004016109d590612e4d565b60007f00000000000000000000000000000000000000000000000000000000000000008310611e0c57611dfe7f00000000000000000000000000000000000000000000000000000000000000008461382a565b611e099060016137b7565b90505b825b818110611e78576000818152600360209081526040918290208251808401909352546001600160a01b038116808452600160a01b90910467ffffffffffffffff169183019190915215611e65579250610908915050565b5080611e708161386d565b915050611e0e565b5060405162461bcd60e51b81526004016109d59061361b565b600880546001600160a01b038381166001600160a01b0319831681179093556040519116919082907f8be0079c531659141344cd1fd0a4f28419497f9722a3daafe3b4186f6b6457e090600090a35050565b6000611ef7846001600160a01b03166123ec565b15611ff357836001600160a01b031663150b7a02611f1361190f565b8786866040518563ffffffff1660e01b8152600401611f359493929190612c8e565b602060405180830381600087803b158015611f4f57600080fd5b505af1925050508015611f7f575060408051601f3d908101601f19168201909252611f7c918101906129ea565b60015b611fd9573d808015611fad576040519150601f19603f3d011682016040523d82523d6000602084013e611fb2565b606091505b508051611fd15760405162461bcd60e51b81526004016109d59061345d565b805181602001fd5b6001600160e01b031916630a85bd0160e11b149050611ff7565b5060015b949350505050565b60608161202457506040805180820190915260018152600360fc1b6020820152610908565b8160005b811561204e5780612038816138bf565b91506120479050600a836137cf565b9150612028565b60008167ffffffffffffffff81111561207757634e487b7160e01b600052604160045260246000fd5b6040519080825280601f01601f1916602001820160405280156120a1576020820181803683370190505b5090505b8415611ff7576120b660018361382a565b91506120c3600a866138da565b6120ce9060306137b7565b60f81b8183815181106120f157634e487b7160e01b600052603260045260246000fd5b60200101906001600160f81b031916908160001a905350612113600a866137cf565b94506120a5565b60006121268251611fff565b82604051602001612138929190612c1c565b604051602081830303815290604052805190602001209050919050565b600080600061216485856123f2565b9150915061217181612462565b509392505050565b6000546001600160a01b0384166121a25760405162461bcd60e51b81526004016109d59061351e565b6121ab81611908565b156121c85760405162461bcd60e51b81526004016109d5906134b0565b7f00000000000000000000000000000000000000000000000000000000000000008311156122085760405162461bcd60e51b81526004016109d5906136ee565b61221560008583866113d8565b6001600160a01b0384166000908152600460209081526040918290208251808401845290546001600160801b038082168352600160801b909104169181019190915281518083019092528051909190819061227190879061378c565b6001600160801b0316815260200185836020015161228f919061378c565b6001600160801b039081169091526001600160a01b03808816600081815260046020908152604080832087518154988401518816600160801b029088166fffffffffffffffffffffffffffffffff1990991698909817909616969096179094558451808601865291825267ffffffffffffffff4281168386019081528883526003909552948120915182549451909516600160a01b0267ffffffffffffffff60a01b19959093166001600160a01b031990941693909317939093161790915582905b858110156123da5760405182906001600160a01b038916906000907fddf252ad1be2c89b69c2b068fc378daa952ba7f163c4a11628f55a4df523b3ef908290a461239e6000888488611ee3565b6123ba5760405162461bcd60e51b81526004016109d59061345d565b816123c4816138bf565b92505080806123d2906138bf565b915050612351565b506000818155611c7b908785886113d8565b3b151590565b6000808251604114156124295760208301516040840151606085015160001a61241d8782858561258f565b9450945050505061245b565b825160401415612453576020830151604084015161244886838361266f565b93509350505061245b565b506000905060025b9250929050565b600081600481111561248457634e487b7160e01b600052602160045260246000fd5b141561248f57610d44565b60018160048111156124b157634e487b7160e01b600052602160045260246000fd5b14156124cf5760405162461bcd60e51b81526004016109d590612d29565b60028160048111156124f157634e487b7160e01b600052602160045260246000fd5b141561250f5760405162461bcd60e51b81526004016109d590612da2565b600381600481111561253157634e487b7160e01b600052602160045260246000fd5b141561254f5760405162461bcd60e51b81526004016109d590613043565b600481600481111561257157634e487b7160e01b600052602160045260246000fd5b1415610d445760405162461bcd60e51b81526004016109d590613221565b6000807f7fffffffffffffffffffffffffffffff5d576e7357a4501ddfe92f46681b20a08311156125c65750600090506003612666565b8460ff16601b141580156125de57508460ff16601c14155b156125ef5750600090506004612666565b6000600187878787604051600081526020016040526040516126149493929190612cf8565b6020604051602081039080840390855afa158015612636573d6000803e3d6000fd5b5050604051601f1901519150506001600160a01b03811661265f57600060019250925050612666565b9150600090505b94509492505050565b6000806001600160ff1b03831660ff84901c601b016126908782888561258f565b935093505050935093915050565b8280546126aa90613884565b90600052602060002090601f0160209004810192826126cc5760008555612712565b82601f106126e557805160ff1916838001178555612712565b82800160010185558215612712579182015b828111156127125782518255916020019190600101906126f7565b50610dc3929150612735565b604080518082019091526000808252602082015290565b5b80821115610dc35760008155600101612736565b600067ffffffffffffffff808411156127655761276561391a565b604051601f8501601f19908116603f0116810190828211818310171561278d5761278d61391a565b816040528093508581528686860111156127a657600080fd5b858560208301376000602087830101525050509392505050565b80356001600160a01b038116811461090857600080fd5b8035801515811461090857600080fd5b600082601f8301126127f7578081fd5b6128068383356020850161274a565b9392505050565b60006020828403121561281e578081fd5b612806826127c0565b60008060408385031215612839578081fd5b612842836127c0565b9150612850602084016127c0565b90509250929050565b60008060006060848603121561286d578081fd5b612876846127c0565b9250612884602085016127c0565b9150604084013590509250925092565b600080600080608085870312156128a9578081fd5b6128b2856127c0565b93506128c0602086016127c0565b925060408501359150606085013567ffffffffffffffff8111156128e2578182fd5b8501601f810187136128f2578182fd5b6129018782356020840161274a565b91505092959194509250565b6000806040838503121561291f578182fd5b612928836127c0565b9150612850602084016127d7565b60008060408385031215612948578182fd5b612951836127c0565b946020939093013593505050565b60008060208385031215612971578182fd5b823567ffffffffffffffff80821115612988578384fd5b818501915085601f83011261299b578384fd5b8135818111156129a9578485fd5b86602080830285010111156129bc578485fd5b60209290920196919550909350505050565b6000602082840312156129df578081fd5b813561280681613930565b6000602082840312156129fb578081fd5b815161280681613930565b600080600060408486031215612a1a578283fd5b833567ffffffffffffffff80821115612a31578485fd5b818601915086601f830112612a44578485fd5b813581811115612a52578586fd5b876020828501011115612a63578586fd5b6020928301989097509590910135949350505050565b600060208284031215612a8a578081fd5b813567ffffffffffffffff811115612aa0578182fd5b611ff7848285016127e7565b60008060408385031215612abe578182fd5b823567ffffffffffffffff811115612ad4578283fd5b612ae0858286016127e7565b925050612850602084016127d7565b600060208284031215612b00578081fd5b813561ffff81168114612806578182fd5b600060208284031215612b22578081fd5b5035919050565b60008151808452612b41816020860160208601613841565b601f01601f19169290920160200192915050565b60008151612b67818560208601613841565b9290920192915050565b8354600090819060028104600180831680612b8d57607f831692505b6020808410821415612bad57634e487b7160e01b87526022600452602487fd5b818015612bc15760018114612bd257612bfe565b60ff19861689528489019650612bfe565b612bdb8c613780565b885b86811015612bf65781548b820152908501908301612bdd565b505084890196505b50612c09868b612b55565b9889529097019998505050505050505050565b60007f19457468657265756d205369676e6564204d6573736167653a0a00000000000082528351612c5481601a850160208801613841565b835190830190612c6b81601a840160208801613841565b01601a01949350505050565b90565b6001600160a01b0391909116815260200190565b6001600160a01b0385811682528416602082015260408101839052608060608201819052600090612cc190830184612b29565b9695505050505050565b6001600160a01b03929092168252602082015260400190565b901515815260200190565b90815260200190565b93845260ff9290921660208401526040830152606082015260800190565b6000602082526128066020830184612b29565b60208082526018908201527f45434453413a20696e76616c6964207369676e61747572650000000000000000604082015260600190565b60208082526022908201527f455243373231413a206f776e657220696e646578206f7574206f6620626f756e604082015261647360f01b606082015260800190565b6020808252601f908201527f45434453413a20696e76616c6964207369676e6174757265206c656e67746800604082015260600190565b60208082526026908201527f4f776e61626c653a206e6577206f776e657220697320746865207a65726f206160408201526564647265737360d01b606082015260800190565b6020808252601490820152734f776e657220616c72656164792065786973747360601b604082015260600190565b6020808252602a908201527f455243373231413a206f776e657220717565727920666f72206e6f6e657869736040820152693a32b73a103a37b5b2b760b11b606082015260800190565b6020808252602a908201527f5175616e746974792065786365656473206e756d626572206f6620726573657260408201526976656420746f6b656e7360b01b606082015260800190565b60208082526023908201527f455243373231413a20676c6f62616c20696e646578206f7574206f6620626f756040820152626e647360e81b606082015260800190565b60208082526025908201527f455243373231413a207472616e7366657220746f20746865207a65726f206164604082015264647265737360d81b606082015260800190565b6020808252601a908201527f41646472657373206973206e6f742077686974656c6973746564000000000000604082015260600190565b60208082526031908201527f455243373231413a206e756d626572206d696e74656420717565727920666f7260408201527020746865207a65726f206164647265737360781b606082015260800190565b60208082526032908201527f41646472657373206973206e6f7420616c6c6f77656420746f206d696e74206d6040820152710dee4ca40e8d0c2dc409a82b0be8482a886960731b606082015260800190565b60208082526022908201527f45434453413a20696e76616c6964207369676e6174757265202773272076616c604082015261756560f01b606082015260800190565b60208082526025908201527f43616e206f6e6c79206d696e742061206d756c7469706c65206f66204d41585f60408201526408482a886960db1b606082015260800190565b60208082526021908201527f5075626c69632073616c652069732063757272656e746c7920696e61637469766040820152606560f81b606082015260800190565b60208082526039908201527f455243373231413a20617070726f76652063616c6c6572206973206e6f74206f60408201527f776e6572206e6f7220617070726f76656420666f7220616c6c00000000000000606082015260800190565b60208082526018908201527f446576656c6f70657220616c7265616479206578697374730000000000000000604082015260600190565b60208082526018908201527f446576656c6f70657220646f6573206e6f742065786973740000000000000000604082015260600190565b6020808252602b908201527f455243373231413a2062616c616e636520717565727920666f7220746865207a60408201526a65726f206164647265737360a81b606082015260800190565b60208082526022908201527f45434453413a20696e76616c6964207369676e6174757265202776272076616c604082015261756560f01b606082015260800190565b60208082526026908201527f455243373231413a207472616e736665722066726f6d20696e636f72726563746040820152651037bbb732b960d11b606082015260800190565b6020808252818101527f4f776e61626c653a2063616c6c6572206973206e6f7420746865206f776e6572604082015260600190565b6020808252601a908201527f455243373231413a20617070726f766520746f2063616c6c6572000000000000604082015260600190565b60208082526032908201527f455243373231413a207472616e736665722063616c6c6572206973206e6f74206040820152711bdddb995c881b9bdc88185c1c1c9bdd995960721b606082015260800190565b6020808252602f908201527f41646472657373206973206e6f7420616c6c6f77656420746f206d696e74206d60408201526e1bdc99481d1a185b8813505617d5d3608a1b606082015260800190565b60208082526022908201527f455243373231413a20617070726f76616c20746f2063757272656e74206f776e60408201526132b960f11b606082015260800190565b60208082526014908201527313dddb995c88191bd95cc81b9bdd08195e1a5cdd60621b604082015260600190565b6020808252601f908201527f41646472657373206973206e6f7420616c6c6f77656420746f206d696e742e00604082015260600190565b60208082526033908201527f455243373231413a207472616e7366657220746f206e6f6e204552433732315260408201527232b1b2b4bb32b91034b6b83632b6b2b73a32b960691b606082015260800190565b6020808252601d908201527f455243373231413a20746f6b656e20616c7265616479206d696e746564000000604082015260600190565b60208082526019908201527f496e636f727265637420616d6f756e74206f6620657468657200000000000000604082015260600190565b60208082526021908201527f455243373231413a206d696e7420746f20746865207a65726f206164647265736040820152607360f81b606082015260800190565b6020808252601d908201527f50726573616c652069732063757272656e746c7920696e616374697665000000604082015260600190565b6020808252601e908201527f416c6c204f4720746f6b656e732068617665206265656e206d696e7465640000604082015260600190565b6020808252602e908201527f455243373231413a20756e61626c6520746f2067657420746f6b656e206f662060408201526d0deeedccae440c4f240d2dcc8caf60931b606082015260800190565b6020808252602f908201527f455243373231413a20756e61626c6520746f2064657465726d696e652074686560408201526e1037bbb732b91037b3103a37b5b2b760891b606082015260800190565b6020808252601b908201527f416c6c20746f6b656e732068617665206265656e206d696e7465640000000000604082015260600190565b6020808252602d908201527f455243373231413a20617070726f76656420717565727920666f72206e6f6e6560408201526c3c34b9ba32b73a103a37b5b2b760991b606082015260800190565b60208082526022908201527f455243373231413a207175616e7469747920746f206d696e7420746f6f2068696040820152610ced60f31b606082015260800190565b60208082526021908201527f436f6e74726163747320617265206e6f7420616c6c6f77656420746f206d696e6040820152601d60fa1b606082015260800190565b61ffff91909116815260200190565b60009081526020902090565b60006001600160801b038083168185168083038211156137ae576137ae6138ee565b01949350505050565b600082198211156137ca576137ca6138ee565b500190565b6000826137de576137de613904565b500490565b60008160001904831182151516156137fd576137fd6138ee565b500290565b60006001600160801b0383811690831681811015613822576138226138ee565b039392505050565b60008282101561383c5761383c6138ee565b500390565b60005b8381101561385c578181015183820152602001613844565b838111156113d85750506000910152565b60008161387c5761387c6138ee565b506000190190565b60028104600182168061389857607f821691505b602082108114156138b957634e487b7160e01b600052602260045260246000fd5b50919050565b60006000198214156138d3576138d36138ee565b5060010190565b6000826138e9576138e9613904565b500690565b634e487b7160e01b600052601160045260246000fd5b634e487b7160e01b600052601260045260246000fd5b634e487b7160e01b600052604160045260246000fd5b6001600160e01b031981168114610d4457600080fdfea2646970667358221220cfc3896464ea6d23379912cc74ebb69faf5307375366232c6bf2f555331856ed64736f6c63430008010033",
          "opcodes": "PUSH1 0x0 DUP1 DUP1 SSTORE PUSH1 0x7 DUP2 SWAP1 SSTORE PUSH2 0xD05 PUSH1 0x9 SSTORE PUSH2 0x12C PUSH1 0xA SSTORE PUSH1 0x5 PUSH1 0xB SSTORE PUSH1 0x3 PUSH1 0xC SSTORE PUSH1 0x64 PUSH1 0xD SSTORE PUSH7 0x1550F7DCA70000 PUSH1 0xE SSTORE PUSH1 0xE0 PUSH1 0x40 DUP2 SWAP1 MSTORE PUSH1 0xC0 DUP3 SWAP1 MSTORE PUSH3 0x4A SWAP2 PUSH1 0x11 SWAP2 SWAP1 PUSH3 0x1CE JUMP JUMPDEST POP PUSH5 0x173539B7B7 PUSH1 0xD9 SHL PUSH1 0x12 SSTORE CALLVALUE DUP1 ISZERO PUSH3 0x64 JUMPI PUSH1 0x0 DUP1 REVERT JUMPDEST POP PUSH1 0x40 MLOAD DUP1 PUSH1 0x40 ADD PUSH1 0x40 MSTORE DUP1 PUSH1 0x4 DUP2 MSTORE PUSH1 0x20 ADD PUSH4 0x11939195 PUSH1 0xE2 SHL DUP2 MSTORE POP PUSH1 0x40 MLOAD DUP1 PUSH1 0x40 ADD PUSH1 0x40 MSTORE DUP1 PUSH1 0x4 DUP2 MSTORE PUSH1 0x20 ADD PUSH4 0x11939195 PUSH1 0xE2 SHL DUP2 MSTORE POP PUSH1 0xB SLOAD PUSH1 0x9 SLOAD PUSH1 0x0 DUP2 GT PUSH3 0xD1 JUMPI PUSH1 0x40 MLOAD PUSH3 0x461BCD PUSH1 0xE5 SHL DUP2 MSTORE PUSH1 0x4 ADD PUSH3 0xC8 SWAP1 PUSH3 0x2BB JUMP JUMPDEST PUSH1 0x40 MLOAD DUP1 SWAP2 SUB SWAP1 REVERT JUMPDEST PUSH1 0x0 DUP3 GT PUSH3 0xF4 JUMPI PUSH1 0x40 MLOAD PUSH3 0x461BCD PUSH1 0xE5 SHL DUP2 MSTORE PUSH1 0x4 ADD PUSH3 0xC8 SWAP1 PUSH3 0x274 JUMP JUMPDEST DUP4 MLOAD PUSH3 0x109 SWAP1 PUSH1 0x1 SWAP1 PUSH1 0x20 DUP8 ADD SWAP1 PUSH3 0x1CE JUMP JUMPDEST POP DUP3 MLOAD PUSH3 0x11F SWAP1 PUSH1 0x2 SWAP1 PUSH1 0x20 DUP7 ADD SWAP1 PUSH3 0x1CE JUMP JUMPDEST POP PUSH1 0xA0 SWAP2 SWAP1 SWAP2 MSTORE PUSH1 0x80 MSTORE POP PUSH3 0x140 SWAP1 POP PUSH3 0x13A PUSH3 0x178 JUMP JUMPDEST PUSH3 0x17C JUMP JUMPDEST CALLER PUSH1 0x0 SWAP1 DUP2 MSTORE PUSH1 0x14 PUSH1 0x20 SWAP1 DUP2 MSTORE PUSH1 0x40 DUP1 DUP4 KECCAK256 DUP1 SLOAD PUSH1 0x1 PUSH1 0xFF NOT SWAP2 DUP3 AND DUP2 OR SWAP1 SWAP3 SSTORE PUSH1 0x13 SWAP1 SWAP4 MSTORE SWAP3 KECCAK256 DUP1 SLOAD SWAP1 SWAP2 AND SWAP1 SWAP2 OR SWAP1 SSTORE PUSH3 0x346 JUMP JUMPDEST CALLER SWAP1 JUMP JUMPDEST PUSH1 0x8 DUP1 SLOAD PUSH1 0x1 PUSH1 0x1 PUSH1 0xA0 SHL SUB DUP4 DUP2 AND PUSH1 0x1 PUSH1 0x1 PUSH1 0xA0 SHL SUB NOT DUP4 AND DUP2 OR SWAP1 SWAP4 SSTORE PUSH1 0x40 MLOAD SWAP2 AND SWAP2 SWAP1 DUP3 SWAP1 PUSH32 0x8BE0079C531659141344CD1FD0A4F28419497F9722A3DAAFE3B4186F6B6457E0 SWAP1 PUSH1 0x0 SWAP1 LOG3 POP POP JUMP JUMPDEST DUP3 DUP1 SLOAD PUSH3 0x1DC SWAP1 PUSH3 0x309 JUMP JUMPDEST SWAP1 PUSH1 0x0 MSTORE PUSH1 0x20 PUSH1 0x0 KECCAK256 SWAP1 PUSH1 0x1F ADD PUSH1 0x20 SWAP1 DIV DUP2 ADD SWAP3 DUP3 PUSH3 0x200 JUMPI PUSH1 0x0 DUP6 SSTORE PUSH3 0x24B JUMP JUMPDEST DUP3 PUSH1 0x1F LT PUSH3 0x21B JUMPI DUP1 MLOAD PUSH1 0xFF NOT AND DUP4 DUP1 ADD OR DUP6 SSTORE PUSH3 0x24B JUMP JUMPDEST DUP3 DUP1 ADD PUSH1 0x1 ADD DUP6 SSTORE DUP3 ISZERO PUSH3 0x24B JUMPI SWAP2 DUP3 ADD JUMPDEST DUP3 DUP2 GT ISZERO PUSH3 0x24B JUMPI DUP3 MLOAD DUP3 SSTORE SWAP2 PUSH1 0x20 ADD SWAP2 SWAP1 PUSH1 0x1 ADD SWAP1 PUSH3 0x22E JUMP JUMPDEST POP PUSH3 0x259 SWAP3 SWAP2 POP PUSH3 0x25D JUMP JUMPDEST POP SWAP1 JUMP JUMPDEST JUMPDEST DUP1 DUP3 GT ISZERO PUSH3 0x259 JUMPI PUSH1 0x0 DUP2 SSTORE PUSH1 0x1 ADD PUSH3 0x25E JUMP JUMPDEST PUSH1 0x20 DUP1 DUP3 MSTORE PUSH1 0x27 SWAP1 DUP3 ADD MSTORE PUSH32 0x455243373231413A206D61782062617463682073697A65206D75737420626520 PUSH1 0x40 DUP3 ADD MSTORE PUSH7 0x6E6F6E7A65726F PUSH1 0xC8 SHL PUSH1 0x60 DUP3 ADD MSTORE PUSH1 0x80 ADD SWAP1 JUMP JUMPDEST PUSH1 0x20 DUP1 DUP3 MSTORE PUSH1 0x2E SWAP1 DUP3 ADD MSTORE PUSH32 0x455243373231413A20636F6C6C656374696F6E206D7573742068617665206120 PUSH1 0x40 DUP3 ADD MSTORE PUSH14 0x6E6F6E7A65726F20737570706C79 PUSH1 0x90 SHL PUSH1 0x60 DUP3 ADD MSTORE PUSH1 0x80 ADD SWAP1 JUMP JUMPDEST PUSH1 0x2 DUP2 DIV PUSH1 0x1 DUP3 AND DUP1 PUSH3 0x31E JUMPI PUSH1 0x7F DUP3 AND SWAP2 POP JUMPDEST PUSH1 0x20 DUP3 LT DUP2 EQ ISZERO PUSH3 0x340 JUMPI PUSH4 0x4E487B71 PUSH1 0xE0 SHL PUSH1 0x0 MSTORE PUSH1 0x22 PUSH1 0x4 MSTORE PUSH1 0x24 PUSH1 0x0 REVERT JUMPDEST POP SWAP2 SWAP1 POP JUMP JUMPDEST PUSH1 0x80 MLOAD PUSH1 0xA0 MLOAD PUSH2 0x397C PUSH3 0x377 PUSH1 0x0 CODECOPY PUSH1 0x0 DUP2 DUP2 PUSH2 0x1DAF ADD MSTORE DUP2 DUP2 PUSH2 0x1DD9 ADD MSTORE PUSH2 0x21CA ADD MSTORE PUSH1 0x0 POP POP PUSH2 0x397C PUSH1 0x0 RETURN INVALID PUSH1 0x80 PUSH1 0x40 MSTORE PUSH1 0x4 CALLDATASIZE LT PUSH2 0x2FF JUMPI PUSH1 0x0 CALLDATALOAD PUSH1 0xE0 SHR DUP1 PUSH4 0x715018A6 GT PUSH2 0x190 JUMPI DUP1 PUSH4 0xC4026D7B GT PUSH2 0xDC JUMPI DUP1 PUSH4 0xD701DBEE GT PUSH2 0x95 JUMPI DUP1 PUSH4 0xF2FDE38B GT PUSH2 0x6F JUMPI DUP1 PUSH4 0xF2FDE38B EQ PUSH2 0x828 JUMPI DUP1 PUSH4 0xF5E1713E EQ PUSH2 0x848 JUMPI DUP1 PUSH4 0xFAAAF653 EQ PUSH2 0x86A JUMPI DUP1 PUSH4 0xFFE630B5 EQ PUSH2 0x88A JUMPI PUSH2 0x2FF JUMP JUMPDEST DUP1 PUSH4 0xD701DBEE EQ PUSH2 0x7D3 JUMPI DUP1 PUSH4 0xD7224BA0 EQ PUSH2 0x7F3 JUMPI DUP1 PUSH4 0xE985E9C5 EQ PUSH2 0x808 JUMPI PUSH2 0x2FF JUMP JUMPDEST DUP1 PUSH4 0xC4026D7B EQ PUSH2 0x729 JUMPI DUP1 PUSH4 0xC87B56DD EQ PUSH2 0x749 JUMPI DUP1 PUSH4 0xC91D5F97 EQ PUSH2 0x769 JUMPI DUP1 PUSH4 0xCE2A86F0 EQ PUSH2 0x77E JUMPI DUP1 PUSH4 0xD31A2216 EQ PUSH2 0x793 JUMPI DUP1 PUSH4 0xD51EEAFD EQ PUSH2 0x7B3 JUMPI PUSH2 0x2FF JUMP JUMPDEST DUP1 PUSH4 0x8DA5CB5B GT PUSH2 0x149 JUMPI DUP1 PUSH4 0xA22CB465 GT PUSH2 0x123 JUMPI DUP1 PUSH4 0xA22CB465 EQ PUSH2 0x6B6 JUMPI DUP1 PUSH4 0xB88D4FDE EQ PUSH2 0x6D6 JUMPI DUP1 PUSH4 0xB91D3ACE EQ PUSH2 0x6F6 JUMPI DUP1 PUSH4 0xC1D9DF8D EQ PUSH2 0x716 JUMPI PUSH2 0x2FF JUMP JUMPDEST DUP1 PUSH4 0x8DA5CB5B EQ PUSH2 0x677 JUMPI DUP1 PUSH4 0x950BFF9F EQ PUSH2 0x68C JUMPI DUP1 PUSH4 0x95D89B41 EQ PUSH2 0x6A1 JUMPI PUSH2 0x2FF JUMP JUMPDEST DUP1 PUSH4 0x715018A6 EQ PUSH2 0x5F0 JUMPI DUP1 PUSH4 0x77CFE82B EQ PUSH2 0x605 JUMPI DUP1 PUSH4 0x7F205A74 EQ PUSH2 0x618 JUMPI DUP1 PUSH4 0x7F78636A EQ PUSH2 0x62D JUMPI DUP1 PUSH4 0x814A4C1E EQ PUSH2 0x642 JUMPI DUP1 PUSH4 0x8AD433AC EQ PUSH2 0x657 JUMPI PUSH2 0x2FF JUMP JUMPDEST DUP1 PUSH4 0x36566F06 GT PUSH2 0x24F JUMPI DUP1 PUSH4 0x51830227 GT PUSH2 0x208 JUMPI DUP1 PUSH4 0x6352211E GT PUSH2 0x1E2 JUMPI DUP1 PUSH4 0x6352211E EQ PUSH2 0x57B JUMPI DUP1 PUSH4 0x6373A6B1 EQ PUSH2 0x59B JUMPI DUP1 PUSH4 0x7065CB48 EQ PUSH2 0x5B0 JUMPI DUP1 PUSH4 0x70A08231 EQ PUSH2 0x5D0 JUMPI PUSH2 0x2FF JUMP JUMPDEST DUP1 PUSH4 0x51830227 EQ PUSH2 0x53E JUMPI DUP1 PUSH4 0x5C975ABB EQ PUSH2 0x553 JUMPI DUP1 PUSH4 0x607019B9 EQ PUSH2 0x568 JUMPI PUSH2 0x2FF JUMP JUMPDEST DUP1 PUSH4 0x36566F06 EQ PUSH2 0x4AC JUMPI DUP1 PUSH4 0x3CCFD60B EQ PUSH2 0x4C1 JUMPI DUP1 PUSH4 0x42842E0E EQ PUSH2 0x4C9 JUMPI DUP1 PUSH4 0x46F13619 EQ PUSH2 0x4E9 JUMPI DUP1 PUSH4 0x49F2553A EQ PUSH2 0x4FE JUMPI DUP1 PUSH4 0x4F6CCCE7 EQ PUSH2 0x51E JUMPI PUSH2 0x2FF JUMP JUMPDEST DUP1 PUSH4 0x173825D9 GT PUSH2 0x2BC JUMPI DUP1 PUSH4 0x23B872DD GT PUSH2 0x296 JUMPI DUP1 PUSH4 0x23B872DD EQ PUSH2 0x442 JUMPI DUP1 PUSH4 0x283D26CA EQ PUSH2 0x462 JUMPI DUP1 PUSH4 0x2F745C59 EQ PUSH2 0x477 JUMPI DUP1 PUSH4 0x32CB6B0C EQ PUSH2 0x497 JUMPI PUSH2 0x2FF JUMP JUMPDEST DUP1 PUSH4 0x173825D9 EQ PUSH2 0x3E0 JUMPI DUP1 PUSH4 0x18160DDD EQ PUSH2 0x400 JUMPI DUP1 PUSH4 0x1919FED7 EQ PUSH2 0x422 JUMPI PUSH2 0x2FF JUMP JUMPDEST DUP1 PUSH4 0x1FFC9A7 EQ PUSH2 0x304 JUMPI DUP1 PUSH4 0x62FA1F8 EQ PUSH2 0x33A JUMPI DUP1 PUSH4 0x6FDDE03 EQ PUSH2 0x35C JUMPI DUP1 PUSH4 0x81812FC EQ PUSH2 0x37E JUMPI DUP1 PUSH4 0x95EA7B3 EQ PUSH2 0x39E JUMPI DUP1 PUSH4 0x1438DDEE EQ PUSH2 0x3C0 JUMPI JUMPDEST PUSH1 0x0 DUP1 REVERT JUMPDEST CALLVALUE DUP1 ISZERO PUSH2 0x310 JUMPI PUSH1 0x0 DUP1 REVERT JUMPDEST POP PUSH2 0x324 PUSH2 0x31F CALLDATASIZE PUSH1 0x4 PUSH2 0x29CE JUMP JUMPDEST PUSH2 0x8AA JUMP JUMPDEST PUSH1 0x40 MLOAD PUSH2 0x331 SWAP2 SWAP1 PUSH2 0x2CE4 JUMP JUMPDEST PUSH1 0x40 MLOAD DUP1 SWAP2 SUB SWAP1 RETURN JUMPDEST CALLVALUE DUP1 ISZERO PUSH2 0x346 JUMPI PUSH1 0x0 DUP1 REVERT JUMPDEST POP PUSH2 0x34F PUSH2 0x90D JUMP JUMPDEST PUSH1 0x40 MLOAD PUSH2 0x331 SWAP2 SWAP1 PUSH2 0x2C7A JUMP JUMPDEST CALLVALUE DUP1 ISZERO PUSH2 0x368 JUMPI PUSH1 0x0 DUP1 REVERT JUMPDEST POP PUSH2 0x371 PUSH2 0x91C JUMP JUMPDEST PUSH1 0x40 MLOAD PUSH2 0x331 SWAP2 SWAP1 PUSH2 0x2D16 JUMP JUMPDEST CALLVALUE DUP1 ISZERO PUSH2 0x38A JUMPI PUSH1 0x0 DUP1 REVERT JUMPDEST POP PUSH2 0x34F PUSH2 0x399 CALLDATASIZE PUSH1 0x4 PUSH2 0x2B11 JUMP JUMPDEST PUSH2 0x9AE JUMP JUMPDEST CALLVALUE DUP1 ISZERO PUSH2 0x3AA JUMPI PUSH1 0x0 DUP1 REVERT JUMPDEST POP PUSH2 0x3BE PUSH2 0x3B9 CALLDATASIZE PUSH1 0x4 PUSH2 0x2936 JUMP JUMPDEST PUSH2 0x9FA JUMP JUMPDEST STOP JUMPDEST CALLVALUE DUP1 ISZERO PUSH2 0x3CC JUMPI PUSH1 0x0 DUP1 REVERT JUMPDEST POP PUSH2 0x3BE PUSH2 0x3DB CALLDATASIZE PUSH1 0x4 PUSH2 0x2AEF JUMP JUMPDEST PUSH2 0xA93 JUMP JUMPDEST CALLVALUE DUP1 ISZERO PUSH2 0x3EC JUMPI PUSH1 0x0 DUP1 REVERT JUMPDEST POP PUSH2 0x3BE PUSH2 0x3FB CALLDATASIZE PUSH1 0x4 PUSH2 0x280D JUMP JUMPDEST PUSH2 0xAC7 JUMP JUMPDEST CALLVALUE DUP1 ISZERO PUSH2 0x40C JUMPI PUSH1 0x0 DUP1 REVERT JUMPDEST POP PUSH2 0x415 PUSH2 0xB3C JUMP JUMPDEST PUSH1 0x40 MLOAD PUSH2 0x331 SWAP2 SWAP1 PUSH2 0x2CEF JUMP JUMPDEST CALLVALUE DUP1 ISZERO PUSH2 0x42E JUMPI PUSH1 0x0 DUP1 REVERT JUMPDEST POP PUSH2 0x3BE PUSH2 0x43D CALLDATASIZE PUSH1 0x4 PUSH2 0x2B11 JUMP JUMPDEST PUSH2 0xB42 JUMP JUMPDEST CALLVALUE DUP1 ISZERO PUSH2 0x44E JUMPI PUSH1 0x0 DUP1 REVERT JUMPDEST POP PUSH2 0x3BE PUSH2 0x45D CALLDATASIZE PUSH1 0x4 PUSH2 0x2859 JUMP JUMPDEST PUSH2 0xB63 JUMP JUMPDEST CALLVALUE DUP1 ISZERO PUSH2 0x46E JUMPI PUSH1 0x0 DUP1 REVERT JUMPDEST POP PUSH2 0x34F PUSH2 0xB6E JUMP JUMPDEST CALLVALUE DUP1 ISZERO PUSH2 0x483 JUMPI PUSH1 0x0 DUP1 REVERT JUMPDEST POP PUSH2 0x415 PUSH2 0x492 CALLDATASIZE PUSH1 0x4 PUSH2 0x2936 JUMP JUMPDEST PUSH2 0xB7D JUMP JUMPDEST CALLVALUE DUP1 ISZERO PUSH2 0x4A3 JUMPI PUSH1 0x0 DUP1 REVERT JUMPDEST POP PUSH2 0x415 PUSH2 0xC79 JUMP JUMPDEST CALLVALUE DUP1 ISZERO PUSH2 0x4B8 JUMPI PUSH1 0x0 DUP1 REVERT JUMPDEST POP PUSH2 0x3BE PUSH2 0xC7F JUMP JUMPDEST PUSH2 0x3BE PUSH2 0xCBA JUMP JUMPDEST CALLVALUE DUP1 ISZERO PUSH2 0x4D5 JUMPI PUSH1 0x0 DUP1 REVERT JUMPDEST POP PUSH2 0x3BE PUSH2 0x4E4 CALLDATASIZE PUSH1 0x4 PUSH2 0x2859 JUMP JUMPDEST PUSH2 0xD47 JUMP JUMPDEST CALLVALUE DUP1 ISZERO PUSH2 0x4F5 JUMPI PUSH1 0x0 DUP1 REVERT JUMPDEST POP PUSH2 0x415 PUSH2 0xD62 JUMP JUMPDEST CALLVALUE DUP1 ISZERO PUSH2 0x50A JUMPI PUSH1 0x0 DUP1 REVERT JUMPDEST POP PUSH2 0x3BE PUSH2 0x519 CALLDATASIZE PUSH1 0x4 PUSH2 0x2A79 JUMP JUMPDEST PUSH2 0xD68 JUMP JUMPDEST CALLVALUE DUP1 ISZERO PUSH2 0x52A JUMPI PUSH1 0x0 DUP1 REVERT JUMPDEST POP PUSH2 0x415 PUSH2 0x539 CALLDATASIZE PUSH1 0x4 PUSH2 0x2B11 JUMP JUMPDEST PUSH2 0xD9B JUMP JUMPDEST CALLVALUE DUP1 ISZERO PUSH2 0x54A JUMPI PUSH1 0x0 DUP1 REVERT JUMPDEST POP PUSH2 0x324 PUSH2 0xDC7 JUMP JUMPDEST CALLVALUE DUP1 ISZERO PUSH2 0x55F JUMPI PUSH1 0x0 DUP1 REVERT JUMPDEST POP PUSH2 0x324 PUSH2 0xDD7 JUMP JUMPDEST PUSH2 0x3BE PUSH2 0x576 CALLDATASIZE PUSH1 0x4 PUSH2 0x2A06 JUMP JUMPDEST PUSH2 0xDE6 JUMP JUMPDEST CALLVALUE DUP1 ISZERO PUSH2 0x587 JUMPI PUSH1 0x0 DUP1 REVERT JUMPDEST POP PUSH2 0x34F PUSH2 0x596 CALLDATASIZE PUSH1 0x4 PUSH2 0x2B11 JUMP JUMPDEST PUSH2 0xF2B JUMP JUMPDEST CALLVALUE DUP1 ISZERO PUSH2 0x5A7 JUMPI PUSH1 0x0 DUP1 REVERT JUMPDEST POP PUSH2 0x371 PUSH2 0xF3D JUMP JUMPDEST CALLVALUE DUP1 ISZERO PUSH2 0x5BC JUMPI PUSH1 0x0 DUP1 REVERT JUMPDEST POP PUSH2 0x3BE PUSH2 0x5CB CALLDATASIZE PUSH1 0x4 PUSH2 0x280D JUMP JUMPDEST PUSH2 0xFCB JUMP JUMPDEST CALLVALUE DUP1 ISZERO PUSH2 0x5DC JUMPI PUSH1 0x0 DUP1 REVERT JUMPDEST POP PUSH2 0x415 PUSH2 0x5EB CALLDATASIZE PUSH1 0x4 PUSH2 0x280D JUMP JUMPDEST PUSH2 0x1044 JUMP JUMPDEST CALLVALUE DUP1 ISZERO PUSH2 0x5FC JUMPI PUSH1 0x0 DUP1 REVERT JUMPDEST POP PUSH2 0x3BE PUSH2 0x1091 JUMP JUMPDEST PUSH2 0x3BE PUSH2 0x613 CALLDATASIZE PUSH1 0x4 PUSH2 0x2A06 JUMP JUMPDEST PUSH2 0x10DC JUMP JUMPDEST CALLVALUE DUP1 ISZERO PUSH2 0x624 JUMPI PUSH1 0x0 DUP1 REVERT JUMPDEST POP PUSH2 0x415 PUSH2 0x11A0 JUMP JUMPDEST CALLVALUE DUP1 ISZERO PUSH2 0x639 JUMPI PUSH1 0x0 DUP1 REVERT JUMPDEST POP PUSH2 0x371 PUSH2 0x11A6 JUMP JUMPDEST CALLVALUE DUP1 ISZERO PUSH2 0x64E JUMPI PUSH1 0x0 DUP1 REVERT JUMPDEST POP PUSH2 0x415 PUSH2 0x11B3 JUMP JUMPDEST CALLVALUE DUP1 ISZERO PUSH2 0x663 JUMPI PUSH1 0x0 DUP1 REVERT JUMPDEST POP PUSH2 0x3BE PUSH2 0x672 CALLDATASIZE PUSH1 0x4 PUSH2 0x2B11 JUMP JUMPDEST PUSH2 0x11B9 JUMP JUMPDEST CALLVALUE DUP1 ISZERO PUSH2 0x683 JUMPI PUSH1 0x0 DUP1 REVERT JUMPDEST POP PUSH2 0x34F PUSH2 0x12B3 JUMP JUMPDEST CALLVALUE DUP1 ISZERO PUSH2 0x698 JUMPI PUSH1 0x0 DUP1 REVERT JUMPDEST POP PUSH2 0x415 PUSH2 0x12C2 JUMP JUMPDEST CALLVALUE DUP1 ISZERO PUSH2 0x6AD JUMPI PUSH1 0x0 DUP1 REVERT JUMPDEST POP PUSH2 0x371 PUSH2 0x12C8 JUMP JUMPDEST CALLVALUE DUP1 ISZERO PUSH2 0x6C2 JUMPI PUSH1 0x0 DUP1 REVERT JUMPDEST POP PUSH2 0x3BE PUSH2 0x6D1 CALLDATASIZE PUSH1 0x4 PUSH2 0x290D JUMP JUMPDEST PUSH2 0x12D7 JUMP JUMPDEST CALLVALUE DUP1 ISZERO PUSH2 0x6E2 JUMPI PUSH1 0x0 DUP1 REVERT JUMPDEST POP PUSH2 0x3BE PUSH2 0x6F1 CALLDATASIZE PUSH1 0x4 PUSH2 0x2894 JUMP JUMPDEST PUSH2 0x13A5 JUMP JUMPDEST CALLVALUE DUP1 ISZERO PUSH2 0x702 JUMPI PUSH1 0x0 DUP1 REVERT JUMPDEST POP PUSH2 0x3BE PUSH2 0x711 CALLDATASIZE PUSH1 0x4 PUSH2 0x280D JUMP JUMPDEST PUSH2 0x13DE JUMP JUMPDEST PUSH2 0x3BE PUSH2 0x724 CALLDATASIZE PUSH1 0x4 PUSH2 0x2B11 JUMP JUMPDEST PUSH2 0x1457 JUMP JUMPDEST CALLVALUE DUP1 ISZERO PUSH2 0x735 JUMPI PUSH1 0x0 DUP1 REVERT JUMPDEST POP PUSH2 0x3BE PUSH2 0x744 CALLDATASIZE PUSH1 0x4 PUSH2 0x280D JUMP JUMPDEST PUSH2 0x1551 JUMP JUMPDEST CALLVALUE DUP1 ISZERO PUSH2 0x755 JUMPI PUSH1 0x0 DUP1 REVERT JUMPDEST POP PUSH2 0x371 PUSH2 0x764 CALLDATASIZE PUSH1 0x4 PUSH2 0x2B11 JUMP JUMPDEST PUSH2 0x15C6 JUMP JUMPDEST CALLVALUE DUP1 ISZERO PUSH2 0x775 JUMPI PUSH1 0x0 DUP1 REVERT JUMPDEST POP PUSH2 0x415 PUSH2 0x16A1 JUMP JUMPDEST CALLVALUE DUP1 ISZERO PUSH2 0x78A JUMPI PUSH1 0x0 DUP1 REVERT JUMPDEST POP PUSH2 0x415 PUSH2 0x16A7 JUMP JUMPDEST CALLVALUE DUP1 ISZERO PUSH2 0x79F JUMPI PUSH1 0x0 DUP1 REVERT JUMPDEST POP PUSH2 0x3BE PUSH2 0x7AE CALLDATASIZE PUSH1 0x4 PUSH2 0x295F JUMP JUMPDEST PUSH2 0x16AD JUMP JUMPDEST CALLVALUE DUP1 ISZERO PUSH2 0x7BF JUMPI PUSH1 0x0 DUP1 REVERT JUMPDEST POP PUSH2 0x3BE PUSH2 0x7CE CALLDATASIZE PUSH1 0x4 PUSH2 0x280D JUMP JUMPDEST PUSH2 0x1749 JUMP JUMPDEST CALLVALUE DUP1 ISZERO PUSH2 0x7DF JUMPI PUSH1 0x0 DUP1 REVERT JUMPDEST POP PUSH2 0x3BE PUSH2 0x7EE CALLDATASIZE PUSH1 0x4 PUSH2 0x280D JUMP JUMPDEST PUSH2 0x1787 JUMP JUMPDEST CALLVALUE DUP1 ISZERO PUSH2 0x7FF JUMPI PUSH1 0x0 DUP1 REVERT JUMPDEST POP PUSH2 0x415 PUSH2 0x17C5 JUMP JUMPDEST CALLVALUE DUP1 ISZERO PUSH2 0x814 JUMPI PUSH1 0x0 DUP1 REVERT JUMPDEST POP PUSH2 0x324 PUSH2 0x823 CALLDATASIZE PUSH1 0x4 PUSH2 0x2827 JUMP JUMPDEST PUSH2 0x17CB JUMP JUMPDEST CALLVALUE DUP1 ISZERO PUSH2 0x834 JUMPI PUSH1 0x0 DUP1 REVERT JUMPDEST POP PUSH2 0x3BE PUSH2 0x843 CALLDATASIZE PUSH1 0x4 PUSH2 0x280D JUMP JUMPDEST PUSH2 0x17F9 JUMP JUMPDEST CALLVALUE DUP1 ISZERO PUSH2 0x854 JUMPI PUSH1 0x0 DUP1 REVERT JUMPDEST POP PUSH2 0x85D PUSH2 0x1867 JUMP JUMPDEST PUSH1 0x40 MLOAD PUSH2 0x331 SWAP2 SWAP1 PUSH2 0x3771 JUMP JUMPDEST CALLVALUE DUP1 ISZERO PUSH2 0x876 JUMPI PUSH1 0x0 DUP1 REVERT JUMPDEST POP PUSH2 0x3BE PUSH2 0x885 CALLDATASIZE PUSH1 0x4 PUSH2 0x2AAC JUMP JUMPDEST PUSH2 0x1871 JUMP JUMPDEST CALLVALUE DUP1 ISZERO PUSH2 0x896 JUMPI PUSH1 0x0 DUP1 REVERT JUMPDEST POP PUSH2 0x3BE PUSH2 0x8A5 CALLDATASIZE PUSH1 0x4 PUSH2 0x2A79 JUMP JUMPDEST PUSH2 0x18C0 JUMP JUMPDEST PUSH1 0x0 PUSH1 0x1 PUSH1 0x1 PUSH1 0xE0 SHL SUB NOT DUP3 AND PUSH4 0x80AC58CD PUSH1 0xE0 SHL EQ DUP1 PUSH2 0x8DB JUMPI POP PUSH1 0x1 PUSH1 0x1 PUSH1 0xE0 SHL SUB NOT DUP3 AND PUSH4 0x5B5E139F PUSH1 0xE0 SHL EQ JUMPDEST DUP1 PUSH2 0x8F6 JUMPI POP PUSH1 0x1 PUSH1 0x1 PUSH1 0xE0 SHL SUB NOT DUP3 AND PUSH4 0x780E9D63 PUSH1 0xE0 SHL EQ JUMPDEST DUP1 PUSH2 0x905 JUMPI POP PUSH2 0x905 DUP3 PUSH2 0x18EF JUMP JUMPDEST SWAP1 POP JUMPDEST SWAP2 SWAP1 POP JUMP JUMPDEST PUSH1 0x16 SLOAD PUSH1 0x1 PUSH1 0x1 PUSH1 0xA0 SHL SUB AND DUP2 JUMP JUMPDEST PUSH1 0x60 PUSH1 0x1 DUP1 SLOAD PUSH2 0x92B SWAP1 PUSH2 0x3884 JUMP JUMPDEST DUP1 PUSH1 0x1F ADD PUSH1 0x20 DUP1 SWAP2 DIV MUL PUSH1 0x20 ADD PUSH1 0x40 MLOAD SWAP1 DUP2 ADD PUSH1 0x40 MSTORE DUP1 SWAP3 SWAP2 SWAP1 DUP2 DUP2 MSTORE PUSH1 0x20 ADD DUP3 DUP1 SLOAD PUSH2 0x957 SWAP1 PUSH2 0x3884 JUMP JUMPDEST DUP1 ISZERO PUSH2 0x9A4 JUMPI DUP1 PUSH1 0x1F LT PUSH2 0x979 JUMPI PUSH2 0x100 DUP1 DUP4 SLOAD DIV MUL DUP4 MSTORE SWAP2 PUSH1 0x20 ADD SWAP2 PUSH2 0x9A4 JUMP JUMPDEST DUP3 ADD SWAP2 SWAP1 PUSH1 0x0 MSTORE PUSH1 0x20 PUSH1 0x0 KECCAK256 SWAP1 JUMPDEST DUP2 SLOAD DUP2 MSTORE SWAP1 PUSH1 0x1 ADD SWAP1 PUSH1 0x20 ADD DUP1 DUP4 GT PUSH2 0x987 JUMPI DUP3 SWAP1 SUB PUSH1 0x1F AND DUP3 ADD SWAP2 JUMPDEST POP POP POP POP POP SWAP1 POP SWAP1 JUMP JUMPDEST PUSH1 0x0 PUSH2 0x9B9 DUP3 PUSH2 0x1908 JUMP JUMPDEST PUSH2 0x9DE JUMPI PUSH1 0x40 MLOAD PUSH3 0x461BCD PUSH1 0xE5 SHL DUP2 MSTORE PUSH1 0x4 ADD PUSH2 0x9D5 SWAP1 PUSH2 0x36A1 JUMP JUMPDEST PUSH1 0x40 MLOAD DUP1 SWAP2 SUB SWAP1 REVERT JUMPDEST POP PUSH1 0x0 SWAP1 DUP2 MSTORE PUSH1 0x5 PUSH1 0x20 MSTORE PUSH1 0x40 SWAP1 KECCAK256 SLOAD PUSH1 0x1 PUSH1 0x1 PUSH1 0xA0 SHL SUB AND SWAP1 JUMP JUMPDEST PUSH1 0x0 PUSH2 0xA05 DUP3 PUSH2 0xF2B JUMP JUMPDEST SWAP1 POP DUP1 PUSH1 0x1 PUSH1 0x1 PUSH1 0xA0 SHL SUB AND DUP4 PUSH1 0x1 PUSH1 0x1 PUSH1 0xA0 SHL SUB AND EQ ISZERO PUSH2 0xA39 JUMPI PUSH1 0x40 MLOAD PUSH3 0x461BCD PUSH1 0xE5 SHL DUP2 MSTORE PUSH1 0x4 ADD PUSH2 0x9D5 SWAP1 PUSH2 0x33B6 JUMP JUMPDEST DUP1 PUSH1 0x1 PUSH1 0x1 PUSH1 0xA0 SHL SUB AND PUSH2 0xA4B PUSH2 0x190F JUMP JUMPDEST PUSH1 0x1 PUSH1 0x1 PUSH1 0xA0 SHL SUB AND EQ DUP1 PUSH2 0xA67 JUMPI POP PUSH2 0xA67 DUP2 PUSH2 0x823 PUSH2 0x190F JUMP JUMPDEST PUSH2 0xA83 JUMPI PUSH1 0x40 MLOAD PUSH3 0x461BCD PUSH1 0xE5 SHL DUP2 MSTORE PUSH1 0x4 ADD PUSH2 0x9D5 SWAP1 PUSH2 0x310B JUMP JUMPDEST PUSH2 0xA8E DUP4 DUP4 DUP4 PUSH2 0x1913 JUMP JUMPDEST POP POP POP JUMP JUMPDEST CALLER PUSH1 0x0 SWAP1 DUP2 MSTORE PUSH1 0x14 PUSH1 0x20 MSTORE PUSH1 0x40 SWAP1 KECCAK256 SLOAD PUSH1 0xFF AND PUSH2 0xAAF JUMPI PUSH1 0x0 DUP1 REVERT JUMPDEST PUSH1 0xF DUP1 SLOAD PUSH2 0xFFFF NOT AND PUSH2 0xFFFF SWAP3 SWAP1 SWAP3 AND SWAP2 SWAP1 SWAP2 OR SWAP1 SSTORE JUMP JUMPDEST CALLER PUSH1 0x0 SWAP1 DUP2 MSTORE PUSH1 0x13 PUSH1 0x20 MSTORE PUSH1 0x40 SWAP1 KECCAK256 SLOAD PUSH1 0xFF AND PUSH2 0xAE3 JUMPI PUSH1 0x0 DUP1 REVERT JUMPDEST PUSH1 0x1 PUSH1 0x1 PUSH1 0xA0 SHL SUB DUP2 AND PUSH1 0x0 SWAP1 DUP2 MSTORE PUSH1 0x13 PUSH1 0x20 MSTORE PUSH1 0x40 SWAP1 KECCAK256 SLOAD PUSH1 0xFF AND PUSH2 0xB1B JUMPI PUSH1 0x40 MLOAD PUSH3 0x461BCD PUSH1 0xE5 SHL DUP2 MSTORE PUSH1 0x4 ADD PUSH2 0x9D5 SWAP1 PUSH2 0x33F8 JUMP JUMPDEST PUSH1 0x1 PUSH1 0x1 PUSH1 0xA0 SHL SUB AND PUSH1 0x0 SWAP1 DUP2 MSTORE PUSH1 0x13 PUSH1 0x20 MSTORE PUSH1 0x40 SWAP1 KECCAK256 DUP1 SLOAD PUSH1 0xFF NOT AND SWAP1 SSTORE JUMP JUMPDEST PUSH1 0x0 SLOAD SWAP1 JUMP JUMPDEST CALLER PUSH1 0x0 SWAP1 DUP2 MSTORE PUSH1 0x13 PUSH1 0x20 MSTORE PUSH1 0x40 SWAP1 KECCAK256 SLOAD PUSH1 0xFF AND PUSH2 0xB5E JUMPI PUSH1 0x0 DUP1 REVERT JUMPDEST PUSH1 0xE SSTORE JUMP JUMPDEST PUSH2 0xA8E DUP4 DUP4 DUP4 PUSH2 0x196F JUMP JUMPDEST PUSH1 0x17 SLOAD PUSH1 0x1 PUSH1 0x1 PUSH1 0xA0 SHL SUB AND DUP2 JUMP JUMPDEST PUSH1 0x0 PUSH2 0xB88 DUP4 PUSH2 0x1044 JUMP JUMPDEST DUP3 LT PUSH2 0xBA6 JUMPI PUSH1 0x40 MLOAD PUSH3 0x461BCD PUSH1 0xE5 SHL DUP2 MSTORE PUSH1 0x4 ADD PUSH2 0x9D5 SWAP1 PUSH2 0x2D60 JUMP JUMPDEST PUSH1 0x0 PUSH2 0xBB0 PUSH2 0xB3C JUMP JUMPDEST SWAP1 POP PUSH1 0x0 DUP1 PUSH1 0x0 JUMPDEST DUP4 DUP2 LT ISZERO PUSH2 0xC5A JUMPI PUSH1 0x0 DUP2 DUP2 MSTORE PUSH1 0x3 PUSH1 0x20 SWAP1 DUP2 MSTORE PUSH1 0x40 SWAP2 DUP3 SWAP1 KECCAK256 DUP3 MLOAD DUP1 DUP5 ADD SWAP1 SWAP4 MSTORE SLOAD PUSH1 0x1 PUSH1 0x1 PUSH1 0xA0 SHL SUB DUP2 AND DUP1 DUP5 MSTORE PUSH1 0x1 PUSH1 0xA0 SHL SWAP1 SWAP2 DIV PUSH8 0xFFFFFFFFFFFFFFFF AND SWAP2 DUP4 ADD SWAP2 SWAP1 SWAP2 MSTORE ISZERO PUSH2 0xC0B JUMPI DUP1 MLOAD SWAP3 POP JUMPDEST DUP8 PUSH1 0x1 PUSH1 0x1 PUSH1 0xA0 SHL SUB AND DUP4 PUSH1 0x1 PUSH1 0x1 PUSH1 0xA0 SHL SUB AND EQ ISZERO PUSH2 0xC47 JUMPI DUP7 DUP5 EQ ISZERO PUSH2 0xC39 JUMPI POP SWAP4 POP PUSH2 0xC73 SWAP3 POP POP POP JUMP JUMPDEST DUP4 PUSH2 0xC43 DUP2 PUSH2 0x38BF JUMP JUMPDEST SWAP5 POP POP JUMPDEST POP DUP1 PUSH2 0xC52 DUP2 PUSH2 0x38BF JUMP JUMPDEST SWAP2 POP POP PUSH2 0xBB8 JUMP JUMPDEST POP PUSH1 0x40 MLOAD PUSH3 0x461BCD PUSH1 0xE5 SHL DUP2 MSTORE PUSH1 0x4 ADD PUSH2 0x9D5 SWAP1 PUSH2 0x35CD JUMP JUMPDEST SWAP3 SWAP2 POP POP JUMP JUMPDEST PUSH1 0x9 SLOAD DUP2 JUMP JUMPDEST CALLER PUSH1 0x0 SWAP1 DUP2 MSTORE PUSH1 0x14 PUSH1 0x20 MSTORE PUSH1 0x40 SWAP1 KECCAK256 SLOAD PUSH1 0xFF AND PUSH2 0xC9B JUMPI PUSH1 0x0 DUP1 REVERT JUMPDEST PUSH1 0xF DUP1 SLOAD PUSH3 0xFF0000 NOT DUP2 AND PUSH3 0x10000 SWAP2 DUP3 SWAP1 DIV PUSH1 0xFF AND ISZERO SWAP1 SWAP2 MUL OR SWAP1 SSTORE JUMP JUMPDEST CALLER PUSH1 0x0 SWAP1 DUP2 MSTORE PUSH1 0x13 PUSH1 0x20 MSTORE PUSH1 0x40 SWAP1 KECCAK256 SLOAD PUSH1 0xFF AND PUSH2 0xCD6 JUMPI PUSH1 0x0 DUP1 REVERT JUMPDEST PUSH1 0x16 SLOAD PUSH1 0x40 MLOAD PUSH1 0x0 SWAP2 PUSH1 0x1 PUSH1 0x1 PUSH1 0xA0 SHL SUB AND SWAP1 SELFBALANCE SWAP1 PUSH2 0xCF4 SWAP1 PUSH2 0x2C77 JUMP JUMPDEST PUSH1 0x0 PUSH1 0x40 MLOAD DUP1 DUP4 SUB DUP2 DUP6 DUP8 GAS CALL SWAP3 POP POP POP RETURNDATASIZE DUP1 PUSH1 0x0 DUP2 EQ PUSH2 0xD31 JUMPI PUSH1 0x40 MLOAD SWAP2 POP PUSH1 0x1F NOT PUSH1 0x3F RETURNDATASIZE ADD AND DUP3 ADD PUSH1 0x40 MSTORE RETURNDATASIZE DUP3 MSTORE RETURNDATASIZE PUSH1 0x0 PUSH1 0x20 DUP5 ADD RETURNDATACOPY PUSH2 0xD36 JUMP JUMPDEST PUSH1 0x60 SWAP2 POP JUMPDEST POP POP SWAP1 POP DUP1 PUSH2 0xD44 JUMPI PUSH1 0x0 DUP1 REVERT JUMPDEST POP JUMP JUMPDEST PUSH2 0xA8E DUP4 DUP4 DUP4 PUSH1 0x40 MLOAD DUP1 PUSH1 0x20 ADD PUSH1 0x40 MSTORE DUP1 PUSH1 0x0 DUP2 MSTORE POP PUSH2 0x13A5 JUMP JUMPDEST PUSH1 0x12 SLOAD DUP2 JUMP JUMPDEST CALLER PUSH1 0x0 SWAP1 DUP2 MSTORE PUSH1 0x14 PUSH1 0x20 MSTORE PUSH1 0x40 SWAP1 KECCAK256 SLOAD PUSH1 0xFF AND PUSH2 0xD84 JUMPI PUSH1 0x0 DUP1 REVERT JUMPDEST DUP1 MLOAD PUSH2 0xD97 SWAP1 PUSH1 0x10 SWAP1 PUSH1 0x20 DUP5 ADD SWAP1 PUSH2 0x269E JUMP JUMPDEST POP POP JUMP JUMPDEST PUSH1 0x0 PUSH2 0xDA5 PUSH2 0xB3C JUMP JUMPDEST DUP3 LT PUSH2 0xDC3 JUMPI PUSH1 0x40 MLOAD PUSH3 0x461BCD PUSH1 0xE5 SHL DUP2 MSTORE PUSH1 0x4 ADD PUSH2 0x9D5 SWAP1 PUSH2 0x2EE1 JUMP JUMPDEST POP SWAP1 JUMP JUMPDEST PUSH1 0xF SLOAD PUSH4 0x1000000 SWAP1 DIV PUSH1 0xFF AND DUP2 JUMP JUMPDEST PUSH1 0xF SLOAD PUSH3 0x10000 SWAP1 DIV PUSH1 0xFF AND DUP2 JUMP JUMPDEST PUSH1 0xF SLOAD PUSH3 0x10000 SWAP1 DIV PUSH1 0xFF AND ISZERO PUSH2 0xDFC JUMPI PUSH1 0x0 DUP1 REVERT JUMPDEST PUSH1 0xD SLOAD PUSH1 0xA SLOAD PUSH2 0xE0C SWAP2 SWAP1 PUSH2 0x37B7 JUMP JUMPDEST DUP2 PUSH2 0xE15 PUSH2 0xB3C JUMP JUMPDEST PUSH2 0xE1F SWAP2 SWAP1 PUSH2 0x37B7 JUMP JUMPDEST GT ISZERO PUSH2 0xE3D JUMPI PUSH1 0x40 MLOAD PUSH3 0x461BCD PUSH1 0xE5 SHL DUP2 MSTORE PUSH1 0x4 ADD PUSH2 0x9D5 SWAP1 PUSH2 0x3596 JUMP JUMPDEST PUSH1 0xF SLOAD PUSH2 0xFFFF AND PUSH1 0x1 EQ PUSH2 0xE63 JUMPI PUSH1 0x40 MLOAD PUSH3 0x461BCD PUSH1 0xE5 SHL DUP2 MSTORE PUSH1 0x4 ADD PUSH2 0x9D5 SWAP1 PUSH2 0x355F JUMP JUMPDEST PUSH2 0xE6E DUP4 DUP4 CALLER PUSH2 0x1C83 JUMP JUMPDEST PUSH2 0xE8A JUMPI PUSH1 0x40 MLOAD PUSH3 0x461BCD PUSH1 0xE5 SHL DUP2 MSTORE PUSH1 0x4 ADD PUSH2 0x9D5 SWAP1 PUSH2 0x2F69 JUMP JUMPDEST ORIGIN CALLER EQ PUSH2 0xEA9 JUMPI PUSH1 0x40 MLOAD PUSH3 0x461BCD PUSH1 0xE5 SHL DUP2 MSTORE PUSH1 0x4 ADD PUSH2 0x9D5 SWAP1 PUSH2 0x3730 JUMP JUMPDEST CALLER PUSH1 0x0 SWAP1 DUP2 MSTORE PUSH1 0x15 PUSH1 0x20 MSTORE PUSH1 0x40 SWAP1 KECCAK256 SLOAD PUSH1 0xFF AND PUSH2 0xEEC JUMPI DUP1 PUSH1 0xE SLOAD PUSH2 0xECE SWAP2 SWAP1 PUSH2 0x37E3 JUMP JUMPDEST CALLVALUE EQ PUSH2 0xEEC JUMPI PUSH1 0x40 MLOAD PUSH3 0x461BCD PUSH1 0xE5 SHL DUP2 MSTORE PUSH1 0x4 ADD PUSH2 0x9D5 SWAP1 PUSH2 0x34E7 JUMP JUMPDEST PUSH1 0xC SLOAD DUP2 PUSH2 0xEF9 CALLER PUSH2 0x1D10 JUMP JUMPDEST PUSH2 0xF03 SWAP2 SWAP1 PUSH2 0x37B7 JUMP JUMPDEST GT ISZERO PUSH2 0xF21 JUMPI PUSH1 0x40 MLOAD PUSH3 0x461BCD PUSH1 0xE5 SHL DUP2 MSTORE PUSH1 0x4 ADD PUSH2 0x9D5 SWAP1 PUSH2 0x3367 JUMP JUMPDEST PUSH2 0xA8E CALLER DUP3 PUSH2 0x1D64 JUMP JUMPDEST PUSH1 0x0 PUSH2 0xF36 DUP3 PUSH2 0x1D7E JUMP JUMPDEST MLOAD SWAP3 SWAP2 POP POP JUMP JUMPDEST PUSH1 0x11 DUP1 SLOAD PUSH2 0xF4A SWAP1 PUSH2 0x3884 JUMP JUMPDEST DUP1 PUSH1 0x1F ADD PUSH1 0x20 DUP1 SWAP2 DIV MUL PUSH1 0x20 ADD PUSH1 0x40 MLOAD SWAP1 DUP2 ADD PUSH1 0x40 MSTORE DUP1 SWAP3 SWAP2 SWAP1 DUP2 DUP2 MSTORE PUSH1 0x20 ADD DUP3 DUP1 SLOAD PUSH2 0xF76 SWAP1 PUSH2 0x3884 JUMP JUMPDEST DUP1 ISZERO PUSH2 0xFC3 JUMPI DUP1 PUSH1 0x1F LT PUSH2 0xF98 JUMPI PUSH2 0x100 DUP1 DUP4 SLOAD DIV MUL DUP4 MSTORE SWAP2 PUSH1 0x20 ADD SWAP2 PUSH2 0xFC3 JUMP JUMPDEST DUP3 ADD SWAP2 SWAP1 PUSH1 0x0 MSTORE PUSH1 0x20 PUSH1 0x0 KECCAK256 SWAP1 JUMPDEST DUP2 SLOAD DUP2 MSTORE SWAP1 PUSH1 0x1 ADD SWAP1 PUSH1 0x20 ADD DUP1 DUP4 GT PUSH2 0xFA6 JUMPI DUP3 SWAP1 SUB PUSH1 0x1F AND DUP3 ADD SWAP2 JUMPDEST POP POP POP POP POP DUP2 JUMP JUMPDEST CALLER PUSH1 0x0 SWAP1 DUP2 MSTORE PUSH1 0x13 PUSH1 0x20 MSTORE PUSH1 0x40 SWAP1 KECCAK256 SLOAD PUSH1 0xFF AND PUSH2 0xFE7 JUMPI PUSH1 0x0 DUP1 REVERT JUMPDEST PUSH1 0x1 PUSH1 0x1 PUSH1 0xA0 SHL SUB DUP2 AND PUSH1 0x0 SWAP1 DUP2 MSTORE PUSH1 0x13 PUSH1 0x20 MSTORE PUSH1 0x40 SWAP1 KECCAK256 SLOAD PUSH1 0xFF AND ISZERO PUSH2 0x1020 JUMPI PUSH1 0x40 MLOAD PUSH3 0x461BCD PUSH1 0xE5 SHL DUP2 MSTORE PUSH1 0x4 ADD PUSH2 0x9D5 SWAP1 PUSH2 0x2E1F JUMP JUMPDEST PUSH1 0x1 PUSH1 0x1 PUSH1 0xA0 SHL SUB AND PUSH1 0x0 SWAP1 DUP2 MSTORE PUSH1 0x13 PUSH1 0x20 MSTORE PUSH1 0x40 SWAP1 KECCAK256 DUP1 SLOAD PUSH1 0xFF NOT AND PUSH1 0x1 OR SWAP1 SSTORE JUMP JUMPDEST PUSH1 0x0 PUSH1 0x1 PUSH1 0x1 PUSH1 0xA0 SHL SUB DUP3 AND PUSH2 0x106C JUMPI PUSH1 0x40 MLOAD PUSH3 0x461BCD PUSH1 0xE5 SHL DUP2 MSTORE PUSH1 0x4 ADD PUSH2 0x9D5 SWAP1 PUSH2 0x31D6 JUMP JUMPDEST POP PUSH1 0x1 PUSH1 0x1 PUSH1 0xA0 SHL SUB AND PUSH1 0x0 SWAP1 DUP2 MSTORE PUSH1 0x4 PUSH1 0x20 MSTORE PUSH1 0x40 SWAP1 KECCAK256 SLOAD PUSH1 0x1 PUSH1 0x1 PUSH1 0x80 SHL SUB AND SWAP1 JUMP JUMPDEST PUSH2 0x1099 PUSH2 0x190F JUMP JUMPDEST PUSH1 0x1 PUSH1 0x1 PUSH1 0xA0 SHL SUB AND PUSH2 0x10AA PUSH2 0x12B3 JUMP JUMPDEST PUSH1 0x1 PUSH1 0x1 PUSH1 0xA0 SHL SUB AND EQ PUSH2 0x10D0 JUMPI PUSH1 0x40 MLOAD PUSH3 0x461BCD PUSH1 0xE5 SHL DUP2 MSTORE PUSH1 0x4 ADD PUSH2 0x9D5 SWAP1 PUSH2 0x32A9 JUMP JUMPDEST PUSH2 0x10DA PUSH1 0x0 PUSH2 0x1E91 JUMP JUMPDEST JUMP JUMPDEST PUSH1 0xF SLOAD PUSH3 0x10000 SWAP1 DIV PUSH1 0xFF AND ISZERO PUSH2 0x10F2 JUMPI PUSH1 0x0 DUP1 REVERT JUMPDEST PUSH1 0x9 SLOAD DUP2 PUSH2 0x10FE PUSH2 0xB3C JUMP JUMPDEST PUSH2 0x1108 SWAP2 SWAP1 PUSH2 0x37B7 JUMP JUMPDEST GT ISZERO PUSH2 0x1126 JUMPI PUSH1 0x40 MLOAD PUSH3 0x461BCD PUSH1 0xE5 SHL DUP2 MSTORE PUSH1 0x4 ADD PUSH2 0x9D5 SWAP1 PUSH2 0x366A JUMP JUMPDEST PUSH1 0xF SLOAD PUSH2 0xFFFF AND PUSH1 0x2 EQ PUSH2 0x114C JUMPI PUSH1 0x40 MLOAD PUSH3 0x461BCD PUSH1 0xE5 SHL DUP2 MSTORE PUSH1 0x4 ADD PUSH2 0x9D5 SWAP1 PUSH2 0x355F JUMP JUMPDEST PUSH2 0x1157 DUP4 DUP4 CALLER PUSH2 0x1C83 JUMP JUMPDEST PUSH2 0x1173 JUMPI PUSH1 0x40 MLOAD PUSH3 0x461BCD PUSH1 0xE5 SHL DUP2 MSTORE PUSH1 0x4 ADD PUSH2 0x9D5 SWAP1 PUSH2 0x2F69 JUMP JUMPDEST ORIGIN CALLER EQ PUSH2 0x1192 JUMPI PUSH1 0x40 MLOAD PUSH3 0x461BCD PUSH1 0xE5 SHL DUP2 MSTORE PUSH1 0x4 ADD PUSH2 0x9D5 SWAP1 PUSH2 0x3730 JUMP JUMPDEST DUP1 PUSH1 0xE SLOAD PUSH2 0xECE SWAP2 SWAP1 PUSH2 0x37E3 JUMP JUMPDEST PUSH1 0xE SLOAD DUP2 JUMP JUMPDEST PUSH1 0x10 DUP1 SLOAD PUSH2 0xF4A SWAP1 PUSH2 0x3884 JUMP JUMPDEST PUSH1 0xA SLOAD DUP2 JUMP JUMPDEST CALLER PUSH1 0x0 SWAP1 DUP2 MSTORE PUSH1 0x13 PUSH1 0x20 MSTORE PUSH1 0x40 SWAP1 KECCAK256 SLOAD PUSH1 0xFF AND PUSH2 0x11D5 JUMPI PUSH1 0x0 DUP1 REVERT JUMPDEST PUSH1 0xF SLOAD PUSH3 0x10000 SWAP1 DIV PUSH1 0xFF AND ISZERO PUSH2 0x11EB JUMPI PUSH1 0x0 DUP1 REVERT JUMPDEST CALLER PUSH1 0x0 SWAP1 DUP2 MSTORE PUSH1 0x13 PUSH1 0x20 MSTORE PUSH1 0x40 SWAP1 KECCAK256 SLOAD PUSH1 0xFF AND PUSH2 0x121A JUMPI PUSH1 0x40 MLOAD PUSH3 0x461BCD PUSH1 0xE5 SHL DUP2 MSTORE PUSH1 0x4 ADD PUSH2 0x9D5 SWAP1 PUSH2 0x3426 JUMP JUMPDEST PUSH1 0xB SLOAD PUSH2 0x1227 SWAP1 DUP3 PUSH2 0x38DA JUMP JUMPDEST ISZERO PUSH2 0x1244 JUMPI PUSH1 0x40 MLOAD PUSH3 0x461BCD PUSH1 0xE5 SHL DUP2 MSTORE PUSH1 0x4 ADD PUSH2 0x9D5 SWAP1 PUSH2 0x3085 JUMP JUMPDEST PUSH1 0xD SLOAD DUP2 PUSH2 0x1250 PUSH2 0xB3C JUMP JUMPDEST PUSH2 0x125A SWAP2 SWAP1 PUSH2 0x37B7 JUMP JUMPDEST GT ISZERO PUSH2 0x1278 JUMPI PUSH1 0x40 MLOAD PUSH3 0x461BCD PUSH1 0xE5 SHL DUP2 MSTORE PUSH1 0x4 ADD PUSH2 0x9D5 SWAP1 PUSH2 0x2E97 JUMP JUMPDEST PUSH1 0x0 PUSH1 0xB SLOAD DUP3 PUSH2 0x1288 SWAP2 SWAP1 PUSH2 0x37CF JUMP JUMPDEST SWAP1 POP PUSH1 0x0 JUMPDEST DUP2 DUP2 LT ISZERO PUSH2 0xA8E JUMPI PUSH2 0x12A1 CALLER PUSH1 0xB SLOAD PUSH2 0x1D64 JUMP JUMPDEST DUP1 PUSH2 0x12AB DUP2 PUSH2 0x38BF JUMP JUMPDEST SWAP2 POP POP PUSH2 0x128D JUMP JUMPDEST PUSH1 0x8 SLOAD PUSH1 0x1 PUSH1 0x1 PUSH1 0xA0 SHL SUB AND SWAP1 JUMP JUMPDEST PUSH1 0xB SLOAD DUP2 JUMP JUMPDEST PUSH1 0x60 PUSH1 0x2 DUP1 SLOAD PUSH2 0x92B SWAP1 PUSH2 0x3884 JUMP JUMPDEST PUSH2 0x12DF PUSH2 0x190F JUMP JUMPDEST PUSH1 0x1 PUSH1 0x1 PUSH1 0xA0 SHL SUB AND DUP3 PUSH1 0x1 PUSH1 0x1 PUSH1 0xA0 SHL SUB AND EQ ISZERO PUSH2 0x1310 JUMPI PUSH1 0x40 MLOAD PUSH3 0x461BCD PUSH1 0xE5 SHL DUP2 MSTORE PUSH1 0x4 ADD PUSH2 0x9D5 SWAP1 PUSH2 0x32DE JUMP JUMPDEST DUP1 PUSH1 0x6 PUSH1 0x0 PUSH2 0x131D PUSH2 0x190F JUMP JUMPDEST PUSH1 0x1 PUSH1 0x1 PUSH1 0xA0 SHL SUB SWAP1 DUP2 AND DUP3 MSTORE PUSH1 0x20 DUP1 DUP4 ADD SWAP4 SWAP1 SWAP4 MSTORE PUSH1 0x40 SWAP2 DUP3 ADD PUSH1 0x0 SWAP1 DUP2 KECCAK256 SWAP2 DUP8 AND DUP1 DUP3 MSTORE SWAP2 SWAP1 SWAP4 MSTORE SWAP2 KECCAK256 DUP1 SLOAD PUSH1 0xFF NOT AND SWAP3 ISZERO ISZERO SWAP3 SWAP1 SWAP3 OR SWAP1 SWAP2 SSTORE PUSH2 0x1361 PUSH2 0x190F JUMP JUMPDEST PUSH1 0x1 PUSH1 0x1 PUSH1 0xA0 SHL SUB AND PUSH32 0x17307EAB39AB6107E8899845AD3D59BD9653F200F220920489CA2B5937696C31 DUP4 PUSH1 0x40 MLOAD PUSH2 0x1399 SWAP2 SWAP1 PUSH2 0x2CE4 JUMP JUMPDEST PUSH1 0x40 MLOAD DUP1 SWAP2 SUB SWAP1 LOG3 POP POP JUMP JUMPDEST PUSH2 0x13B0 DUP5 DUP5 DUP5 PUSH2 0x196F JUMP JUMPDEST PUSH2 0x13BC DUP5 DUP5 DUP5 DUP5 PUSH2 0x1EE3 JUMP JUMPDEST PUSH2 0x13D8 JUMPI PUSH1 0x40 MLOAD PUSH3 0x461BCD PUSH1 0xE5 SHL DUP2 MSTORE PUSH1 0x4 ADD PUSH2 0x9D5 SWAP1 PUSH2 0x345D JUMP JUMPDEST POP POP POP POP JUMP JUMPDEST CALLER PUSH1 0x0 SWAP1 DUP2 MSTORE PUSH1 0x13 PUSH1 0x20 MSTORE PUSH1 0x40 SWAP1 KECCAK256 SLOAD PUSH1 0xFF AND PUSH2 0x13FA JUMPI PUSH1 0x0 DUP1 REVERT JUMPDEST PUSH1 0x1 PUSH1 0x1 PUSH1 0xA0 SHL SUB DUP2 AND PUSH1 0x0 SWAP1 DUP2 MSTORE PUSH1 0x14 PUSH1 0x20 MSTORE PUSH1 0x40 SWAP1 KECCAK256 SLOAD PUSH1 0xFF AND ISZERO PUSH2 0x1433 JUMPI PUSH1 0x40 MLOAD PUSH3 0x461BCD PUSH1 0xE5 SHL DUP2 MSTORE PUSH1 0x4 ADD PUSH2 0x9D5 SWAP1 PUSH2 0x3168 JUMP JUMPDEST PUSH1 0x1 PUSH1 0x1 PUSH1 0xA0 SHL SUB AND PUSH1 0x0 SWAP1 DUP2 MSTORE PUSH1 0x14 PUSH1 0x20 MSTORE PUSH1 0x40 SWAP1 KECCAK256 DUP1 SLOAD PUSH1 0xFF NOT AND PUSH1 0x1 OR SWAP1 SSTORE JUMP JUMPDEST PUSH1 0xF SLOAD PUSH3 0x10000 SWAP1 DIV PUSH1 0xFF AND ISZERO PUSH2 0x146D JUMPI PUSH1 0x0 DUP1 REVERT JUMPDEST PUSH1 0x9 SLOAD DUP2 PUSH2 0x1479 PUSH2 0xB3C JUMP JUMPDEST PUSH2 0x1483 SWAP2 SWAP1 PUSH2 0x37B7 JUMP JUMPDEST GT ISZERO PUSH2 0x14A1 JUMPI PUSH1 0x40 MLOAD PUSH3 0x461BCD PUSH1 0xE5 SHL DUP2 MSTORE PUSH1 0x4 ADD PUSH2 0x9D5 SWAP1 PUSH2 0x366A JUMP JUMPDEST PUSH1 0xF SLOAD PUSH2 0xFFFF AND PUSH1 0x3 EQ PUSH2 0x14C7 JUMPI PUSH1 0x40 MLOAD PUSH3 0x461BCD PUSH1 0xE5 SHL DUP2 MSTORE PUSH1 0x4 ADD PUSH2 0x9D5 SWAP1 PUSH2 0x30CA JUMP JUMPDEST ORIGIN CALLER EQ PUSH2 0x14E6 JUMPI PUSH1 0x40 MLOAD PUSH3 0x461BCD PUSH1 0xE5 SHL DUP2 MSTORE PUSH1 0x4 ADD PUSH2 0x9D5 SWAP1 PUSH2 0x3730 JUMP JUMPDEST DUP1 PUSH1 0xE SLOAD PUSH2 0x14F4 SWAP2 SWAP1 PUSH2 0x37E3 JUMP JUMPDEST CALLVALUE EQ PUSH2 0x1512 JUMPI PUSH1 0x40 MLOAD PUSH3 0x461BCD PUSH1 0xE5 SHL DUP2 MSTORE PUSH1 0x4 ADD PUSH2 0x9D5 SWAP1 PUSH2 0x34E7 JUMP JUMPDEST PUSH1 0xB SLOAD DUP2 PUSH2 0x151F CALLER PUSH2 0x1D10 JUMP JUMPDEST PUSH2 0x1529 SWAP2 SWAP1 PUSH2 0x37B7 JUMP JUMPDEST GT ISZERO PUSH2 0x1547 JUMPI PUSH1 0x40 MLOAD PUSH3 0x461BCD PUSH1 0xE5 SHL DUP2 MSTORE PUSH1 0x4 ADD PUSH2 0x9D5 SWAP1 PUSH2 0x2FF1 JUMP JUMPDEST PUSH2 0xD44 CALLER DUP3 PUSH2 0x1D64 JUMP JUMPDEST CALLER PUSH1 0x0 SWAP1 DUP2 MSTORE PUSH1 0x13 PUSH1 0x20 MSTORE PUSH1 0x40 SWAP1 KECCAK256 SLOAD PUSH1 0xFF AND PUSH2 0x156D JUMPI PUSH1 0x0 DUP1 REVERT JUMPDEST PUSH1 0x1 PUSH1 0x1 PUSH1 0xA0 SHL SUB DUP2 AND PUSH1 0x0 SWAP1 DUP2 MSTORE PUSH1 0x14 PUSH1 0x20 MSTORE PUSH1 0x40 SWAP1 KECCAK256 SLOAD PUSH1 0xFF AND PUSH2 0x15A5 JUMPI PUSH1 0x40 MLOAD PUSH3 0x461BCD PUSH1 0xE5 SHL DUP2 MSTORE PUSH1 0x4 ADD PUSH2 0x9D5 SWAP1 PUSH2 0x319F JUMP JUMPDEST PUSH1 0x1 PUSH1 0x1 PUSH1 0xA0 SHL SUB AND PUSH1 0x0 SWAP1 DUP2 MSTORE PUSH1 0x14 PUSH1 0x20 MSTORE PUSH1 0x40 SWAP1 KECCAK256 DUP1 SLOAD PUSH1 0xFF NOT AND SWAP1 SSTORE JUMP JUMPDEST PUSH1 0xF SLOAD PUSH1 0x60 SWAP1 PUSH4 0x1000000 SWAP1 DIV PUSH1 0xFF AND ISZERO PUSH2 0x160F JUMPI PUSH1 0x10 PUSH2 0x15E6 DUP4 PUSH2 0x1FFF JUMP JUMPDEST PUSH1 0x12 SLOAD PUSH1 0x40 MLOAD PUSH1 0x20 ADD PUSH2 0x15FB SWAP4 SWAP3 SWAP2 SWAP1 PUSH2 0x2B71 JUMP JUMPDEST PUSH1 0x40 MLOAD PUSH1 0x20 DUP2 DUP4 SUB SUB DUP2 MSTORE SWAP1 PUSH1 0x40 MSTORE PUSH2 0x905 JUMP JUMPDEST PUSH1 0x10 DUP1 SLOAD PUSH2 0x161C SWAP1 PUSH2 0x3884 JUMP JUMPDEST DUP1 PUSH1 0x1F ADD PUSH1 0x20 DUP1 SWAP2 DIV MUL PUSH1 0x20 ADD PUSH1 0x40 MLOAD SWAP1 DUP2 ADD PUSH1 0x40 MSTORE DUP1 SWAP3 SWAP2 SWAP1 DUP2 DUP2 MSTORE PUSH1 0x20 ADD DUP3 DUP1 SLOAD PUSH2 0x1648 SWAP1 PUSH2 0x3884 JUMP JUMPDEST DUP1 ISZERO PUSH2 0x1695 JUMPI DUP1 PUSH1 0x1F LT PUSH2 0x166A JUMPI PUSH2 0x100 DUP1 DUP4 SLOAD DIV MUL DUP4 MSTORE SWAP2 PUSH1 0x20 ADD SWAP2 PUSH2 0x1695 JUMP JUMPDEST DUP3 ADD SWAP2 SWAP1 PUSH1 0x0 MSTORE PUSH1 0x20 PUSH1 0x0 KECCAK256 SWAP1 JUMPDEST DUP2 SLOAD DUP2 MSTORE SWAP1 PUSH1 0x1 ADD SWAP1 PUSH1 0x20 ADD DUP1 DUP4 GT PUSH2 0x1678 JUMPI DUP3 SWAP1 SUB PUSH1 0x1F AND DUP3 ADD SWAP2 JUMPDEST POP POP POP POP POP SWAP1 POP SWAP2 SWAP1 POP JUMP JUMPDEST PUSH1 0xC SLOAD DUP2 JUMP JUMPDEST PUSH1 0xD SLOAD DUP2 JUMP JUMPDEST CALLER PUSH1 0x0 SWAP1 DUP2 MSTORE PUSH1 0x14 PUSH1 0x20 MSTORE PUSH1 0x40 SWAP1 KECCAK256 SLOAD PUSH1 0xFF AND PUSH2 0x16C9 JUMPI PUSH1 0x0 DUP1 REVERT JUMPDEST PUSH1 0x0 JUMPDEST DUP2 DUP2 LT ISZERO PUSH2 0xA8E JUMPI PUSH1 0x1 PUSH1 0x15 PUSH1 0x0 DUP6 DUP6 DUP6 DUP2 DUP2 LT PUSH2 0x16FA JUMPI PUSH4 0x4E487B71 PUSH1 0xE0 SHL PUSH1 0x0 MSTORE PUSH1 0x32 PUSH1 0x4 MSTORE PUSH1 0x24 PUSH1 0x0 REVERT JUMPDEST SWAP1 POP PUSH1 0x20 MUL ADD PUSH1 0x20 DUP2 ADD SWAP1 PUSH2 0x170F SWAP2 SWAP1 PUSH2 0x280D JUMP JUMPDEST PUSH1 0x1 PUSH1 0x1 PUSH1 0xA0 SHL SUB AND DUP2 MSTORE PUSH1 0x20 DUP2 ADD SWAP2 SWAP1 SWAP2 MSTORE PUSH1 0x40 ADD PUSH1 0x0 KECCAK256 DUP1 SLOAD PUSH1 0xFF NOT AND SWAP2 ISZERO ISZERO SWAP2 SWAP1 SWAP2 OR SWAP1 SSTORE DUP1 PUSH2 0x1741 DUP2 PUSH2 0x38BF JUMP JUMPDEST SWAP2 POP POP PUSH2 0x16CC JUMP JUMPDEST CALLER PUSH1 0x0 SWAP1 DUP2 MSTORE PUSH1 0x13 PUSH1 0x20 MSTORE PUSH1 0x40 SWAP1 KECCAK256 SLOAD PUSH1 0xFF AND PUSH2 0x1765 JUMPI PUSH1 0x0 DUP1 REVERT JUMPDEST PUSH1 0x16 DUP1 SLOAD PUSH1 0x1 PUSH1 0x1 PUSH1 0xA0 SHL SUB NOT AND PUSH1 0x1 PUSH1 0x1 PUSH1 0xA0 SHL SUB SWAP3 SWAP1 SWAP3 AND SWAP2 SWAP1 SWAP2 OR SWAP1 SSTORE JUMP JUMPDEST CALLER PUSH1 0x0 SWAP1 DUP2 MSTORE PUSH1 0x14 PUSH1 0x20 MSTORE PUSH1 0x40 SWAP1 KECCAK256 SLOAD PUSH1 0xFF AND PUSH2 0x17A3 JUMPI PUSH1 0x0 DUP1 REVERT JUMPDEST PUSH1 0x17 DUP1 SLOAD PUSH1 0x1 PUSH1 0x1 PUSH1 0xA0 SHL SUB NOT AND PUSH1 0x1 PUSH1 0x1 PUSH1 0xA0 SHL SUB SWAP3 SWAP1 SWAP3 AND SWAP2 SWAP1 SWAP2 OR SWAP1 SSTORE JUMP JUMPDEST PUSH1 0x7 SLOAD DUP2 JUMP JUMPDEST PUSH1 0x1 PUSH1 0x1 PUSH1 0xA0 SHL SUB SWAP2 DUP3 AND PUSH1 0x0 SWAP1 DUP2 MSTORE PUSH1 0x6 PUSH1 0x20 SWAP1 DUP2 MSTORE PUSH1 0x40 DUP1 DUP4 KECCAK256 SWAP4 SWAP1 SWAP5 AND DUP3 MSTORE SWAP2 SWAP1 SWAP2 MSTORE KECCAK256 SLOAD PUSH1 0xFF AND SWAP1 JUMP JUMPDEST PUSH2 0x1801 PUSH2 0x190F JUMP JUMPDEST PUSH1 0x1 PUSH1 0x1 PUSH1 0xA0 SHL SUB AND PUSH2 0x1812 PUSH2 0x12B3 JUMP JUMPDEST PUSH1 0x1 PUSH1 0x1 PUSH1 0xA0 SHL SUB AND EQ PUSH2 0x1838 JUMPI PUSH1 0x40 MLOAD PUSH3 0x461BCD PUSH1 0xE5 SHL DUP2 MSTORE PUSH1 0x4 ADD PUSH2 0x9D5 SWAP1 PUSH2 0x32A9 JUMP JUMPDEST PUSH1 0x1 PUSH1 0x1 PUSH1 0xA0 SHL SUB DUP2 AND PUSH2 0x185E JUMPI PUSH1 0x40 MLOAD PUSH3 0x461BCD PUSH1 0xE5 SHL DUP2 MSTORE PUSH1 0x4 ADD PUSH2 0x9D5 SWAP1 PUSH2 0x2DD9 JUMP JUMPDEST PUSH2 0xD44 DUP2 PUSH2 0x1E91 JUMP JUMPDEST PUSH1 0xF SLOAD PUSH2 0xFFFF AND DUP2 JUMP JUMPDEST CALLER PUSH1 0x0 SWAP1 DUP2 MSTORE PUSH1 0x14 PUSH1 0x20 MSTORE PUSH1 0x40 SWAP1 KECCAK256 SLOAD PUSH1 0xFF AND PUSH2 0x188D JUMPI PUSH1 0x0 DUP1 REVERT JUMPDEST DUP2 MLOAD PUSH2 0x18A0 SWAP1 PUSH1 0x10 SWAP1 PUSH1 0x20 DUP6 ADD SWAP1 PUSH2 0x269E JUMP JUMPDEST POP PUSH1 0xF DUP1 SLOAD SWAP2 ISZERO ISZERO PUSH4 0x1000000 MUL PUSH4 0xFF000000 NOT SWAP1 SWAP3 AND SWAP2 SWAP1 SWAP2 OR SWAP1 SSTORE POP JUMP JUMPDEST CALLER PUSH1 0x0 SWAP1 DUP2 MSTORE PUSH1 0x14 PUSH1 0x20 MSTORE PUSH1 0x40 SWAP1 KECCAK256 SLOAD PUSH1 0xFF AND PUSH2 0x18DC JUMPI PUSH1 0x0 DUP1 REVERT JUMPDEST DUP1 MLOAD PUSH2 0xD97 SWAP1 PUSH1 0x11 SWAP1 PUSH1 0x20 DUP5 ADD SWAP1 PUSH2 0x269E JUMP JUMPDEST PUSH1 0x1 PUSH1 0x1 PUSH1 0xE0 SHL SUB NOT DUP2 AND PUSH4 0x1FFC9A7 PUSH1 0xE0 SHL EQ SWAP2 SWAP1 POP JUMP JUMPDEST PUSH1 0x0 SLOAD GT SWAP1 JUMP JUMPDEST CALLER SWAP1 JUMP JUMPDEST PUSH1 0x0 DUP3 DUP2 MSTORE PUSH1 0x5 PUSH1 0x20 MSTORE PUSH1 0x40 DUP1 DUP3 KECCAK256 DUP1 SLOAD PUSH1 0x1 PUSH1 0x1 PUSH1 0xA0 SHL SUB NOT AND PUSH1 0x1 PUSH1 0x1 PUSH1 0xA0 SHL SUB DUP8 DUP2 AND SWAP2 DUP3 OR SWAP1 SWAP3 SSTORE SWAP2 MLOAD DUP6 SWAP4 SWAP2 DUP6 AND SWAP2 PUSH32 0x8C5BE1E5EBEC7D5BD14F71427D1E84F3DD0314C0F7B2291E5B200AC8C7C3B925 SWAP2 LOG4 POP POP POP JUMP JUMPDEST PUSH1 0x0 PUSH2 0x197A DUP3 PUSH2 0x1D7E JUMP JUMPDEST SWAP1 POP PUSH1 0x0 DUP2 PUSH1 0x0 ADD MLOAD PUSH1 0x1 PUSH1 0x1 PUSH1 0xA0 SHL SUB AND PUSH2 0x1994 PUSH2 0x190F JUMP JUMPDEST PUSH1 0x1 PUSH1 0x1 PUSH1 0xA0 SHL SUB AND EQ DUP1 PUSH2 0x19C9 JUMPI POP PUSH2 0x19AC PUSH2 0x190F JUMP JUMPDEST PUSH1 0x1 PUSH1 0x1 PUSH1 0xA0 SHL SUB AND PUSH2 0x19BE DUP5 PUSH2 0x9AE JUMP JUMPDEST PUSH1 0x1 PUSH1 0x1 PUSH1 0xA0 SHL SUB AND EQ JUMPDEST DUP1 PUSH2 0x19DD JUMPI POP DUP2 MLOAD PUSH2 0x19DD SWAP1 PUSH2 0x823 PUSH2 0x190F JUMP JUMPDEST SWAP1 POP DUP1 PUSH2 0x19FC JUMPI PUSH1 0x40 MLOAD PUSH3 0x461BCD PUSH1 0xE5 SHL DUP2 MSTORE PUSH1 0x4 ADD PUSH2 0x9D5 SWAP1 PUSH2 0x3315 JUMP JUMPDEST DUP5 PUSH1 0x1 PUSH1 0x1 PUSH1 0xA0 SHL SUB AND DUP3 PUSH1 0x0 ADD MLOAD PUSH1 0x1 PUSH1 0x1 PUSH1 0xA0 SHL SUB AND EQ PUSH2 0x1A31 JUMPI PUSH1 0x40 MLOAD PUSH3 0x461BCD PUSH1 0xE5 SHL DUP2 MSTORE PUSH1 0x4 ADD PUSH2 0x9D5 SWAP1 PUSH2 0x3263 JUMP JUMPDEST PUSH1 0x1 PUSH1 0x1 PUSH1 0xA0 SHL SUB DUP5 AND PUSH2 0x1A57 JUMPI PUSH1 0x40 MLOAD PUSH3 0x461BCD PUSH1 0xE5 SHL DUP2 MSTORE PUSH1 0x4 ADD PUSH2 0x9D5 SWAP1 PUSH2 0x2F24 JUMP JUMPDEST PUSH2 0x1A64 DUP6 DUP6 DUP6 PUSH1 0x1 PUSH2 0x13D8 JUMP JUMPDEST PUSH2 0x1A74 PUSH1 0x0 DUP5 DUP5 PUSH1 0x0 ADD MLOAD PUSH2 0x1913 JUMP JUMPDEST PUSH1 0x1 PUSH1 0x1 PUSH1 0xA0 SHL SUB DUP6 AND PUSH1 0x0 SWAP1 DUP2 MSTORE PUSH1 0x4 PUSH1 0x20 MSTORE PUSH1 0x40 DUP2 KECCAK256 DUP1 SLOAD PUSH1 0x1 SWAP3 SWAP1 PUSH2 0x1AA6 SWAP1 DUP5 SWAP1 PUSH1 0x1 PUSH1 0x1 PUSH1 0x80 SHL SUB AND PUSH2 0x3802 JUMP JUMPDEST DUP3 SLOAD PUSH2 0x100 SWAP3 SWAP1 SWAP3 EXP PUSH1 0x1 PUSH1 0x1 PUSH1 0x80 SHL SUB DUP2 DUP2 MUL NOT SWAP1 SWAP4 AND SWAP2 DUP4 AND MUL OR SWAP1 SWAP2 SSTORE PUSH1 0x1 PUSH1 0x1 PUSH1 0xA0 SHL SUB DUP7 AND PUSH1 0x0 SWAP1 DUP2 MSTORE PUSH1 0x4 PUSH1 0x20 MSTORE PUSH1 0x40 DUP2 KECCAK256 DUP1 SLOAD PUSH1 0x1 SWAP5 POP SWAP1 SWAP3 PUSH2 0x1AF2 SWAP2 DUP6 SWAP2 AND PUSH2 0x378C JUMP JUMPDEST DUP3 SLOAD PUSH1 0x1 PUSH1 0x1 PUSH1 0x80 SHL SUB SWAP2 DUP3 AND PUSH2 0x100 SWAP4 SWAP1 SWAP4 EXP SWAP3 DUP4 MUL SWAP2 SWAP1 SWAP3 MUL NOT SWAP1 SWAP2 AND OR SWAP1 SSTORE POP PUSH1 0x40 DUP1 MLOAD DUP1 DUP3 ADD DUP3 MSTORE PUSH1 0x1 PUSH1 0x1 PUSH1 0xA0 SHL SUB DUP1 DUP8 AND DUP3 MSTORE PUSH8 0xFFFFFFFFFFFFFFFF TIMESTAMP DUP2 AND PUSH1 0x20 DUP1 DUP6 ADD SWAP2 DUP3 MSTORE PUSH1 0x0 DUP10 DUP2 MSTORE PUSH1 0x3 SWAP1 SWAP2 MSTORE SWAP5 DUP6 KECCAK256 SWAP4 MLOAD DUP5 SLOAD SWAP2 MLOAD SWAP1 SWAP3 AND PUSH1 0x1 PUSH1 0xA0 SHL MUL PUSH8 0xFFFFFFFFFFFFFFFF PUSH1 0xA0 SHL NOT SWAP3 SWAP1 SWAP4 AND PUSH1 0x1 PUSH1 0x1 PUSH1 0xA0 SHL SUB NOT SWAP1 SWAP2 AND OR AND OR SWAP1 SSTORE PUSH2 0x1B88 DUP5 PUSH1 0x1 PUSH2 0x37B7 JUMP JUMPDEST PUSH1 0x0 DUP2 DUP2 MSTORE PUSH1 0x3 PUSH1 0x20 MSTORE PUSH1 0x40 SWAP1 KECCAK256 SLOAD SWAP1 SWAP2 POP PUSH1 0x1 PUSH1 0x1 PUSH1 0xA0 SHL SUB AND PUSH2 0x1C2D JUMPI PUSH2 0x1BB0 DUP2 PUSH2 0x1908 JUMP JUMPDEST ISZERO PUSH2 0x1C2D JUMPI PUSH1 0x40 DUP1 MLOAD DUP1 DUP3 ADD DUP3 MSTORE DUP5 MLOAD PUSH1 0x1 PUSH1 0x1 PUSH1 0xA0 SHL SUB SWAP1 DUP2 AND DUP3 MSTORE PUSH1 0x20 DUP1 DUP8 ADD MLOAD PUSH8 0xFFFFFFFFFFFFFFFF SWAP1 DUP2 AND DUP3 DUP6 ADD SWAP1 DUP2 MSTORE PUSH1 0x0 DUP8 DUP2 MSTORE PUSH1 0x3 SWAP1 SWAP4 MSTORE SWAP5 SWAP1 SWAP2 KECCAK256 SWAP3 MLOAD DUP4 SLOAD SWAP5 MLOAD PUSH1 0x1 PUSH1 0x1 PUSH1 0xA0 SHL SUB NOT SWAP1 SWAP6 AND SWAP3 AND SWAP2 SWAP1 SWAP2 OR PUSH8 0xFFFFFFFFFFFFFFFF PUSH1 0xA0 SHL NOT AND PUSH1 0x1 PUSH1 0xA0 SHL SWAP4 SWAP1 SWAP2 AND SWAP3 SWAP1 SWAP3 MUL SWAP2 SWAP1 SWAP2 OR SWAP1 SSTORE JUMPDEST DUP4 DUP6 PUSH1 0x1 PUSH1 0x1 PUSH1 0xA0 SHL SUB AND DUP8 PUSH1 0x1 PUSH1 0x1 PUSH1 0xA0 SHL SUB AND PUSH32 0xDDF252AD1BE2C89B69C2B068FC378DAA952BA7F163C4A11628F55A4DF523B3EF PUSH1 0x40 MLOAD PUSH1 0x40 MLOAD DUP1 SWAP2 SUB SWAP1 LOG4 PUSH2 0x1C7B DUP7 DUP7 DUP7 PUSH1 0x1 PUSH2 0x13D8 JUMP JUMPDEST POP POP POP POP POP POP JUMP JUMPDEST PUSH1 0x17 SLOAD PUSH1 0x40 DUP1 MLOAD PUSH1 0x20 PUSH1 0x1F DUP7 ADD DUP2 SWAP1 DIV DUP2 MUL DUP3 ADD DUP2 ADD SWAP1 SWAP3 MSTORE DUP5 DUP2 MSTORE PUSH1 0x0 SWAP3 PUSH1 0x1 PUSH1 0x1 PUSH1 0xA0 SHL SUB AND SWAP2 PUSH2 0x1CFE SWAP2 SWAP1 DUP8 SWAP1 DUP8 SWAP1 DUP2 SWAP1 DUP5 ADD DUP4 DUP3 DUP1 DUP3 DUP5 CALLDATACOPY PUSH1 0x0 SWAP3 ADD SWAP2 SWAP1 SWAP2 MSTORE POP POP PUSH1 0x9 SLOAD PUSH1 0x40 MLOAD PUSH2 0x1CF8 SWAP4 POP PUSH2 0x1CE4 SWAP3 POP DUP9 SWAP2 SWAP1 PUSH1 0x20 ADD PUSH2 0x2CCB JUMP JUMPDEST PUSH1 0x40 MLOAD PUSH1 0x20 DUP2 DUP4 SUB SUB DUP2 MSTORE SWAP1 PUSH1 0x40 MSTORE PUSH2 0x211A JUMP JUMPDEST SWAP1 PUSH2 0x2155 JUMP JUMPDEST PUSH1 0x1 PUSH1 0x1 PUSH1 0xA0 SHL SUB AND EQ SWAP5 SWAP4 POP POP POP POP JUMP JUMPDEST PUSH1 0x0 PUSH1 0x1 PUSH1 0x1 PUSH1 0xA0 SHL SUB DUP3 AND PUSH2 0x1D38 JUMPI PUSH1 0x40 MLOAD PUSH3 0x461BCD PUSH1 0xE5 SHL DUP2 MSTORE PUSH1 0x4 ADD PUSH2 0x9D5 SWAP1 PUSH2 0x2FA0 JUMP JUMPDEST POP PUSH1 0x1 PUSH1 0x1 PUSH1 0xA0 SHL SUB AND PUSH1 0x0 SWAP1 DUP2 MSTORE PUSH1 0x4 PUSH1 0x20 MSTORE PUSH1 0x40 SWAP1 KECCAK256 SLOAD PUSH1 0x1 PUSH1 0x80 SHL SWAP1 DIV PUSH1 0x1 PUSH1 0x1 PUSH1 0x80 SHL SUB AND SWAP1 JUMP JUMPDEST PUSH2 0xD97 DUP3 DUP3 PUSH1 0x40 MLOAD DUP1 PUSH1 0x20 ADD PUSH1 0x40 MSTORE DUP1 PUSH1 0x0 DUP2 MSTORE POP PUSH2 0x2179 JUMP JUMPDEST PUSH2 0x1D86 PUSH2 0x271E JUMP JUMPDEST PUSH2 0x1D8F DUP3 PUSH2 0x1908 JUMP JUMPDEST PUSH2 0x1DAB JUMPI PUSH1 0x40 MLOAD PUSH3 0x461BCD PUSH1 0xE5 SHL DUP2 MSTORE PUSH1 0x4 ADD PUSH2 0x9D5 SWAP1 PUSH2 0x2E4D JUMP JUMPDEST PUSH1 0x0 PUSH32 0x0 DUP4 LT PUSH2 0x1E0C JUMPI PUSH2 0x1DFE PUSH32 0x0 DUP5 PUSH2 0x382A JUMP JUMPDEST PUSH2 0x1E09 SWAP1 PUSH1 0x1 PUSH2 0x37B7 JUMP JUMPDEST SWAP1 POP JUMPDEST DUP3 JUMPDEST DUP2 DUP2 LT PUSH2 0x1E78 JUMPI PUSH1 0x0 DUP2 DUP2 MSTORE PUSH1 0x3 PUSH1 0x20 SWAP1 DUP2 MSTORE PUSH1 0x40 SWAP2 DUP3 SWAP1 KECCAK256 DUP3 MLOAD DUP1 DUP5 ADD SWAP1 SWAP4 MSTORE SLOAD PUSH1 0x1 PUSH1 0x1 PUSH1 0xA0 SHL SUB DUP2 AND DUP1 DUP5 MSTORE PUSH1 0x1 PUSH1 0xA0 SHL SWAP1 SWAP2 DIV PUSH8 0xFFFFFFFFFFFFFFFF AND SWAP2 DUP4 ADD SWAP2 SWAP1 SWAP2 MSTORE ISZERO PUSH2 0x1E65 JUMPI SWAP3 POP PUSH2 0x908 SWAP2 POP POP JUMP JUMPDEST POP DUP1 PUSH2 0x1E70 DUP2 PUSH2 0x386D JUMP JUMPDEST SWAP2 POP POP PUSH2 0x1E0E JUMP JUMPDEST POP PUSH1 0x40 MLOAD PUSH3 0x461BCD PUSH1 0xE5 SHL DUP2 MSTORE PUSH1 0x4 ADD PUSH2 0x9D5 SWAP1 PUSH2 0x361B JUMP JUMPDEST PUSH1 0x8 DUP1 SLOAD PUSH1 0x1 PUSH1 0x1 PUSH1 0xA0 SHL SUB DUP4 DUP2 AND PUSH1 0x1 PUSH1 0x1 PUSH1 0xA0 SHL SUB NOT DUP4 AND DUP2 OR SWAP1 SWAP4 SSTORE PUSH1 0x40 MLOAD SWAP2 AND SWAP2 SWAP1 DUP3 SWAP1 PUSH32 0x8BE0079C531659141344CD1FD0A4F28419497F9722A3DAAFE3B4186F6B6457E0 SWAP1 PUSH1 0x0 SWAP1 LOG3 POP POP JUMP JUMPDEST PUSH1 0x0 PUSH2 0x1EF7 DUP5 PUSH1 0x1 PUSH1 0x1 PUSH1 0xA0 SHL SUB AND PUSH2 0x23EC JUMP JUMPDEST ISZERO PUSH2 0x1FF3 JUMPI DUP4 PUSH1 0x1 PUSH1 0x1 PUSH1 0xA0 SHL SUB AND PUSH4 0x150B7A02 PUSH2 0x1F13 PUSH2 0x190F JUMP JUMPDEST DUP8 DUP7 DUP7 PUSH1 0x40 MLOAD DUP6 PUSH4 0xFFFFFFFF AND PUSH1 0xE0 SHL DUP2 MSTORE PUSH1 0x4 ADD PUSH2 0x1F35 SWAP5 SWAP4 SWAP3 SWAP2 SWAP1 PUSH2 0x2C8E JUMP JUMPDEST PUSH1 0x20 PUSH1 0x40 MLOAD DUP1 DUP4 SUB DUP2 PUSH1 0x0 DUP8 DUP1 EXTCODESIZE ISZERO DUP1 ISZERO PUSH2 0x1F4F JUMPI PUSH1 0x0 DUP1 REVERT JUMPDEST POP GAS CALL SWAP3 POP POP POP DUP1 ISZERO PUSH2 0x1F7F JUMPI POP PUSH1 0x40 DUP1 MLOAD PUSH1 0x1F RETURNDATASIZE SWAP1 DUP2 ADD PUSH1 0x1F NOT AND DUP3 ADD SWAP1 SWAP3 MSTORE PUSH2 0x1F7C SWAP2 DUP2 ADD SWAP1 PUSH2 0x29EA JUMP JUMPDEST PUSH1 0x1 JUMPDEST PUSH2 0x1FD9 JUMPI RETURNDATASIZE DUP1 DUP1 ISZERO PUSH2 0x1FAD JUMPI PUSH1 0x40 MLOAD SWAP2 POP PUSH1 0x1F NOT PUSH1 0x3F RETURNDATASIZE ADD AND DUP3 ADD PUSH1 0x40 MSTORE RETURNDATASIZE DUP3 MSTORE RETURNDATASIZE PUSH1 0x0 PUSH1 0x20 DUP5 ADD RETURNDATACOPY PUSH2 0x1FB2 JUMP JUMPDEST PUSH1 0x60 SWAP2 POP JUMPDEST POP DUP1 MLOAD PUSH2 0x1FD1 JUMPI PUSH1 0x40 MLOAD PUSH3 0x461BCD PUSH1 0xE5 SHL DUP2 MSTORE PUSH1 0x4 ADD PUSH2 0x9D5 SWAP1 PUSH2 0x345D JUMP JUMPDEST DUP1 MLOAD DUP2 PUSH1 0x20 ADD REVERT JUMPDEST PUSH1 0x1 PUSH1 0x1 PUSH1 0xE0 SHL SUB NOT AND PUSH4 0xA85BD01 PUSH1 0xE1 SHL EQ SWAP1 POP PUSH2 0x1FF7 JUMP JUMPDEST POP PUSH1 0x1 JUMPDEST SWAP5 SWAP4 POP POP POP POP JUMP JUMPDEST PUSH1 0x60 DUP2 PUSH2 0x2024 JUMPI POP PUSH1 0x40 DUP1 MLOAD DUP1 DUP3 ADD SWAP1 SWAP2 MSTORE PUSH1 0x1 DUP2 MSTORE PUSH1 0x3 PUSH1 0xFC SHL PUSH1 0x20 DUP3 ADD MSTORE PUSH2 0x908 JUMP JUMPDEST DUP2 PUSH1 0x0 JUMPDEST DUP2 ISZERO PUSH2 0x204E JUMPI DUP1 PUSH2 0x2038 DUP2 PUSH2 0x38BF JUMP JUMPDEST SWAP2 POP PUSH2 0x2047 SWAP1 POP PUSH1 0xA DUP4 PUSH2 0x37CF JUMP JUMPDEST SWAP2 POP PUSH2 0x2028 JUMP JUMPDEST PUSH1 0x0 DUP2 PUSH8 0xFFFFFFFFFFFFFFFF DUP2 GT ISZERO PUSH2 0x2077 JUMPI PUSH4 0x4E487B71 PUSH1 0xE0 SHL PUSH1 0x0 MSTORE PUSH1 0x41 PUSH1 0x4 MSTORE PUSH1 0x24 PUSH1 0x0 REVERT JUMPDEST PUSH1 0x40 MLOAD SWAP1 DUP1 DUP3 MSTORE DUP1 PUSH1 0x1F ADD PUSH1 0x1F NOT AND PUSH1 0x20 ADD DUP3 ADD PUSH1 0x40 MSTORE DUP1 ISZERO PUSH2 0x20A1 JUMPI PUSH1 0x20 DUP3 ADD DUP2 DUP1 CALLDATASIZE DUP4 CALLDATACOPY ADD SWAP1 POP JUMPDEST POP SWAP1 POP JUMPDEST DUP5 ISZERO PUSH2 0x1FF7 JUMPI PUSH2 0x20B6 PUSH1 0x1 DUP4 PUSH2 0x382A JUMP JUMPDEST SWAP2 POP PUSH2 0x20C3 PUSH1 0xA DUP7 PUSH2 0x38DA JUMP JUMPDEST PUSH2 0x20CE SWAP1 PUSH1 0x30 PUSH2 0x37B7 JUMP JUMPDEST PUSH1 0xF8 SHL DUP2 DUP4 DUP2 MLOAD DUP2 LT PUSH2 0x20F1 JUMPI PUSH4 0x4E487B71 PUSH1 0xE0 SHL PUSH1 0x0 MSTORE PUSH1 0x32 PUSH1 0x4 MSTORE PUSH1 0x24 PUSH1 0x0 REVERT JUMPDEST PUSH1 0x20 ADD ADD SWAP1 PUSH1 0x1 PUSH1 0x1 PUSH1 0xF8 SHL SUB NOT AND SWAP1 DUP2 PUSH1 0x0 BYTE SWAP1 MSTORE8 POP PUSH2 0x2113 PUSH1 0xA DUP7 PUSH2 0x37CF JUMP JUMPDEST SWAP5 POP PUSH2 0x20A5 JUMP JUMPDEST PUSH1 0x0 PUSH2 0x2126 DUP3 MLOAD PUSH2 0x1FFF JUMP JUMPDEST DUP3 PUSH1 0x40 MLOAD PUSH1 0x20 ADD PUSH2 0x2138 SWAP3 SWAP2 SWAP1 PUSH2 0x2C1C JUMP JUMPDEST PUSH1 0x40 MLOAD PUSH1 0x20 DUP2 DUP4 SUB SUB DUP2 MSTORE SWAP1 PUSH1 0x40 MSTORE DUP1 MLOAD SWAP1 PUSH1 0x20 ADD KECCAK256 SWAP1 POP SWAP2 SWAP1 POP JUMP JUMPDEST PUSH1 0x0 DUP1 PUSH1 0x0 PUSH2 0x2164 DUP6 DUP6 PUSH2 0x23F2 JUMP JUMPDEST SWAP2 POP SWAP2 POP PUSH2 0x2171 DUP2 PUSH2 0x2462 JUMP JUMPDEST POP SWAP4 SWAP3 POP POP POP JUMP JUMPDEST PUSH1 0x0 SLOAD PUSH1 0x1 PUSH1 0x1 PUSH1 0xA0 SHL SUB DUP5 AND PUSH2 0x21A2 JUMPI PUSH1 0x40 MLOAD PUSH3 0x461BCD PUSH1 0xE5 SHL DUP2 MSTORE PUSH1 0x4 ADD PUSH2 0x9D5 SWAP1 PUSH2 0x351E JUMP JUMPDEST PUSH2 0x21AB DUP2 PUSH2 0x1908 JUMP JUMPDEST ISZERO PUSH2 0x21C8 JUMPI PUSH1 0x40 MLOAD PUSH3 0x461BCD PUSH1 0xE5 SHL DUP2 MSTORE PUSH1 0x4 ADD PUSH2 0x9D5 SWAP1 PUSH2 0x34B0 JUMP JUMPDEST PUSH32 0x0 DUP4 GT ISZERO PUSH2 0x2208 JUMPI PUSH1 0x40 MLOAD PUSH3 0x461BCD PUSH1 0xE5 SHL DUP2 MSTORE PUSH1 0x4 ADD PUSH2 0x9D5 SWAP1 PUSH2 0x36EE JUMP JUMPDEST PUSH2 0x2215 PUSH1 0x0 DUP6 DUP4 DUP7 PUSH2 0x13D8 JUMP JUMPDEST PUSH1 0x1 PUSH1 0x1 PUSH1 0xA0 SHL SUB DUP5 AND PUSH1 0x0 SWAP1 DUP2 MSTORE PUSH1 0x4 PUSH1 0x20 SWAP1 DUP2 MSTORE PUSH1 0x40 SWAP2 DUP3 SWAP1 KECCAK256 DUP3 MLOAD DUP1 DUP5 ADD DUP5 MSTORE SWAP1 SLOAD PUSH1 0x1 PUSH1 0x1 PUSH1 0x80 SHL SUB DUP1 DUP3 AND DUP4 MSTORE PUSH1 0x1 PUSH1 0x80 SHL SWAP1 SWAP2 DIV AND SWAP2 DUP2 ADD SWAP2 SWAP1 SWAP2 MSTORE DUP2 MLOAD DUP1 DUP4 ADD SWAP1 SWAP3 MSTORE DUP1 MLOAD SWAP1 SWAP2 SWAP1 DUP2 SWAP1 PUSH2 0x2271 SWAP1 DUP8 SWAP1 PUSH2 0x378C JUMP JUMPDEST PUSH1 0x1 PUSH1 0x1 PUSH1 0x80 SHL SUB AND DUP2 MSTORE PUSH1 0x20 ADD DUP6 DUP4 PUSH1 0x20 ADD MLOAD PUSH2 0x228F SWAP2 SWAP1 PUSH2 0x378C JUMP JUMPDEST PUSH1 0x1 PUSH1 0x1 PUSH1 0x80 SHL SUB SWAP1 DUP2 AND SWAP1 SWAP2 MSTORE PUSH1 0x1 PUSH1 0x1 PUSH1 0xA0 SHL SUB DUP1 DUP9 AND PUSH1 0x0 DUP2 DUP2 MSTORE PUSH1 0x4 PUSH1 0x20 SWAP1 DUP2 MSTORE PUSH1 0x40 DUP1 DUP4 KECCAK256 DUP8 MLOAD DUP2 SLOAD SWAP9 DUP5 ADD MLOAD DUP9 AND PUSH1 0x1 PUSH1 0x80 SHL MUL SWAP1 DUP9 AND PUSH16 0xFFFFFFFFFFFFFFFFFFFFFFFFFFFFFFFF NOT SWAP1 SWAP10 AND SWAP9 SWAP1 SWAP9 OR SWAP1 SWAP7 AND SWAP7 SWAP1 SWAP7 OR SWAP1 SWAP5 SSTORE DUP5 MLOAD DUP1 DUP7 ADD DUP7 MSTORE SWAP2 DUP3 MSTORE PUSH8 0xFFFFFFFFFFFFFFFF TIMESTAMP DUP2 AND DUP4 DUP7 ADD SWAP1 DUP2 MSTORE DUP9 DUP4 MSTORE PUSH1 0x3 SWAP1 SWAP6 MSTORE SWAP5 DUP2 KECCAK256 SWAP2 MLOAD DUP3 SLOAD SWAP5 MLOAD SWAP1 SWAP6 AND PUSH1 0x1 PUSH1 0xA0 SHL MUL PUSH8 0xFFFFFFFFFFFFFFFF PUSH1 0xA0 SHL NOT SWAP6 SWAP1 SWAP4 AND PUSH1 0x1 PUSH1 0x1 PUSH1 0xA0 SHL SUB NOT SWAP1 SWAP5 AND SWAP4 SWAP1 SWAP4 OR SWAP4 SWAP1 SWAP4 AND OR SWAP1 SWAP2 SSTORE DUP3 SWAP1 JUMPDEST DUP6 DUP2 LT ISZERO PUSH2 0x23DA JUMPI PUSH1 0x40 MLOAD DUP3 SWAP1 PUSH1 0x1 PUSH1 0x1 PUSH1 0xA0 SHL SUB DUP10 AND SWAP1 PUSH1 0x0 SWAP1 PUSH32 0xDDF252AD1BE2C89B69C2B068FC378DAA952BA7F163C4A11628F55A4DF523B3EF SWAP1 DUP3 SWAP1 LOG4 PUSH2 0x239E PUSH1 0x0 DUP9 DUP5 DUP9 PUSH2 0x1EE3 JUMP JUMPDEST PUSH2 0x23BA JUMPI PUSH1 0x40 MLOAD PUSH3 0x461BCD PUSH1 0xE5 SHL DUP2 MSTORE PUSH1 0x4 ADD PUSH2 0x9D5 SWAP1 PUSH2 0x345D JUMP JUMPDEST DUP2 PUSH2 0x23C4 DUP2 PUSH2 0x38BF JUMP JUMPDEST SWAP3 POP POP DUP1 DUP1 PUSH2 0x23D2 SWAP1 PUSH2 0x38BF JUMP JUMPDEST SWAP2 POP POP PUSH2 0x2351 JUMP JUMPDEST POP PUSH1 0x0 DUP2 DUP2 SSTORE PUSH2 0x1C7B SWAP1 DUP8 DUP6 DUP9 PUSH2 0x13D8 JUMP JUMPDEST EXTCODESIZE ISZERO ISZERO SWAP1 JUMP JUMPDEST PUSH1 0x0 DUP1 DUP3 MLOAD PUSH1 0x41 EQ ISZERO PUSH2 0x2429 JUMPI PUSH1 0x20 DUP4 ADD MLOAD PUSH1 0x40 DUP5 ADD MLOAD PUSH1 0x60 DUP6 ADD MLOAD PUSH1 0x0 BYTE PUSH2 0x241D DUP8 DUP3 DUP6 DUP6 PUSH2 0x258F JUMP JUMPDEST SWAP5 POP SWAP5 POP POP POP POP PUSH2 0x245B JUMP JUMPDEST DUP3 MLOAD PUSH1 0x40 EQ ISZERO PUSH2 0x2453 JUMPI PUSH1 0x20 DUP4 ADD MLOAD PUSH1 0x40 DUP5 ADD MLOAD PUSH2 0x2448 DUP7 DUP4 DUP4 PUSH2 0x266F JUMP JUMPDEST SWAP4 POP SWAP4 POP POP POP PUSH2 0x245B JUMP JUMPDEST POP PUSH1 0x0 SWAP1 POP PUSH1 0x2 JUMPDEST SWAP3 POP SWAP3 SWAP1 POP JUMP JUMPDEST PUSH1 0x0 DUP2 PUSH1 0x4 DUP2 GT ISZERO PUSH2 0x2484 JUMPI PUSH4 0x4E487B71 PUSH1 0xE0 SHL PUSH1 0x0 MSTORE PUSH1 0x21 PUSH1 0x4 MSTORE PUSH1 0x24 PUSH1 0x0 REVERT JUMPDEST EQ ISZERO PUSH2 0x248F JUMPI PUSH2 0xD44 JUMP JUMPDEST PUSH1 0x1 DUP2 PUSH1 0x4 DUP2 GT ISZERO PUSH2 0x24B1 JUMPI PUSH4 0x4E487B71 PUSH1 0xE0 SHL PUSH1 0x0 MSTORE PUSH1 0x21 PUSH1 0x4 MSTORE PUSH1 0x24 PUSH1 0x0 REVERT JUMPDEST EQ ISZERO PUSH2 0x24CF JUMPI PUSH1 0x40 MLOAD PUSH3 0x461BCD PUSH1 0xE5 SHL DUP2 MSTORE PUSH1 0x4 ADD PUSH2 0x9D5 SWAP1 PUSH2 0x2D29 JUMP JUMPDEST PUSH1 0x2 DUP2 PUSH1 0x4 DUP2 GT ISZERO PUSH2 0x24F1 JUMPI PUSH4 0x4E487B71 PUSH1 0xE0 SHL PUSH1 0x0 MSTORE PUSH1 0x21 PUSH1 0x4 MSTORE PUSH1 0x24 PUSH1 0x0 REVERT JUMPDEST EQ ISZERO PUSH2 0x250F JUMPI PUSH1 0x40 MLOAD PUSH3 0x461BCD PUSH1 0xE5 SHL DUP2 MSTORE PUSH1 0x4 ADD PUSH2 0x9D5 SWAP1 PUSH2 0x2DA2 JUMP JUMPDEST PUSH1 0x3 DUP2 PUSH1 0x4 DUP2 GT ISZERO PUSH2 0x2531 JUMPI PUSH4 0x4E487B71 PUSH1 0xE0 SHL PUSH1 0x0 MSTORE PUSH1 0x21 PUSH1 0x4 MSTORE PUSH1 0x24 PUSH1 0x0 REVERT JUMPDEST EQ ISZERO PUSH2 0x254F JUMPI PUSH1 0x40 MLOAD PUSH3 0x461BCD PUSH1 0xE5 SHL DUP2 MSTORE PUSH1 0x4 ADD PUSH2 0x9D5 SWAP1 PUSH2 0x3043 JUMP JUMPDEST PUSH1 0x4 DUP2 PUSH1 0x4 DUP2 GT ISZERO PUSH2 0x2571 JUMPI PUSH4 0x4E487B71 PUSH1 0xE0 SHL PUSH1 0x0 MSTORE PUSH1 0x21 PUSH1 0x4 MSTORE PUSH1 0x24 PUSH1 0x0 REVERT JUMPDEST EQ ISZERO PUSH2 0xD44 JUMPI PUSH1 0x40 MLOAD PUSH3 0x461BCD PUSH1 0xE5 SHL DUP2 MSTORE PUSH1 0x4 ADD PUSH2 0x9D5 SWAP1 PUSH2 0x3221 JUMP JUMPDEST PUSH1 0x0 DUP1 PUSH32 0x7FFFFFFFFFFFFFFFFFFFFFFFFFFFFFFF5D576E7357A4501DDFE92F46681B20A0 DUP4 GT ISZERO PUSH2 0x25C6 JUMPI POP PUSH1 0x0 SWAP1 POP PUSH1 0x3 PUSH2 0x2666 JUMP JUMPDEST DUP5 PUSH1 0xFF AND PUSH1 0x1B EQ ISZERO DUP1 ISZERO PUSH2 0x25DE JUMPI POP DUP5 PUSH1 0xFF AND PUSH1 0x1C EQ ISZERO JUMPDEST ISZERO PUSH2 0x25EF JUMPI POP PUSH1 0x0 SWAP1 POP PUSH1 0x4 PUSH2 0x2666 JUMP JUMPDEST PUSH1 0x0 PUSH1 0x1 DUP8 DUP8 DUP8 DUP8 PUSH1 0x40 MLOAD PUSH1 0x0 DUP2 MSTORE PUSH1 0x20 ADD PUSH1 0x40 MSTORE PUSH1 0x40 MLOAD PUSH2 0x2614 SWAP5 SWAP4 SWAP3 SWAP2 SWAP1 PUSH2 0x2CF8 JUMP JUMPDEST PUSH1 0x20 PUSH1 0x40 MLOAD PUSH1 0x20 DUP2 SUB SWAP1 DUP1 DUP5 SUB SWAP1 DUP6 GAS STATICCALL ISZERO DUP1 ISZERO PUSH2 0x2636 JUMPI RETURNDATASIZE PUSH1 0x0 DUP1 RETURNDATACOPY RETURNDATASIZE PUSH1 0x0 REVERT JUMPDEST POP POP PUSH1 0x40 MLOAD PUSH1 0x1F NOT ADD MLOAD SWAP2 POP POP PUSH1 0x1 PUSH1 0x1 PUSH1 0xA0 SHL SUB DUP2 AND PUSH2 0x265F JUMPI PUSH1 0x0 PUSH1 0x1 SWAP3 POP SWAP3 POP POP PUSH2 0x2666 JUMP JUMPDEST SWAP2 POP PUSH1 0x0 SWAP1 POP JUMPDEST SWAP5 POP SWAP5 SWAP3 POP POP POP JUMP JUMPDEST PUSH1 0x0 DUP1 PUSH1 0x1 PUSH1 0x1 PUSH1 0xFF SHL SUB DUP4 AND PUSH1 0xFF DUP5 SWAP1 SHR PUSH1 0x1B ADD PUSH2 0x2690 DUP8 DUP3 DUP9 DUP6 PUSH2 0x258F JUMP JUMPDEST SWAP4 POP SWAP4 POP POP POP SWAP4 POP SWAP4 SWAP2 POP POP JUMP JUMPDEST DUP3 DUP1 SLOAD PUSH2 0x26AA SWAP1 PUSH2 0x3884 JUMP JUMPDEST SWAP1 PUSH1 0x0 MSTORE PUSH1 0x20 PUSH1 0x0 KECCAK256 SWAP1 PUSH1 0x1F ADD PUSH1 0x20 SWAP1 DIV DUP2 ADD SWAP3 DUP3 PUSH2 0x26CC JUMPI PUSH1 0x0 DUP6 SSTORE PUSH2 0x2712 JUMP JUMPDEST DUP3 PUSH1 0x1F LT PUSH2 0x26E5 JUMPI DUP1 MLOAD PUSH1 0xFF NOT AND DUP4 DUP1 ADD OR DUP6 SSTORE PUSH2 0x2712 JUMP JUMPDEST DUP3 DUP1 ADD PUSH1 0x1 ADD DUP6 SSTORE DUP3 ISZERO PUSH2 0x2712 JUMPI SWAP2 DUP3 ADD JUMPDEST DUP3 DUP2 GT ISZERO PUSH2 0x2712 JUMPI DUP3 MLOAD DUP3 SSTORE SWAP2 PUSH1 0x20 ADD SWAP2 SWAP1 PUSH1 0x1 ADD SWAP1 PUSH2 0x26F7 JUMP JUMPDEST POP PUSH2 0xDC3 SWAP3 SWAP2 POP PUSH2 0x2735 JUMP JUMPDEST PUSH1 0x40 DUP1 MLOAD DUP1 DUP3 ADD SWAP1 SWAP2 MSTORE PUSH1 0x0 DUP1 DUP3 MSTORE PUSH1 0x20 DUP3 ADD MSTORE SWAP1 JUMP JUMPDEST JUMPDEST DUP1 DUP3 GT ISZERO PUSH2 0xDC3 JUMPI PUSH1 0x0 DUP2 SSTORE PUSH1 0x1 ADD PUSH2 0x2736 JUMP JUMPDEST PUSH1 0x0 PUSH8 0xFFFFFFFFFFFFFFFF DUP1 DUP5 GT ISZERO PUSH2 0x2765 JUMPI PUSH2 0x2765 PUSH2 0x391A JUMP JUMPDEST PUSH1 0x40 MLOAD PUSH1 0x1F DUP6 ADD PUSH1 0x1F NOT SWAP1 DUP2 AND PUSH1 0x3F ADD AND DUP2 ADD SWAP1 DUP3 DUP3 GT DUP2 DUP4 LT OR ISZERO PUSH2 0x278D JUMPI PUSH2 0x278D PUSH2 0x391A JUMP JUMPDEST DUP2 PUSH1 0x40 MSTORE DUP1 SWAP4 POP DUP6 DUP2 MSTORE DUP7 DUP7 DUP7 ADD GT ISZERO PUSH2 0x27A6 JUMPI PUSH1 0x0 DUP1 REVERT JUMPDEST DUP6 DUP6 PUSH1 0x20 DUP4 ADD CALLDATACOPY PUSH1 0x0 PUSH1 0x20 DUP8 DUP4 ADD ADD MSTORE POP POP POP SWAP4 SWAP3 POP POP POP JUMP JUMPDEST DUP1 CALLDATALOAD PUSH1 0x1 PUSH1 0x1 PUSH1 0xA0 SHL SUB DUP2 AND DUP2 EQ PUSH2 0x908 JUMPI PUSH1 0x0 DUP1 REVERT JUMPDEST DUP1 CALLDATALOAD DUP1 ISZERO ISZERO DUP2 EQ PUSH2 0x908 JUMPI PUSH1 0x0 DUP1 REVERT JUMPDEST PUSH1 0x0 DUP3 PUSH1 0x1F DUP4 ADD SLT PUSH2 0x27F7 JUMPI DUP1 DUP2 REVERT JUMPDEST PUSH2 0x2806 DUP4 DUP4 CALLDATALOAD PUSH1 0x20 DUP6 ADD PUSH2 0x274A JUMP JUMPDEST SWAP4 SWAP3 POP POP POP JUMP JUMPDEST PUSH1 0x0 PUSH1 0x20 DUP3 DUP5 SUB SLT ISZERO PUSH2 0x281E JUMPI DUP1 DUP2 REVERT JUMPDEST PUSH2 0x2806 DUP3 PUSH2 0x27C0 JUMP JUMPDEST PUSH1 0x0 DUP1 PUSH1 0x40 DUP4 DUP6 SUB SLT ISZERO PUSH2 0x2839 JUMPI DUP1 DUP2 REVERT JUMPDEST PUSH2 0x2842 DUP4 PUSH2 0x27C0 JUMP JUMPDEST SWAP2 POP PUSH2 0x2850 PUSH1 0x20 DUP5 ADD PUSH2 0x27C0 JUMP JUMPDEST SWAP1 POP SWAP3 POP SWAP3 SWAP1 POP JUMP JUMPDEST PUSH1 0x0 DUP1 PUSH1 0x0 PUSH1 0x60 DUP5 DUP7 SUB SLT ISZERO PUSH2 0x286D JUMPI DUP1 DUP2 REVERT JUMPDEST PUSH2 0x2876 DUP5 PUSH2 0x27C0 JUMP JUMPDEST SWAP3 POP PUSH2 0x2884 PUSH1 0x20 DUP6 ADD PUSH2 0x27C0 JUMP JUMPDEST SWAP2 POP PUSH1 0x40 DUP5 ADD CALLDATALOAD SWAP1 POP SWAP3 POP SWAP3 POP SWAP3 JUMP JUMPDEST PUSH1 0x0 DUP1 PUSH1 0x0 DUP1 PUSH1 0x80 DUP6 DUP8 SUB SLT ISZERO PUSH2 0x28A9 JUMPI DUP1 DUP2 REVERT JUMPDEST PUSH2 0x28B2 DUP6 PUSH2 0x27C0 JUMP JUMPDEST SWAP4 POP PUSH2 0x28C0 PUSH1 0x20 DUP7 ADD PUSH2 0x27C0 JUMP JUMPDEST SWAP3 POP PUSH1 0x40 DUP6 ADD CALLDATALOAD SWAP2 POP PUSH1 0x60 DUP6 ADD CALLDATALOAD PUSH8 0xFFFFFFFFFFFFFFFF DUP2 GT ISZERO PUSH2 0x28E2 JUMPI DUP2 DUP3 REVERT JUMPDEST DUP6 ADD PUSH1 0x1F DUP2 ADD DUP8 SGT PUSH2 0x28F2 JUMPI DUP2 DUP3 REVERT JUMPDEST PUSH2 0x2901 DUP8 DUP3 CALLDATALOAD PUSH1 0x20 DUP5 ADD PUSH2 0x274A JUMP JUMPDEST SWAP2 POP POP SWAP3 SWAP6 SWAP2 SWAP5 POP SWAP3 POP JUMP JUMPDEST PUSH1 0x0 DUP1 PUSH1 0x40 DUP4 DUP6 SUB SLT ISZERO PUSH2 0x291F JUMPI DUP2 DUP3 REVERT JUMPDEST PUSH2 0x2928 DUP4 PUSH2 0x27C0 JUMP JUMPDEST SWAP2 POP PUSH2 0x2850 PUSH1 0x20 DUP5 ADD PUSH2 0x27D7 JUMP JUMPDEST PUSH1 0x0 DUP1 PUSH1 0x40 DUP4 DUP6 SUB SLT ISZERO PUSH2 0x2948 JUMPI DUP2 DUP3 REVERT JUMPDEST PUSH2 0x2951 DUP4 PUSH2 0x27C0 JUMP JUMPDEST SWAP5 PUSH1 0x20 SWAP4 SWAP1 SWAP4 ADD CALLDATALOAD SWAP4 POP POP POP JUMP JUMPDEST PUSH1 0x0 DUP1 PUSH1 0x20 DUP4 DUP6 SUB SLT ISZERO PUSH2 0x2971 JUMPI DUP2 DUP3 REVERT JUMPDEST DUP3 CALLDATALOAD PUSH8 0xFFFFFFFFFFFFFFFF DUP1 DUP3 GT ISZERO PUSH2 0x2988 JUMPI DUP4 DUP5 REVERT JUMPDEST DUP2 DUP6 ADD SWAP2 POP DUP6 PUSH1 0x1F DUP4 ADD SLT PUSH2 0x299B JUMPI DUP4 DUP5 REVERT JUMPDEST DUP2 CALLDATALOAD DUP2 DUP2 GT ISZERO PUSH2 0x29A9 JUMPI DUP5 DUP6 REVERT JUMPDEST DUP7 PUSH1 0x20 DUP1 DUP4 MUL DUP6 ADD ADD GT ISZERO PUSH2 0x29BC JUMPI DUP5 DUP6 REVERT JUMPDEST PUSH1 0x20 SWAP3 SWAP1 SWAP3 ADD SWAP7 SWAP2 SWAP6 POP SWAP1 SWAP4 POP POP POP POP JUMP JUMPDEST PUSH1 0x0 PUSH1 0x20 DUP3 DUP5 SUB SLT ISZERO PUSH2 0x29DF JUMPI DUP1 DUP2 REVERT JUMPDEST DUP2 CALLDATALOAD PUSH2 0x2806 DUP2 PUSH2 0x3930 JUMP JUMPDEST PUSH1 0x0 PUSH1 0x20 DUP3 DUP5 SUB SLT ISZERO PUSH2 0x29FB JUMPI DUP1 DUP2 REVERT JUMPDEST DUP2 MLOAD PUSH2 0x2806 DUP2 PUSH2 0x3930 JUMP JUMPDEST PUSH1 0x0 DUP1 PUSH1 0x0 PUSH1 0x40 DUP5 DUP7 SUB SLT ISZERO PUSH2 0x2A1A JUMPI DUP3 DUP4 REVERT JUMPDEST DUP4 CALLDATALOAD PUSH8 0xFFFFFFFFFFFFFFFF DUP1 DUP3 GT ISZERO PUSH2 0x2A31 JUMPI DUP5 DUP6 REVERT JUMPDEST DUP2 DUP7 ADD SWAP2 POP DUP7 PUSH1 0x1F DUP4 ADD SLT PUSH2 0x2A44 JUMPI DUP5 DUP6 REVERT JUMPDEST DUP2 CALLDATALOAD DUP2 DUP2 GT ISZERO PUSH2 0x2A52 JUMPI DUP6 DUP7 REVERT JUMPDEST DUP8 PUSH1 0x20 DUP3 DUP6 ADD ADD GT ISZERO PUSH2 0x2A63 JUMPI DUP6 DUP7 REVERT JUMPDEST PUSH1 0x20 SWAP3 DUP4 ADD SWAP9 SWAP1 SWAP8 POP SWAP6 SWAP1 SWAP2 ADD CALLDATALOAD SWAP5 SWAP4 POP POP POP POP JUMP JUMPDEST PUSH1 0x0 PUSH1 0x20 DUP3 DUP5 SUB SLT ISZERO PUSH2 0x2A8A JUMPI DUP1 DUP2 REVERT JUMPDEST DUP2 CALLDATALOAD PUSH8 0xFFFFFFFFFFFFFFFF DUP2 GT ISZERO PUSH2 0x2AA0 JUMPI DUP2 DUP3 REVERT JUMPDEST PUSH2 0x1FF7 DUP5 DUP3 DUP6 ADD PUSH2 0x27E7 JUMP JUMPDEST PUSH1 0x0 DUP1 PUSH1 0x40 DUP4 DUP6 SUB SLT ISZERO PUSH2 0x2ABE JUMPI DUP2 DUP3 REVERT JUMPDEST DUP3 CALLDATALOAD PUSH8 0xFFFFFFFFFFFFFFFF DUP2 GT ISZERO PUSH2 0x2AD4 JUMPI DUP3 DUP4 REVERT JUMPDEST PUSH2 0x2AE0 DUP6 DUP3 DUP7 ADD PUSH2 0x27E7 JUMP JUMPDEST SWAP3 POP POP PUSH2 0x2850 PUSH1 0x20 DUP5 ADD PUSH2 0x27D7 JUMP JUMPDEST PUSH1 0x0 PUSH1 0x20 DUP3 DUP5 SUB SLT ISZERO PUSH2 0x2B00 JUMPI DUP1 DUP2 REVERT JUMPDEST DUP2 CALLDATALOAD PUSH2 0xFFFF DUP2 AND DUP2 EQ PUSH2 0x2806 JUMPI DUP2 DUP3 REVERT JUMPDEST PUSH1 0x0 PUSH1 0x20 DUP3 DUP5 SUB SLT ISZERO PUSH2 0x2B22 JUMPI DUP1 DUP2 REVERT JUMPDEST POP CALLDATALOAD SWAP2 SWAP1 POP JUMP JUMPDEST PUSH1 0x0 DUP2 MLOAD DUP1 DUP5 MSTORE PUSH2 0x2B41 DUP2 PUSH1 0x20 DUP7 ADD PUSH1 0x20 DUP7 ADD PUSH2 0x3841 JUMP JUMPDEST PUSH1 0x1F ADD PUSH1 0x1F NOT AND SWAP3 SWAP1 SWAP3 ADD PUSH1 0x20 ADD SWAP3 SWAP2 POP POP JUMP JUMPDEST PUSH1 0x0 DUP2 MLOAD PUSH2 0x2B67 DUP2 DUP6 PUSH1 0x20 DUP7 ADD PUSH2 0x3841 JUMP JUMPDEST SWAP3 SWAP1 SWAP3 ADD SWAP3 SWAP2 POP POP JUMP JUMPDEST DUP4 SLOAD PUSH1 0x0 SWAP1 DUP2 SWAP1 PUSH1 0x2 DUP2 DIV PUSH1 0x1 DUP1 DUP4 AND DUP1 PUSH2 0x2B8D JUMPI PUSH1 0x7F DUP4 AND SWAP3 POP JUMPDEST PUSH1 0x20 DUP1 DUP5 LT DUP3 EQ ISZERO PUSH2 0x2BAD JUMPI PUSH4 0x4E487B71 PUSH1 0xE0 SHL DUP8 MSTORE PUSH1 0x22 PUSH1 0x4 MSTORE PUSH1 0x24 DUP8 REVERT JUMPDEST DUP2 DUP1 ISZERO PUSH2 0x2BC1 JUMPI PUSH1 0x1 DUP2 EQ PUSH2 0x2BD2 JUMPI PUSH2 0x2BFE JUMP JUMPDEST PUSH1 0xFF NOT DUP7 AND DUP10 MSTORE DUP5 DUP10 ADD SWAP7 POP PUSH2 0x2BFE JUMP JUMPDEST PUSH2 0x2BDB DUP13 PUSH2 0x3780 JUMP JUMPDEST DUP9 JUMPDEST DUP7 DUP2 LT ISZERO PUSH2 0x2BF6 JUMPI DUP2 SLOAD DUP12 DUP3 ADD MSTORE SWAP1 DUP6 ADD SWAP1 DUP4 ADD PUSH2 0x2BDD JUMP JUMPDEST POP POP DUP5 DUP10 ADD SWAP7 POP JUMPDEST POP PUSH2 0x2C09 DUP7 DUP12 PUSH2 0x2B55 JUMP JUMPDEST SWAP9 DUP10 MSTORE SWAP1 SWAP8 ADD SWAP10 SWAP9 POP POP POP POP POP POP POP POP POP JUMP JUMPDEST PUSH1 0x0 PUSH32 0x19457468657265756D205369676E6564204D6573736167653A0A000000000000 DUP3 MSTORE DUP4 MLOAD PUSH2 0x2C54 DUP2 PUSH1 0x1A DUP6 ADD PUSH1 0x20 DUP9 ADD PUSH2 0x3841 JUMP JUMPDEST DUP4 MLOAD SWAP1 DUP4 ADD SWAP1 PUSH2 0x2C6B DUP2 PUSH1 0x1A DUP5 ADD PUSH1 0x20 DUP9 ADD PUSH2 0x3841 JUMP JUMPDEST ADD PUSH1 0x1A ADD SWAP5 SWAP4 POP POP POP POP JUMP JUMPDEST SWAP1 JUMP JUMPDEST PUSH1 0x1 PUSH1 0x1 PUSH1 0xA0 SHL SUB SWAP2 SWAP1 SWAP2 AND DUP2 MSTORE PUSH1 0x20 ADD SWAP1 JUMP JUMPDEST PUSH1 0x1 PUSH1 0x1 PUSH1 0xA0 SHL SUB DUP6 DUP2 AND DUP3 MSTORE DUP5 AND PUSH1 0x20 DUP3 ADD MSTORE PUSH1 0x40 DUP2 ADD DUP4 SWAP1 MSTORE PUSH1 0x80 PUSH1 0x60 DUP3 ADD DUP2 SWAP1 MSTORE PUSH1 0x0 SWAP1 PUSH2 0x2CC1 SWAP1 DUP4 ADD DUP5 PUSH2 0x2B29 JUMP JUMPDEST SWAP7 SWAP6 POP POP POP POP POP POP JUMP JUMPDEST PUSH1 0x1 PUSH1 0x1 PUSH1 0xA0 SHL SUB SWAP3 SWAP1 SWAP3 AND DUP3 MSTORE PUSH1 0x20 DUP3 ADD MSTORE PUSH1 0x40 ADD SWAP1 JUMP JUMPDEST SWAP1 ISZERO ISZERO DUP2 MSTORE PUSH1 0x20 ADD SWAP1 JUMP JUMPDEST SWAP1 DUP2 MSTORE PUSH1 0x20 ADD SWAP1 JUMP JUMPDEST SWAP4 DUP5 MSTORE PUSH1 0xFF SWAP3 SWAP1 SWAP3 AND PUSH1 0x20 DUP5 ADD MSTORE PUSH1 0x40 DUP4 ADD MSTORE PUSH1 0x60 DUP3 ADD MSTORE PUSH1 0x80 ADD SWAP1 JUMP JUMPDEST PUSH1 0x0 PUSH1 0x20 DUP3 MSTORE PUSH2 0x2806 PUSH1 0x20 DUP4 ADD DUP5 PUSH2 0x2B29 JUMP JUMPDEST PUSH1 0x20 DUP1 DUP3 MSTORE PUSH1 0x18 SWAP1 DUP3 ADD MSTORE PUSH32 0x45434453413A20696E76616C6964207369676E61747572650000000000000000 PUSH1 0x40 DUP3 ADD MSTORE PUSH1 0x60 ADD SWAP1 JUMP JUMPDEST PUSH1 0x20 DUP1 DUP3 MSTORE PUSH1 0x22 SWAP1 DUP3 ADD MSTORE PUSH32 0x455243373231413A206F776E657220696E646578206F7574206F6620626F756E PUSH1 0x40 DUP3 ADD MSTORE PUSH2 0x6473 PUSH1 0xF0 SHL PUSH1 0x60 DUP3 ADD MSTORE PUSH1 0x80 ADD SWAP1 JUMP JUMPDEST PUSH1 0x20 DUP1 DUP3 MSTORE PUSH1 0x1F SWAP1 DUP3 ADD MSTORE PUSH32 0x45434453413A20696E76616C6964207369676E6174757265206C656E67746800 PUSH1 0x40 DUP3 ADD MSTORE PUSH1 0x60 ADD SWAP1 JUMP JUMPDEST PUSH1 0x20 DUP1 DUP3 MSTORE PUSH1 0x26 SWAP1 DUP3 ADD MSTORE PUSH32 0x4F776E61626C653A206E6577206F776E657220697320746865207A65726F2061 PUSH1 0x40 DUP3 ADD MSTORE PUSH6 0x646472657373 PUSH1 0xD0 SHL PUSH1 0x60 DUP3 ADD MSTORE PUSH1 0x80 ADD SWAP1 JUMP JUMPDEST PUSH1 0x20 DUP1 DUP3 MSTORE PUSH1 0x14 SWAP1 DUP3 ADD MSTORE PUSH20 0x4F776E657220616C726561647920657869737473 PUSH1 0x60 SHL PUSH1 0x40 DUP3 ADD MSTORE PUSH1 0x60 ADD SWAP1 JUMP JUMPDEST PUSH1 0x20 DUP1 DUP3 MSTORE PUSH1 0x2A SWAP1 DUP3 ADD MSTORE PUSH32 0x455243373231413A206F776E657220717565727920666F72206E6F6E65786973 PUSH1 0x40 DUP3 ADD MSTORE PUSH10 0x3A32B73A103A37B5B2B7 PUSH1 0xB1 SHL PUSH1 0x60 DUP3 ADD MSTORE PUSH1 0x80 ADD SWAP1 JUMP JUMPDEST PUSH1 0x20 DUP1 DUP3 MSTORE PUSH1 0x2A SWAP1 DUP3 ADD MSTORE PUSH32 0x5175616E746974792065786365656473206E756D626572206F66207265736572 PUSH1 0x40 DUP3 ADD MSTORE PUSH10 0x76656420746F6B656E73 PUSH1 0xB0 SHL PUSH1 0x60 DUP3 ADD MSTORE PUSH1 0x80 ADD SWAP1 JUMP JUMPDEST PUSH1 0x20 DUP1 DUP3 MSTORE PUSH1 0x23 SWAP1 DUP3 ADD MSTORE PUSH32 0x455243373231413A20676C6F62616C20696E646578206F7574206F6620626F75 PUSH1 0x40 DUP3 ADD MSTORE PUSH3 0x6E6473 PUSH1 0xE8 SHL PUSH1 0x60 DUP3 ADD MSTORE PUSH1 0x80 ADD SWAP1 JUMP JUMPDEST PUSH1 0x20 DUP1 DUP3 MSTORE PUSH1 0x25 SWAP1 DUP3 ADD MSTORE PUSH32 0x455243373231413A207472616E7366657220746F20746865207A65726F206164 PUSH1 0x40 DUP3 ADD MSTORE PUSH5 0x6472657373 PUSH1 0xD8 SHL PUSH1 0x60 DUP3 ADD MSTORE PUSH1 0x80 ADD SWAP1 JUMP JUMPDEST PUSH1 0x20 DUP1 DUP3 MSTORE PUSH1 0x1A SWAP1 DUP3 ADD MSTORE PUSH32 0x41646472657373206973206E6F742077686974656C6973746564000000000000 PUSH1 0x40 DUP3 ADD MSTORE PUSH1 0x60 ADD SWAP1 JUMP JUMPDEST PUSH1 0x20 DUP1 DUP3 MSTORE PUSH1 0x31 SWAP1 DUP3 ADD MSTORE PUSH32 0x455243373231413A206E756D626572206D696E74656420717565727920666F72 PUSH1 0x40 DUP3 ADD MSTORE PUSH17 0x20746865207A65726F2061646472657373 PUSH1 0x78 SHL PUSH1 0x60 DUP3 ADD MSTORE PUSH1 0x80 ADD SWAP1 JUMP JUMPDEST PUSH1 0x20 DUP1 DUP3 MSTORE PUSH1 0x32 SWAP1 DUP3 ADD MSTORE PUSH32 0x41646472657373206973206E6F7420616C6C6F77656420746F206D696E74206D PUSH1 0x40 DUP3 ADD MSTORE PUSH18 0xDEE4CA40E8D0C2DC409A82B0BE8482A8869 PUSH1 0x73 SHL PUSH1 0x60 DUP3 ADD MSTORE PUSH1 0x80 ADD SWAP1 JUMP JUMPDEST PUSH1 0x20 DUP1 DUP3 MSTORE PUSH1 0x22 SWAP1 DUP3 ADD MSTORE PUSH32 0x45434453413A20696E76616C6964207369676E6174757265202773272076616C PUSH1 0x40 DUP3 ADD MSTORE PUSH2 0x7565 PUSH1 0xF0 SHL PUSH1 0x60 DUP3 ADD MSTORE PUSH1 0x80 ADD SWAP1 JUMP JUMPDEST PUSH1 0x20 DUP1 DUP3 MSTORE PUSH1 0x25 SWAP1 DUP3 ADD MSTORE PUSH32 0x43616E206F6E6C79206D696E742061206D756C7469706C65206F66204D41585F PUSH1 0x40 DUP3 ADD MSTORE PUSH5 0x8482A8869 PUSH1 0xDB SHL PUSH1 0x60 DUP3 ADD MSTORE PUSH1 0x80 ADD SWAP1 JUMP JUMPDEST PUSH1 0x20 DUP1 DUP3 MSTORE PUSH1 0x21 SWAP1 DUP3 ADD MSTORE PUSH32 0x5075626C69632073616C652069732063757272656E746C7920696E6163746976 PUSH1 0x40 DUP3 ADD MSTORE PUSH1 0x65 PUSH1 0xF8 SHL PUSH1 0x60 DUP3 ADD MSTORE PUSH1 0x80 ADD SWAP1 JUMP JUMPDEST PUSH1 0x20 DUP1 DUP3 MSTORE PUSH1 0x39 SWAP1 DUP3 ADD MSTORE PUSH32 0x455243373231413A20617070726F76652063616C6C6572206973206E6F74206F PUSH1 0x40 DUP3 ADD MSTORE PUSH32 0x776E6572206E6F7220617070726F76656420666F7220616C6C00000000000000 PUSH1 0x60 DUP3 ADD MSTORE PUSH1 0x80 ADD SWAP1 JUMP JUMPDEST PUSH1 0x20 DUP1 DUP3 MSTORE PUSH1 0x18 SWAP1 DUP3 ADD MSTORE PUSH32 0x446576656C6F70657220616C7265616479206578697374730000000000000000 PUSH1 0x40 DUP3 ADD MSTORE PUSH1 0x60 ADD SWAP1 JUMP JUMPDEST PUSH1 0x20 DUP1 DUP3 MSTORE PUSH1 0x18 SWAP1 DUP3 ADD MSTORE PUSH32 0x446576656C6F70657220646F6573206E6F742065786973740000000000000000 PUSH1 0x40 DUP3 ADD MSTORE PUSH1 0x60 ADD SWAP1 JUMP JUMPDEST PUSH1 0x20 DUP1 DUP3 MSTORE PUSH1 0x2B SWAP1 DUP3 ADD MSTORE PUSH32 0x455243373231413A2062616C616E636520717565727920666F7220746865207A PUSH1 0x40 DUP3 ADD MSTORE PUSH11 0x65726F2061646472657373 PUSH1 0xA8 SHL PUSH1 0x60 DUP3 ADD MSTORE PUSH1 0x80 ADD SWAP1 JUMP JUMPDEST PUSH1 0x20 DUP1 DUP3 MSTORE PUSH1 0x22 SWAP1 DUP3 ADD MSTORE PUSH32 0x45434453413A20696E76616C6964207369676E6174757265202776272076616C PUSH1 0x40 DUP3 ADD MSTORE PUSH2 0x7565 PUSH1 0xF0 SHL PUSH1 0x60 DUP3 ADD MSTORE PUSH1 0x80 ADD SWAP1 JUMP JUMPDEST PUSH1 0x20 DUP1 DUP3 MSTORE PUSH1 0x26 SWAP1 DUP3 ADD MSTORE PUSH32 0x455243373231413A207472616E736665722066726F6D20696E636F7272656374 PUSH1 0x40 DUP3 ADD MSTORE PUSH6 0x1037BBB732B9 PUSH1 0xD1 SHL PUSH1 0x60 DUP3 ADD MSTORE PUSH1 0x80 ADD SWAP1 JUMP JUMPDEST PUSH1 0x20 DUP1 DUP3 MSTORE DUP2 DUP2 ADD MSTORE PUSH32 0x4F776E61626C653A2063616C6C6572206973206E6F7420746865206F776E6572 PUSH1 0x40 DUP3 ADD MSTORE PUSH1 0x60 ADD SWAP1 JUMP JUMPDEST PUSH1 0x20 DUP1 DUP3 MSTORE PUSH1 0x1A SWAP1 DUP3 ADD MSTORE PUSH32 0x455243373231413A20617070726F766520746F2063616C6C6572000000000000 PUSH1 0x40 DUP3 ADD MSTORE PUSH1 0x60 ADD SWAP1 JUMP JUMPDEST PUSH1 0x20 DUP1 DUP3 MSTORE PUSH1 0x32 SWAP1 DUP3 ADD MSTORE PUSH32 0x455243373231413A207472616E736665722063616C6C6572206973206E6F7420 PUSH1 0x40 DUP3 ADD MSTORE PUSH18 0x1BDDDB995C881B9BDC88185C1C1C9BDD9959 PUSH1 0x72 SHL PUSH1 0x60 DUP3 ADD MSTORE PUSH1 0x80 ADD SWAP1 JUMP JUMPDEST PUSH1 0x20 DUP1 DUP3 MSTORE PUSH1 0x2F SWAP1 DUP3 ADD MSTORE PUSH32 0x41646472657373206973206E6F7420616C6C6F77656420746F206D696E74206D PUSH1 0x40 DUP3 ADD MSTORE PUSH15 0x1BDC99481D1A185B8813505617D5D3 PUSH1 0x8A SHL PUSH1 0x60 DUP3 ADD MSTORE PUSH1 0x80 ADD SWAP1 JUMP JUMPDEST PUSH1 0x20 DUP1 DUP3 MSTORE PUSH1 0x22 SWAP1 DUP3 ADD MSTORE PUSH32 0x455243373231413A20617070726F76616C20746F2063757272656E74206F776E PUSH1 0x40 DUP3 ADD MSTORE PUSH2 0x32B9 PUSH1 0xF1 SHL PUSH1 0x60 DUP3 ADD MSTORE PUSH1 0x80 ADD SWAP1 JUMP JUMPDEST PUSH1 0x20 DUP1 DUP3 MSTORE PUSH1 0x14 SWAP1 DUP3 ADD MSTORE PUSH20 0x13DDDB995C88191BD95CC81B9BDD08195E1A5CDD PUSH1 0x62 SHL PUSH1 0x40 DUP3 ADD MSTORE PUSH1 0x60 ADD SWAP1 JUMP JUMPDEST PUSH1 0x20 DUP1 DUP3 MSTORE PUSH1 0x1F SWAP1 DUP3 ADD MSTORE PUSH32 0x41646472657373206973206E6F7420616C6C6F77656420746F206D696E742E00 PUSH1 0x40 DUP3 ADD MSTORE PUSH1 0x60 ADD SWAP1 JUMP JUMPDEST PUSH1 0x20 DUP1 DUP3 MSTORE PUSH1 0x33 SWAP1 DUP3 ADD MSTORE PUSH32 0x455243373231413A207472616E7366657220746F206E6F6E2045524337323152 PUSH1 0x40 DUP3 ADD MSTORE PUSH19 0x32B1B2B4BB32B91034B6B83632B6B2B73A32B9 PUSH1 0x69 SHL PUSH1 0x60 DUP3 ADD MSTORE PUSH1 0x80 ADD SWAP1 JUMP JUMPDEST PUSH1 0x20 DUP1 DUP3 MSTORE PUSH1 0x1D SWAP1 DUP3 ADD MSTORE PUSH32 0x455243373231413A20746F6B656E20616C7265616479206D696E746564000000 PUSH1 0x40 DUP3 ADD MSTORE PUSH1 0x60 ADD SWAP1 JUMP JUMPDEST PUSH1 0x20 DUP1 DUP3 MSTORE PUSH1 0x19 SWAP1 DUP3 ADD MSTORE PUSH32 0x496E636F727265637420616D6F756E74206F6620657468657200000000000000 PUSH1 0x40 DUP3 ADD MSTORE PUSH1 0x60 ADD SWAP1 JUMP JUMPDEST PUSH1 0x20 DUP1 DUP3 MSTORE PUSH1 0x21 SWAP1 DUP3 ADD MSTORE PUSH32 0x455243373231413A206D696E7420746F20746865207A65726F20616464726573 PUSH1 0x40 DUP3 ADD MSTORE PUSH1 0x73 PUSH1 0xF8 SHL PUSH1 0x60 DUP3 ADD MSTORE PUSH1 0x80 ADD SWAP1 JUMP JUMPDEST PUSH1 0x20 DUP1 DUP3 MSTORE PUSH1 0x1D SWAP1 DUP3 ADD MSTORE PUSH32 0x50726573616C652069732063757272656E746C7920696E616374697665000000 PUSH1 0x40 DUP3 ADD MSTORE PUSH1 0x60 ADD SWAP1 JUMP JUMPDEST PUSH1 0x20 DUP1 DUP3 MSTORE PUSH1 0x1E SWAP1 DUP3 ADD MSTORE PUSH32 0x416C6C204F4720746F6B656E732068617665206265656E206D696E7465640000 PUSH1 0x40 DUP3 ADD MSTORE PUSH1 0x60 ADD SWAP1 JUMP JUMPDEST PUSH1 0x20 DUP1 DUP3 MSTORE PUSH1 0x2E SWAP1 DUP3 ADD MSTORE PUSH32 0x455243373231413A20756E61626C6520746F2067657420746F6B656E206F6620 PUSH1 0x40 DUP3 ADD MSTORE PUSH14 0xDEEEDCCAE440C4F240D2DCC8CAF PUSH1 0x93 SHL PUSH1 0x60 DUP3 ADD MSTORE PUSH1 0x80 ADD SWAP1 JUMP JUMPDEST PUSH1 0x20 DUP1 DUP3 MSTORE PUSH1 0x2F SWAP1 DUP3 ADD MSTORE PUSH32 0x455243373231413A20756E61626C6520746F2064657465726D696E6520746865 PUSH1 0x40 DUP3 ADD MSTORE PUSH15 0x1037BBB732B91037B3103A37B5B2B7 PUSH1 0x89 SHL PUSH1 0x60 DUP3 ADD MSTORE PUSH1 0x80 ADD SWAP1 JUMP JUMPDEST PUSH1 0x20 DUP1 DUP3 MSTORE PUSH1 0x1B SWAP1 DUP3 ADD MSTORE PUSH32 0x416C6C20746F6B656E732068617665206265656E206D696E7465640000000000 PUSH1 0x40 DUP3 ADD MSTORE PUSH1 0x60 ADD SWAP1 JUMP JUMPDEST PUSH1 0x20 DUP1 DUP3 MSTORE PUSH1 0x2D SWAP1 DUP3 ADD MSTORE PUSH32 0x455243373231413A20617070726F76656420717565727920666F72206E6F6E65 PUSH1 0x40 DUP3 ADD MSTORE PUSH13 0x3C34B9BA32B73A103A37B5B2B7 PUSH1 0x99 SHL PUSH1 0x60 DUP3 ADD MSTORE PUSH1 0x80 ADD SWAP1 JUMP JUMPDEST PUSH1 0x20 DUP1 DUP3 MSTORE PUSH1 0x22 SWAP1 DUP3 ADD MSTORE PUSH32 0x455243373231413A207175616E7469747920746F206D696E7420746F6F206869 PUSH1 0x40 DUP3 ADD MSTORE PUSH2 0xCED PUSH1 0xF3 SHL PUSH1 0x60 DUP3 ADD MSTORE PUSH1 0x80 ADD SWAP1 JUMP JUMPDEST PUSH1 0x20 DUP1 DUP3 MSTORE PUSH1 0x21 SWAP1 DUP3 ADD MSTORE PUSH32 0x436F6E74726163747320617265206E6F7420616C6C6F77656420746F206D696E PUSH1 0x40 DUP3 ADD MSTORE PUSH1 0x1D PUSH1 0xFA SHL PUSH1 0x60 DUP3 ADD MSTORE PUSH1 0x80 ADD SWAP1 JUMP JUMPDEST PUSH2 0xFFFF SWAP2 SWAP1 SWAP2 AND DUP2 MSTORE PUSH1 0x20 ADD SWAP1 JUMP JUMPDEST PUSH1 0x0 SWAP1 DUP2 MSTORE PUSH1 0x20 SWAP1 KECCAK256 SWAP1 JUMP JUMPDEST PUSH1 0x0 PUSH1 0x1 PUSH1 0x1 PUSH1 0x80 SHL SUB DUP1 DUP4 AND DUP2 DUP6 AND DUP1 DUP4 SUB DUP3 GT ISZERO PUSH2 0x37AE JUMPI PUSH2 0x37AE PUSH2 0x38EE JUMP JUMPDEST ADD SWAP5 SWAP4 POP POP POP POP JUMP JUMPDEST PUSH1 0x0 DUP3 NOT DUP3 GT ISZERO PUSH2 0x37CA JUMPI PUSH2 0x37CA PUSH2 0x38EE JUMP JUMPDEST POP ADD SWAP1 JUMP JUMPDEST PUSH1 0x0 DUP3 PUSH2 0x37DE JUMPI PUSH2 0x37DE PUSH2 0x3904 JUMP JUMPDEST POP DIV SWAP1 JUMP JUMPDEST PUSH1 0x0 DUP2 PUSH1 0x0 NOT DIV DUP4 GT DUP3 ISZERO ISZERO AND ISZERO PUSH2 0x37FD JUMPI PUSH2 0x37FD PUSH2 0x38EE JUMP JUMPDEST POP MUL SWAP1 JUMP JUMPDEST PUSH1 0x0 PUSH1 0x1 PUSH1 0x1 PUSH1 0x80 SHL SUB DUP4 DUP2 AND SWAP1 DUP4 AND DUP2 DUP2 LT ISZERO PUSH2 0x3822 JUMPI PUSH2 0x3822 PUSH2 0x38EE JUMP JUMPDEST SUB SWAP4 SWAP3 POP POP POP JUMP JUMPDEST PUSH1 0x0 DUP3 DUP3 LT ISZERO PUSH2 0x383C JUMPI PUSH2 0x383C PUSH2 0x38EE JUMP JUMPDEST POP SUB SWAP1 JUMP JUMPDEST PUSH1 0x0 JUMPDEST DUP4 DUP2 LT ISZERO PUSH2 0x385C JUMPI DUP2 DUP2 ADD MLOAD DUP4 DUP3 ADD MSTORE PUSH1 0x20 ADD PUSH2 0x3844 JUMP JUMPDEST DUP4 DUP2 GT ISZERO PUSH2 0x13D8 JUMPI POP POP PUSH1 0x0 SWAP2 ADD MSTORE JUMP JUMPDEST PUSH1 0x0 DUP2 PUSH2 0x387C JUMPI PUSH2 0x387C PUSH2 0x38EE JUMP JUMPDEST POP PUSH1 0x0 NOT ADD SWAP1 JUMP JUMPDEST PUSH1 0x2 DUP2 DIV PUSH1 0x1 DUP3 AND DUP1 PUSH2 0x3898 JUMPI PUSH1 0x7F DUP3 AND SWAP2 POP JUMPDEST PUSH1 0x20 DUP3 LT DUP2 EQ ISZERO PUSH2 0x38B9 JUMPI PUSH4 0x4E487B71 PUSH1 0xE0 SHL PUSH1 0x0 MSTORE PUSH1 0x22 PUSH1 0x4 MSTORE PUSH1 0x24 PUSH1 0x0 REVERT JUMPDEST POP SWAP2 SWAP1 POP JUMP JUMPDEST PUSH1 0x0 PUSH1 0x0 NOT DUP3 EQ ISZERO PUSH2 0x38D3 JUMPI PUSH2 0x38D3 PUSH2 0x38EE JUMP JUMPDEST POP PUSH1 0x1 ADD SWAP1 JUMP JUMPDEST PUSH1 0x0 DUP3 PUSH2 0x38E9 JUMPI PUSH2 0x38E9 PUSH2 0x3904 JUMP JUMPDEST POP MOD SWAP1 JUMP JUMPDEST PUSH4 0x4E487B71 PUSH1 0xE0 SHL PUSH1 0x0 MSTORE PUSH1 0x11 PUSH1 0x4 MSTORE PUSH1 0x24 PUSH1 0x0 REVERT JUMPDEST PUSH4 0x4E487B71 PUSH1 0xE0 SHL PUSH1 0x0 MSTORE PUSH1 0x12 PUSH1 0x4 MSTORE PUSH1 0x24 PUSH1 0x0 REVERT JUMPDEST PUSH4 0x4E487B71 PUSH1 0xE0 SHL PUSH1 0x0 MSTORE PUSH1 0x41 PUSH1 0x4 MSTORE PUSH1 0x24 PUSH1 0x0 REVERT JUMPDEST PUSH1 0x1 PUSH1 0x1 PUSH1 0xE0 SHL SUB NOT DUP2 AND DUP2 EQ PUSH2 0xD44 JUMPI PUSH1 0x0 DUP1 REVERT INVALID LOG2 PUSH5 0x6970667358 0x22 SLT KECCAK256 0xCF 0xC3 DUP10 PUSH5 0x64EA6D2337 SWAP10 SLT 0xCC PUSH21 0xEBB69FAF5307375366232C6BF2F555331856ED6473 PUSH16 0x6C634300080100330000000000000000 "
        },
        "methodIdentifiers": {
          "BASE_URL()": "7f78636a",
          "EXTENSION()": "46f13619",
          "GIVEAWAYS()": "ce2a86f0",
          "MAX_BATCH()": "950bff9f",
          "MAX_OG()": "814a4c1e",
          "MAX_SUPPLY()": "32cb6b0c",
          "MAX_WL()": "c91d5f97",
          "PRIMARY()": "062fa1f8",
          "PROVENANCE()": "6373a6b1",
          "PUB_KEY()": "283d26ca",
          "SALE_PRICE()": "7f205a74",
          "addDev(address)": "b91d3ace",
          "addOwner(address)": "7065cb48",
          "approve(address,uint256)": "095ea7b3",
          "balanceOf(address)": "70a08231",
          "getApproved(uint256)": "081812fc",
          "isApprovedForAll(address,address)": "e985e9c5",
          "name()": "06fdde03",
          "nextOwnerToExplicitlySet()": "d7224ba0",
          "ogMint(bytes,uint256)": "607019b9",
          "owner()": "8da5cb5b",
          "ownerOf(uint256)": "6352211e",
          "paused()": "5c975abb",
          "preMint(uint256)": "8ad433ac",
          "presale(bytes,uint256)": "77cfe82b",
          "pubMint(uint256)": "c1d9df8d",
          "removeDev(address)": "c4026d7b",
          "removeOwner(address)": "173825d9",
          "renounceOwnership()": "715018a6",
          "revealed()": "51830227",
          "safeTransferFrom(address,address,uint256)": "42842e0e",
          "safeTransferFrom(address,address,uint256,bytes)": "b88d4fde",
          "sale_state()": "f5e1713e",
          "setApprovalForAll(address,bool)": "a22cb465",
          "setBaseURL(string)": "49f2553a",
          "setFreemints(address[])": "d31a2216",
          "setPrimaryAddress(address)": "d51eeafd",
          "setProvenance(string)": "ffe630b5",
          "setPubkey(address)": "d701dbee",
          "setRevealed(string,bool)": "faaaf653",
          "setSalePrice(uint256)": "1919fed7",
          "setSaleState(uint16)": "1438ddee",
          "supportsInterface(bytes4)": "01ffc9a7",
          "symbol()": "95d89b41",
          "togglePaused()": "36566f06",
          "tokenByIndex(uint256)": "4f6ccce7",
          "tokenOfOwnerByIndex(address,uint256)": "2f745c59",
          "tokenURI(uint256)": "c87b56dd",
          "totalSupply()": "18160ddd",
          "transferFrom(address,address,uint256)": "23b872dd",
          "transferOwnership(address)": "f2fde38b",
          "withdraw()": "3ccfd60b"
        }
      }
    }
  }
}