{
  "_format": "hh-sol-artifact-1",
  "contractName": "LarvaLords",
  "sourceName": "contracts/LarvaLords.sol",
  "abi": [
    {
      "inputs": [],
      "stateMutability": "nonpayable",
      "type": "constructor"
    },
    {
      "anonymous": false,
      "inputs": [
        {
          "indexed": true,
          "internalType": "address",
          "name": "owner",
          "type": "address"
        },
        {
          "indexed": true,
          "internalType": "address",
          "name": "approved",
          "type": "address"
        },
        {
          "indexed": true,
          "internalType": "uint256",
          "name": "tokenId",
          "type": "uint256"
        }
      ],
      "name": "Approval",
      "type": "event"
    },
    {
      "anonymous": false,
      "inputs": [
        {
          "indexed": true,
          "internalType": "address",
          "name": "owner",
          "type": "address"
        },
        {
          "indexed": true,
          "internalType": "address",
          "name": "operator",
          "type": "address"
        },
        {
          "indexed": false,
          "internalType": "bool",
          "name": "approved",
          "type": "bool"
        }
      ],
      "name": "ApprovalForAll",
      "type": "event"
    },
    {
      "anonymous": false,
      "inputs": [
        {
          "indexed": true,
          "internalType": "address",
          "name": "previousOwner",
          "type": "address"
        },
        {
          "indexed": true,
          "internalType": "address",
          "name": "newOwner",
          "type": "address"
        }
      ],
      "name": "OwnershipTransferred",
      "type": "event"
    },
    {
      "anonymous": false,
      "inputs": [
        {
          "indexed": true,
          "internalType": "address",
          "name": "from",
          "type": "address"
        },
        {
          "indexed": true,
          "internalType": "address",
          "name": "to",
          "type": "address"
        },
        {
          "indexed": true,
          "internalType": "uint256",
          "name": "tokenId",
          "type": "uint256"
        }
      ],
      "name": "Transfer",
      "type": "event"
    },
    {
      "inputs": [],
      "name": "BASE_URL",
      "outputs": [
        {
          "internalType": "string",
          "name": "",
          "type": "string"
        }
      ],
      "stateMutability": "view",
      "type": "function"
    },
    {
      "inputs": [],
      "name": "EXTENSION",
      "outputs": [
        {
          "internalType": "bytes32",
          "name": "",
          "type": "bytes32"
        }
      ],
      "stateMutability": "view",
      "type": "function"
    },
    {
      "inputs": [],
      "name": "MAX_BATCH",
      "outputs": [
        {
          "internalType": "uint256",
          "name": "",
          "type": "uint256"
        }
      ],
      "stateMutability": "view",
      "type": "function"
    },
    {
      "inputs": [],
      "name": "MAX_SUPPLY",
      "outputs": [
        {
          "internalType": "uint256",
          "name": "",
          "type": "uint256"
        }
      ],
      "stateMutability": "view",
      "type": "function"
    },
    {
      "inputs": [],
      "name": "SALE_PRICE",
      "outputs": [
        {
          "internalType": "uint256",
          "name": "",
          "type": "uint256"
        }
      ],
      "stateMutability": "view",
      "type": "function"
    },
    {
      "inputs": [],
      "name": "_tokenIds",
      "outputs": [
        {
          "internalType": "uint256",
          "name": "",
          "type": "uint256"
        }
      ],
      "stateMutability": "view",
      "type": "function"
    },
    {
      "inputs": [],
      "name": "active",
      "outputs": [
        {
          "internalType": "bool",
          "name": "",
          "type": "bool"
        }
      ],
      "stateMutability": "view",
      "type": "function"
    },
    {
      "inputs": [
        {
          "internalType": "address",
          "name": "to",
          "type": "address"
        },
        {
          "internalType": "uint256",
          "name": "tokenId",
          "type": "uint256"
        }
      ],
      "name": "approve",
      "outputs": [],
      "stateMutability": "nonpayable",
      "type": "function"
    },
    {
      "inputs": [
        {
          "internalType": "address",
          "name": "owner",
          "type": "address"
        }
      ],
      "name": "balanceOf",
      "outputs": [
        {
          "internalType": "uint256",
          "name": "",
          "type": "uint256"
        }
      ],
      "stateMutability": "view",
      "type": "function"
    },
    {
      "inputs": [],
      "name": "founder",
      "outputs": [
        {
          "internalType": "address",
          "name": "",
          "type": "address"
        }
      ],
      "stateMutability": "view",
      "type": "function"
    },
    {
      "inputs": [
        {
          "internalType": "uint256",
          "name": "tokenId",
          "type": "uint256"
        }
      ],
      "name": "getApproved",
      "outputs": [
        {
          "internalType": "address",
          "name": "",
          "type": "address"
        }
      ],
      "stateMutability": "view",
      "type": "function"
    },
    {
      "inputs": [
        {
          "internalType": "address",
          "name": "owner",
          "type": "address"
        },
        {
          "internalType": "address",
          "name": "operator",
          "type": "address"
        }
      ],
      "name": "isApprovedForAll",
      "outputs": [
        {
          "internalType": "bool",
          "name": "",
          "type": "bool"
        }
      ],
      "stateMutability": "view",
      "type": "function"
    },
    {
      "inputs": [
        {
          "internalType": "uint256",
          "name": "quantity",
          "type": "uint256"
        }
      ],
      "name": "mint",
      "outputs": [],
      "stateMutability": "payable",
      "type": "function"
    },
    {
      "inputs": [],
      "name": "name",
      "outputs": [
        {
          "internalType": "string",
          "name": "",
          "type": "string"
        }
      ],
      "stateMutability": "view",
      "type": "function"
    },
    {
      "inputs": [],
      "name": "owner",
      "outputs": [
        {
          "internalType": "address",
          "name": "",
          "type": "address"
        }
      ],
      "stateMutability": "view",
      "type": "function"
    },
    {
      "inputs": [
        {
          "internalType": "uint256",
          "name": "tokenId",
          "type": "uint256"
        }
      ],
      "name": "ownerOf",
      "outputs": [
        {
          "internalType": "address",
          "name": "",
          "type": "address"
        }
      ],
      "stateMutability": "view",
      "type": "function"
    },
    {
      "inputs": [],
      "name": "paused",
      "outputs": [
        {
          "internalType": "bool",
          "name": "",
          "type": "bool"
        }
      ],
      "stateMutability": "view",
      "type": "function"
    },
    {
      "inputs": [],
      "name": "renounceOwnership",
      "outputs": [],
      "stateMutability": "nonpayable",
      "type": "function"
    },
    {
      "inputs": [
        {
          "internalType": "address",
          "name": "from",
          "type": "address"
        },
        {
          "internalType": "address",
          "name": "to",
          "type": "address"
        },
        {
          "internalType": "uint256",
          "name": "tokenId",
          "type": "uint256"
        }
      ],
      "name": "safeTransferFrom",
      "outputs": [],
      "stateMutability": "nonpayable",
      "type": "function"
    },
    {
      "inputs": [
        {
          "internalType": "address",
          "name": "from",
          "type": "address"
        },
        {
          "internalType": "address",
          "name": "to",
          "type": "address"
        },
        {
          "internalType": "uint256",
          "name": "tokenId",
          "type": "uint256"
        },
        {
          "internalType": "bytes",
          "name": "_data",
          "type": "bytes"
        }
      ],
      "name": "safeTransferFrom",
      "outputs": [],
      "stateMutability": "nonpayable",
      "type": "function"
    },
    {
      "inputs": [
        {
          "internalType": "address",
          "name": "operator",
          "type": "address"
        },
        {
          "internalType": "bool",
          "name": "approved",
          "type": "bool"
        }
      ],
      "name": "setApprovalForAll",
      "outputs": [],
      "stateMutability": "nonpayable",
      "type": "function"
    },
    {
      "inputs": [
        {
          "internalType": "bool",
          "name": "_state",
          "type": "bool"
        }
      ],
      "name": "setPaused",
      "outputs": [],
      "stateMutability": "nonpayable",
      "type": "function"
    },
    {
      "inputs": [
        {
          "internalType": "string",
          "name": "_url",
          "type": "string"
        },
        {
          "internalType": "bool",
          "name": "_active",
          "type": "bool"
        }
      ],
      "name": "setPublicSale",
      "outputs": [],
      "stateMutability": "nonpayable",
      "type": "function"
    },
    {
      "inputs": [],
      "name": "setStartingBlock",
      "outputs": [],
      "stateMutability": "nonpayable",
      "type": "function"
    },
    {
      "inputs": [],
      "name": "setStartingIdx",
      "outputs": [],
      "stateMutability": "nonpayable",
      "type": "function"
    },
    {
      "inputs": [],
      "name": "starting_idx",
      "outputs": [
        {
          "internalType": "uint256",
          "name": "",
          "type": "uint256"
        }
      ],
      "stateMutability": "view",
      "type": "function"
    },
    {
      "inputs": [
        {
          "internalType": "bytes4",
          "name": "interfaceId",
          "type": "bytes4"
        }
      ],
      "name": "supportsInterface",
      "outputs": [
        {
          "internalType": "bool",
          "name": "",
          "type": "bool"
        }
      ],
      "stateMutability": "view",
      "type": "function"
    },
    {
      "inputs": [],
      "name": "symbol",
      "outputs": [
        {
          "internalType": "string",
          "name": "",
          "type": "string"
        }
      ],
      "stateMutability": "view",
      "type": "function"
    },
    {
      "inputs": [
        {
          "internalType": "uint256",
          "name": "_tokenId",
          "type": "uint256"
        }
      ],
      "name": "tokenURI",
      "outputs": [
        {
          "internalType": "string",
          "name": "",
          "type": "string"
        }
      ],
      "stateMutability": "view",
      "type": "function"
    },
    {
      "inputs": [
        {
          "internalType": "address",
          "name": "from",
          "type": "address"
        },
        {
          "internalType": "address",
          "name": "to",
          "type": "address"
        },
        {
          "internalType": "uint256",
          "name": "tokenId",
          "type": "uint256"
        }
      ],
      "name": "transferFrom",
      "outputs": [],
      "stateMutability": "nonpayable",
      "type": "function"
    },
    {
      "inputs": [
        {
          "internalType": "address",
          "name": "newOwner",
          "type": "address"
        }
      ],
      "name": "transferOwnership",
      "outputs": [],
      "stateMutability": "nonpayable",
      "type": "function"
    },
    {
      "inputs": [],
      "name": "withdraw",
      "outputs": [],
      "stateMutability": "payable",
      "type": "function"
    }
  ],
  "bytecode": "0x6080604052611538600755600a600855661c6bf52634000060095564173539b7b760d91b600f55601080546001600160a01b031916730200e96f5253edd00769e443ec904bc3fa1ce0fc1790553480156200005957600080fd5b50604080518082018252600b81526a4c61727661204c6f72647360a81b6020808301918252835180850190945260058452644c4152564160d81b908401528151919291620000aa9160009162000139565b508051620000c090600190602084019062000139565b505050620000dd620000d7620000e360201b60201c565b620000e7565b6200021c565b3390565b600680546001600160a01b038381166001600160a01b0319831681179093556040519116919082907f8be0079c531659141344cd1fd0a4f28419497f9722a3daafe3b4186f6b6457e090600090a35050565b8280546200014790620001df565b90600052602060002090601f0160209004810192826200016b5760008555620001b6565b82601f106200018657805160ff1916838001178555620001b6565b82800160010185558215620001b6579182015b82811115620001b657825182559160200191906001019062000199565b50620001c4929150620001c8565b5090565b5b80821115620001c45760008155600101620001c9565b600281046001821680620001f457607f821691505b602082108114156200021657634e487b7160e01b600052602260045260246000fd5b50919050565b6120e7806200022c6000396000f3fe6080604052600436106101e35760003560e01c806370a0823111610102578063a0712d6811610095578063c87b56dd11610064578063c87b56dd146104dd578063e985e9c5146104fd578063f2fde38b1461051d578063f41fbd5e1461053d576101e3565b8063a0712d6814610475578063a22cb46514610488578063aa46a400146104a8578063b88d4fde146104bd576101e3565b80637f78636a116100d15780637f78636a146104215780638da5cb5b14610436578063950bff9f1461044b57806395d89b4114610460576101e3565b806370a08231146103c2578063715018a6146103e257806377106000146103f75780637f205a741461040c576101e3565b806323b872dd1161017a57806346f136191161014957806346f13619146103635780634d853ee5146103785780635c975abb1461038d5780636352211e146103a2576101e3565b806323b872dd146102f957806332cb6b0c146103195780633ccfd60b1461033b57806342842e0e14610343576101e3565b8063095ea7b3116101b6578063095ea7b314610282578063162aaab9146102a457806316c38b3c146102c457806318509269146102e4576101e3565b806301ffc9a7146101e857806302fb0c5e1461021e57806306fdde0314610233578063081812fc14610255575b600080fd5b3480156101f457600080fd5b50610208610203366004611731565b610552565b604051610215919061191e565b60405180910390f35b34801561022a57600080fd5b5061020861059a565b34801561023f57600080fd5b506102486105a3565b6040516102159190611932565b34801561026157600080fd5b506102756102703660046117bf565b610635565b60405161021591906118cd565b34801561028e57600080fd5b506102a261029d3660046116ee565b610681565b005b3480156102b057600080fd5b506102a26102bf366004611769565b610719565b3480156102d057600080fd5b506102a26102df366004611717565b610779565b3480156102f057600080fd5b506102a26107d2565b34801561030557600080fd5b506102a2610314366004611611565b610846565b34801561032557600080fd5b5061032e61087e565b6040516102159190611929565b6102a2610884565b34801561034f57600080fd5b506102a261035e366004611611565b610934565b34801561036f57600080fd5b5061032e61094f565b34801561038457600080fd5b50610275610955565b34801561039957600080fd5b50610208610964565b3480156103ae57600080fd5b506102756103bd3660046117bf565b610972565b3480156103ce57600080fd5b5061032e6103dd3660046115be565b6109a7565b3480156103ee57600080fd5b506102a26109eb565b34801561040357600080fd5b506102a2610a36565b34801561041857600080fd5b5061032e610a9b565b34801561042d57600080fd5b50610248610aa1565b34801561044257600080fd5b50610275610b2f565b34801561045757600080fd5b5061032e610b3e565b34801561046c57600080fd5b50610248610b44565b6102a26104833660046117bf565b610b53565b34801561049457600080fd5b506102a26104a33660046116c5565b610c91565b3480156104b457600080fd5b5061032e610ca3565b3480156104c957600080fd5b506102a26104d836600461164c565b610ca9565b3480156104e957600080fd5b506102486104f83660046117bf565b610ce8565b34801561050957600080fd5b506102086105183660046115df565b610d20565b34801561052957600080fd5b506102a26105383660046115be565b610d4e565b34801561054957600080fd5b5061032e610dbc565b60006001600160e01b031982166380ac58cd60e01b148061058357506001600160e01b03198216635b5e139f60e01b145b80610592575061059282610dc2565b90505b919050565b600b5460ff1681565b6060600080546105b290611fef565b80601f01602080910402602001604051908101604052809291908181526020018280546105de90611fef565b801561062b5780601f106106005761010080835404028352916020019161062b565b820191906000526020600020905b81548152906001019060200180831161060e57829003601f168201915b5050505050905090565b600061064082610ddb565b6106655760405162461bcd60e51b815260040161065c90611c98565b60405180910390fd5b506000908152600460205260409020546001600160a01b031690565b600061068c82610972565b9050806001600160a01b0316836001600160a01b031614156106c05760405162461bcd60e51b815260040161065c90611d99565b806001600160a01b03166106d2610df8565b6001600160a01b031614806106ee57506106ee81610518610df8565b61070a5760405162461bcd60e51b815260040161065c90611b29565b6107148383610dfc565b505050565b610721610df8565b6001600160a01b0316610732610b2f565b6001600160a01b0316146107585760405162461bcd60e51b815260040161065c90611ce4565b600b805460ff1916821515179055815161071490600e90602085019061148e565b610781610df8565b6001600160a01b0316610792610b2f565b6001600160a01b0316146107b85760405162461bcd60e51b815260040161065c90611ce4565b600b80549115156101000261ff0019909216919091179055565b6107da610df8565b6001600160a01b03166107eb610b2f565b6001600160a01b0316146108115760405162461bcd60e51b815260040161065c90611ce4565b600d546108305760405162461bcd60e51b815260040161065c90611f1e565b600754600d54610841919040612045565b600c55565b610857610851610df8565b82610e6a565b6108735760405162461bcd60e51b815260040161065c90611dda565b610714838383610eef565b60075481565b61088c610df8565b6001600160a01b031661089d610b2f565b6001600160a01b0316146108c35760405162461bcd60e51b815260040161065c90611ce4565b6010546040516000916001600160a01b03169047906108e1906118ca565b60006040518083038185875af1925050503d806000811461091e576040519150601f19603f3d011682016040523d82523d6000602084013e610923565b606091505b505090508061093157600080fd5b50565b61071483838360405180602001604052806000815250610ca9565b600f5481565b6010546001600160a01b031681565b600b54610100900460ff1681565b6000818152600260205260408120546001600160a01b0316806105925760405162461bcd60e51b815260040161065c90611bd0565b60006001600160a01b0382166109cf5760405162461bcd60e51b815260040161065c90611b86565b506001600160a01b031660009081526003602052604090205490565b6109f3610df8565b6001600160a01b0316610a04610b2f565b6001600160a01b031614610a2a5760405162461bcd60e51b815260040161065c90611ce4565b610a34600061101c565b565b610a3e610df8565b6001600160a01b0316610a4f610b2f565b6001600160a01b031614610a755760405162461bcd60e51b815260040161065c90611ce4565b600d5415610a955760405162461bcd60e51b815260040161065c90611e62565b43600d55565b60095481565b600e8054610aae90611fef565b80601f0160208091040260200160405190810160405280929190818152602001828054610ada90611fef565b8015610b275780601f10610afc57610100808354040283529160200191610b27565b820191906000526020600020905b815481529060010190602001808311610b0a57829003601f168201915b505050505081565b6006546001600160a01b031690565b60085481565b6060600180546105b290611fef565b600b54610100900460ff1615610b6857600080fd5b600b5460ff16610b8a5760405162461bcd60e51b815260040161065c90611d62565b323314610ba95760405162461bcd60e51b815260040161065c90611edd565b600854811115610bcb5760405162461bcd60e51b815260040161065c90611adb565b80600954610bd99190611f8d565b3414610bf75760405162461bcd60e51b815260040161065c90611e2b565b600754600a5410610c1a5760405162461bcd60e51b815260040161065c90611ea6565b60075481600a54610c2b9190611f61565b1115610c495760405162461bcd60e51b815260040161065c90611c19565b60005b81811015610c8d57610c6533610c6061106e565b61109d565b600a8054906000610c758361202a565b91905055508080610c859061202a565b915050610c4c565b5050565b610c8d610c9c610df8565b838361117c565b600a5481565b610cba610cb4610df8565b83610e6a565b610cd65760405162461bcd60e51b815260040161065c90611dda565b610ce28484848461121f565b50505050565b6060600e610cf583611252565b600f54604051602001610d0a9392919061181f565b6040516020818303038152906040529050919050565b6001600160a01b03918216600090815260056020908152604080832093909416825291909152205460ff1690565b610d56610df8565b6001600160a01b0316610d67610b2f565b6001600160a01b031614610d8d5760405162461bcd60e51b815260040161065c90611ce4565b6001600160a01b038116610db35760405162461bcd60e51b815260040161065c90611997565b6109318161101c565b600c5481565b6001600160e01b031981166301ffc9a760e01b14919050565b6000908152600260205260409020546001600160a01b0316151590565b3390565b600081815260046020526040902080546001600160a01b0319166001600160a01b0384169081179091558190610e3182610972565b6001600160a01b03167f8c5be1e5ebec7d5bd14f71427d1e84f3dd0314c0f7b2291e5b200ac8c7c3b92560405160405180910390a45050565b6000610e7582610ddb565b610e915760405162461bcd60e51b815260040161065c90611a8f565b6000610e9c83610972565b9050806001600160a01b0316846001600160a01b03161480610ed75750836001600160a01b0316610ecc84610635565b6001600160a01b0316145b80610ee75750610ee78185610d20565b949350505050565b826001600160a01b0316610f0282610972565b6001600160a01b031614610f285760405162461bcd60e51b815260040161065c90611d19565b6001600160a01b038216610f4e5760405162461bcd60e51b815260040161065c90611a14565b610f59838383610714565b610f64600082610dfc565b6001600160a01b0383166000908152600360205260408120805460019290610f8d908490611fac565b90915550506001600160a01b0382166000908152600360205260408120805460019290610fbb908490611f61565b909155505060008181526002602052604080822080546001600160a01b0319166001600160a01b0386811691821790925591518493918716917fddf252ad1be2c89b69c2b068fc378daa952ba7f163c4a11628f55a4df523b3ef91a4505050565b600680546001600160a01b038381166001600160a01b0319831681179093556040519116919082907f8be0079c531659141344cd1fd0a4f28419497f9722a3daafe3b4186f6b6457e090600090a35050565b6000600754600c54600a546110839190611f61565b61108d9190612045565b611098906001611f61565b905090565b6001600160a01b0382166110c35760405162461bcd60e51b815260040161065c90611c63565b6110cc81610ddb565b156110e95760405162461bcd60e51b815260040161065c906119dd565b6110f560008383610714565b6001600160a01b038216600090815260036020526040812080546001929061111e908490611f61565b909155505060008181526002602052604080822080546001600160a01b0319166001600160a01b03861690811790915590518392907fddf252ad1be2c89b69c2b068fc378daa952ba7f163c4a11628f55a4df523b3ef908290a45050565b816001600160a01b0316836001600160a01b031614156111ae5760405162461bcd60e51b815260040161065c90611a58565b6001600160a01b0383811660008181526005602090815260408083209487168084529490915290819020805460ff1916851515179055517f17307eab39ab6107e8899845ad3d59bd9653f200f220920489ca2b5937696c319061121290859061191e565b60405180910390a3505050565b61122a848484610eef565b6112368484848461136d565b610ce25760405162461bcd60e51b815260040161065c90611945565b60608161127757506040805180820190915260018152600360fc1b6020820152610595565b8160005b81156112a1578061128b8161202a565b915061129a9050600a83611f79565b915061127b565b60008167ffffffffffffffff8111156112ca57634e487b7160e01b600052604160045260246000fd5b6040519080825280601f01601f1916602001820160405280156112f4576020820181803683370190505b5090505b8415610ee757611309600183611fac565b9150611316600a86612045565b611321906030611f61565b60f81b81838151811061134457634e487b7160e01b600052603260045260246000fd5b60200101906001600160f81b031916908160001a905350611366600a86611f79565b94506112f8565b6000611381846001600160a01b0316611488565b1561147d57836001600160a01b031663150b7a0261139d610df8565b8786866040518563ffffffff1660e01b81526004016113bf94939291906118e1565b602060405180830381600087803b1580156113d957600080fd5b505af1925050508015611409575060408051601f3d908101601f191682019092526114069181019061174d565b60015b611463573d808015611437576040519150601f19603f3d011682016040523d82523d6000602084013e61143c565b606091505b50805161145b5760405162461bcd60e51b815260040161065c90611945565b805181602001fd5b6001600160e01b031916630a85bd0160e11b149050610ee7565b506001949350505050565b3b151590565b82805461149a90611fef565b90600052602060002090601f0160209004810192826114bc5760008555611502565b82601f106114d557805160ff1916838001178555611502565b82800160010185558215611502579182015b828111156115025782518255916020019190600101906114e7565b5061150e929150611512565b5090565b5b8082111561150e5760008155600101611513565b600067ffffffffffffffff8084111561154257611542612085565b604051601f8501601f19168101602001828111828210171561156657611566612085565b60405284815291508183850186101561157e57600080fd5b8484602083013760006020868301015250509392505050565b80356001600160a01b038116811461059557600080fd5b8035801515811461059557600080fd5b6000602082840312156115cf578081fd5b6115d882611597565b9392505050565b600080604083850312156115f1578081fd5b6115fa83611597565b915061160860208401611597565b90509250929050565b600080600060608486031215611625578081fd5b61162e84611597565b925061163c60208501611597565b9150604084013590509250925092565b60008060008060808587031215611661578081fd5b61166a85611597565b935061167860208601611597565b925060408501359150606085013567ffffffffffffffff81111561169a578182fd5b8501601f810187136116aa578182fd5b6116b987823560208401611527565b91505092959194509250565b600080604083850312156116d7578182fd5b6116e083611597565b9150611608602084016115ae565b60008060408385031215611700578182fd5b61170983611597565b946020939093013593505050565b600060208284031215611728578081fd5b6115d8826115ae565b600060208284031215611742578081fd5b81356115d88161209b565b60006020828403121561175e578081fd5b81516115d88161209b565b6000806040838503121561177b578182fd5b823567ffffffffffffffff811115611791578283fd5b8301601f810185136117a1578283fd5b6117b085823560208401611527565b925050611608602084016115ae565b6000602082840312156117d0578081fd5b5035919050565b600081518084526117ef816020860160208601611fc3565b601f01601f19169290920160200192915050565b60008151611815818560208601611fc3565b9290920192915050565b835460009081906002810460018083168061183b57607f831692505b602080841082141561185b57634e487b7160e01b87526022600452602487fd5b81801561186f5760018114611880576118ac565b60ff198616895284890196506118ac565b6118898c611f55565b885b868110156118a45781548b82015290850190830161188b565b505084890196505b506118b7868b611803565b9889529097019998505050505050505050565b90565b6001600160a01b0391909116815260200190565b6001600160a01b0385811682528416602082015260408101839052608060608201819052600090611914908301846117d7565b9695505050505050565b901515815260200190565b90815260200190565b6000602082526115d860208301846117d7565b60208082526032908201527f4552433732313a207472616e7366657220746f206e6f6e20455243373231526560408201527131b2b4bb32b91034b6b83632b6b2b73a32b960711b606082015260800190565b60208082526026908201527f4f776e61626c653a206e6577206f776e657220697320746865207a65726f206160408201526564647265737360d01b606082015260800190565b6020808252601c908201527f4552433732313a20746f6b656e20616c7265616479206d696e74656400000000604082015260600190565b60208082526024908201527f4552433732313a207472616e7366657220746f20746865207a65726f206164646040820152637265737360e01b606082015260800190565b60208082526019908201527f4552433732313a20617070726f766520746f2063616c6c657200000000000000604082015260600190565b6020808252602c908201527f4552433732313a206f70657261746f7220717565727920666f72206e6f6e657860408201526b34b9ba32b73a103a37b5b2b760a11b606082015260800190565b6020808252602e908201527f4f6e6c7920616c6c6f77656420746f206d696e7420313020746f6b656e73207060408201526d32b9103a3930b739b0b1ba34b7b760911b606082015260800190565b60208082526038908201527f4552433732313a20617070726f76652063616c6c6572206973206e6f74206f7760408201527f6e6572206e6f7220617070726f76656420666f7220616c6c0000000000000000606082015260800190565b6020808252602a908201527f4552433732313a2062616c616e636520717565727920666f7220746865207a65604082015269726f206164647265737360b01b606082015260800190565b60208082526029908201527f4552433732313a206f776e657220717565727920666f72206e6f6e657869737460408201526832b73a103a37b5b2b760b91b606082015260800190565b6020808252602a908201527f507572636861736520776f756c6420657863656564206d617820737570706c79604082015269206f6620746f6b656e7360b01b606082015260800190565b6020808252818101527f4552433732313a206d696e7420746f20746865207a65726f2061646472657373604082015260600190565b6020808252602c908201527f4552433732313a20617070726f76656420717565727920666f72206e6f6e657860408201526b34b9ba32b73a103a37b5b2b760a11b606082015260800190565b6020808252818101527f4f776e61626c653a2063616c6c6572206973206e6f7420746865206f776e6572604082015260600190565b60208082526029908201527f4552433732313a207472616e73666572206f6620746f6b656e2074686174206960408201526839903737ba1037bbb760b91b606082015260800190565b6020808252601a908201527f53616c652069732063757272656e746c7920696e616374697665000000000000604082015260600190565b60208082526021908201527f4552433732313a20617070726f76616c20746f2063757272656e74206f776e656040820152603960f91b606082015260800190565b60208082526031908201527f4552433732313a207472616e736665722063616c6c6572206973206e6f74206f6040820152701ddb995c881b9bdc88185c1c1c9bdd9959607a1b606082015260800190565b60208082526019908201527f496e636f727265637420616d6f756e74206f6620657468657200000000000000604082015260600190565b60208082526024908201527f5374617274696e6720626c6f636b2068617320616c7265616479206265656e2060408201526339b2ba1760e11b606082015260800190565b6020808252601b908201527f416c6c20746f6b656e732068617665206265656e206d696e7465640000000000604082015260600190565b60208082526021908201527f436f6e74726163747320617265206e6f7420616c6c6f77656420746f206d696e6040820152601d60fa1b606082015260800190565b6020808252601b908201527f5374617274696e6720626c6f636b206d757374206265207365742e0000000000604082015260600190565b60009081526020902090565b60008219821115611f7457611f74612059565b500190565b600082611f8857611f8861206f565b500490565b6000816000190483118215151615611fa757611fa7612059565b500290565b600082821015611fbe57611fbe612059565b500390565b60005b83811015611fde578181015183820152602001611fc6565b83811115610ce25750506000910152565b60028104600182168061200357607f821691505b6020821081141561202457634e487b7160e01b600052602260045260246000fd5b50919050565b600060001982141561203e5761203e612059565b5060010190565b6000826120545761205461206f565b500690565b634e487b7160e01b600052601160045260246000fd5b634e487b7160e01b600052601260045260246000fd5b634e487b7160e01b600052604160045260246000fd5b6001600160e01b03198116811461093157600080fdfea2646970667358221220e1c2b5eed2d4e28ce165d00b38d983d7c1b751d0b1659f02925aef117c36201764736f6c63430008000033",
  "linkReferences": {},
  "deployedLinkReferences": {}
}