{
  "_format": "hh-sol-artifact-1",
  "contractName": "LarvaLords",
  "sourceName": "contracts/LarvaLords.sol",
  "abi": [
    {
      "inputs": [],
      "stateMutability": "nonpayable",
      "type": "constructor"
    },
    {
      "anonymous": false,
      "inputs": [
        {
          "indexed": true,
          "internalType": "address",
          "name": "owner",
          "type": "address"
        },
        {
          "indexed": true,
          "internalType": "address",
          "name": "approved",
          "type": "address"
        },
        {
          "indexed": true,
          "internalType": "uint256",
          "name": "tokenId",
          "type": "uint256"
        }
      ],
      "name": "Approval",
      "type": "event"
    },
    {
      "anonymous": false,
      "inputs": [
        {
          "indexed": true,
          "internalType": "address",
          "name": "owner",
          "type": "address"
        },
        {
          "indexed": true,
          "internalType": "address",
          "name": "operator",
          "type": "address"
        },
        {
          "indexed": false,
          "internalType": "bool",
          "name": "approved",
          "type": "bool"
        }
      ],
      "name": "ApprovalForAll",
      "type": "event"
    },
    {
      "anonymous": false,
      "inputs": [
        {
          "indexed": true,
          "internalType": "address",
          "name": "previousOwner",
          "type": "address"
        },
        {
          "indexed": true,
          "internalType": "address",
          "name": "newOwner",
          "type": "address"
        }
      ],
      "name": "OwnershipTransferred",
      "type": "event"
    },
    {
      "anonymous": false,
      "inputs": [
        {
          "indexed": true,
          "internalType": "address",
          "name": "from",
          "type": "address"
        },
        {
          "indexed": true,
          "internalType": "address",
          "name": "to",
          "type": "address"
        },
        {
          "indexed": true,
          "internalType": "uint256",
          "name": "tokenId",
          "type": "uint256"
        }
      ],
      "name": "Transfer",
      "type": "event"
    },
    {
      "inputs": [],
      "name": "BASE_URL",
      "outputs": [
        {
          "internalType": "string",
          "name": "",
          "type": "string"
        }
      ],
      "stateMutability": "view",
      "type": "function"
    },
    {
      "inputs": [],
      "name": "EXTENSION",
      "outputs": [
        {
          "internalType": "bytes32",
          "name": "",
          "type": "bytes32"
        }
      ],
      "stateMutability": "view",
      "type": "function"
    },
    {
      "inputs": [],
      "name": "MAX_BATCH",
      "outputs": [
        {
          "internalType": "uint256",
          "name": "",
          "type": "uint256"
        }
      ],
      "stateMutability": "view",
      "type": "function"
    },
    {
      "inputs": [],
      "name": "MAX_SUPPLY",
      "outputs": [
        {
          "internalType": "uint256",
          "name": "",
          "type": "uint256"
        }
      ],
      "stateMutability": "view",
      "type": "function"
    },
    {
      "inputs": [],
      "name": "PRESALE_SUPPLY",
      "outputs": [
        {
          "internalType": "uint256",
          "name": "",
          "type": "uint256"
        }
      ],
      "stateMutability": "view",
      "type": "function"
    },
    {
      "inputs": [],
      "name": "SALE_PRICE",
      "outputs": [
        {
          "internalType": "uint256",
          "name": "",
          "type": "uint256"
        }
      ],
      "stateMutability": "view",
      "type": "function"
    },
    {
      "inputs": [],
      "name": "_tokenIds",
      "outputs": [
        {
          "internalType": "uint256",
          "name": "",
          "type": "uint256"
        }
      ],
      "stateMutability": "view",
      "type": "function"
    },
    {
      "inputs": [],
      "name": "active",
      "outputs": [
        {
          "internalType": "bool",
          "name": "",
          "type": "bool"
        }
      ],
      "stateMutability": "view",
      "type": "function"
    },
    {
      "inputs": [
        {
          "internalType": "address",
          "name": "to",
          "type": "address"
        },
        {
          "internalType": "uint256",
          "name": "tokenId",
          "type": "uint256"
        }
      ],
      "name": "approve",
      "outputs": [],
      "stateMutability": "nonpayable",
      "type": "function"
    },
    {
      "inputs": [
        {
          "internalType": "address",
          "name": "owner",
          "type": "address"
        }
      ],
      "name": "balanceOf",
      "outputs": [
        {
          "internalType": "uint256",
          "name": "",
          "type": "uint256"
        }
      ],
      "stateMutability": "view",
      "type": "function"
    },
    {
      "inputs": [
        {
          "internalType": "uint256",
          "name": "tokenId",
          "type": "uint256"
        }
      ],
      "name": "getApproved",
      "outputs": [
        {
          "internalType": "address",
          "name": "",
          "type": "address"
        }
      ],
      "stateMutability": "view",
      "type": "function"
    },
    {
      "inputs": [
        {
          "internalType": "address",
          "name": "owner",
          "type": "address"
        },
        {
          "internalType": "address",
          "name": "operator",
          "type": "address"
        }
      ],
      "name": "isApprovedForAll",
      "outputs": [
        {
          "internalType": "bool",
          "name": "",
          "type": "bool"
        }
      ],
      "stateMutability": "view",
      "type": "function"
    },
    {
      "inputs": [
        {
          "internalType": "uint256",
          "name": "quantity",
          "type": "uint256"
        }
      ],
      "name": "mint",
      "outputs": [],
      "stateMutability": "payable",
      "type": "function"
    },
    {
      "inputs": [],
      "name": "name",
      "outputs": [
        {
          "internalType": "string",
          "name": "",
          "type": "string"
        }
      ],
      "stateMutability": "view",
      "type": "function"
    },
    {
      "inputs": [],
      "name": "owner",
      "outputs": [
        {
          "internalType": "address",
          "name": "",
          "type": "address"
        }
      ],
      "stateMutability": "view",
      "type": "function"
    },
    {
      "inputs": [
        {
          "internalType": "uint256",
          "name": "tokenId",
          "type": "uint256"
        }
      ],
      "name": "ownerOf",
      "outputs": [
        {
          "internalType": "address",
          "name": "",
          "type": "address"
        }
      ],
      "stateMutability": "view",
      "type": "function"
    },
    {
      "inputs": [],
      "name": "paused",
      "outputs": [
        {
          "internalType": "bool",
          "name": "",
          "type": "bool"
        }
      ],
      "stateMutability": "view",
      "type": "function"
    },
    {
      "inputs": [],
      "name": "preMint",
      "outputs": [],
      "stateMutability": "payable",
      "type": "function"
    },
    {
      "inputs": [],
      "name": "primary",
      "outputs": [
        {
          "internalType": "address",
          "name": "",
          "type": "address"
        }
      ],
      "stateMutability": "view",
      "type": "function"
    },
    {
      "inputs": [],
      "name": "pubkey",
      "outputs": [
        {
          "internalType": "address",
          "name": "",
          "type": "address"
        }
      ],
      "stateMutability": "view",
      "type": "function"
    },
    {
      "inputs": [],
      "name": "renounceOwnership",
      "outputs": [],
      "stateMutability": "nonpayable",
      "type": "function"
    },
    {
      "inputs": [
        {
          "internalType": "address",
          "name": "from",
          "type": "address"
        },
        {
          "internalType": "address",
          "name": "to",
          "type": "address"
        },
        {
          "internalType": "uint256",
          "name": "tokenId",
          "type": "uint256"
        }
      ],
      "name": "safeTransferFrom",
      "outputs": [],
      "stateMutability": "nonpayable",
      "type": "function"
    },
    {
      "inputs": [
        {
          "internalType": "address",
          "name": "from",
          "type": "address"
        },
        {
          "internalType": "address",
          "name": "to",
          "type": "address"
        },
        {
          "internalType": "uint256",
          "name": "tokenId",
          "type": "uint256"
        },
        {
          "internalType": "bytes",
          "name": "_data",
          "type": "bytes"
        }
      ],
      "name": "safeTransferFrom",
      "outputs": [],
      "stateMutability": "nonpayable",
      "type": "function"
    },
    {
      "inputs": [
        {
          "internalType": "address",
          "name": "operator",
          "type": "address"
        },
        {
          "internalType": "bool",
          "name": "approved",
          "type": "bool"
        }
      ],
      "name": "setApprovalForAll",
      "outputs": [],
      "stateMutability": "nonpayable",
      "type": "function"
    },
    {
      "inputs": [
        {
          "internalType": "string",
          "name": "_url",
          "type": "string"
        }
      ],
      "name": "setBaseURL",
      "outputs": [],
      "stateMutability": "nonpayable",
      "type": "function"
    },
    {
      "inputs": [],
      "name": "setFreeMint",
      "outputs": [],
      "stateMutability": "nonpayable",
      "type": "function"
    },
    {
      "inputs": [],
      "name": "setPaused",
      "outputs": [],
      "stateMutability": "nonpayable",
      "type": "function"
    },
    {
      "inputs": [],
      "name": "setPublicSale",
      "outputs": [],
      "stateMutability": "nonpayable",
      "type": "function"
    },
    {
      "inputs": [
        {
          "internalType": "bytes4",
          "name": "interfaceId",
          "type": "bytes4"
        }
      ],
      "name": "supportsInterface",
      "outputs": [
        {
          "internalType": "bool",
          "name": "",
          "type": "bool"
        }
      ],
      "stateMutability": "view",
      "type": "function"
    },
    {
      "inputs": [],
      "name": "symbol",
      "outputs": [
        {
          "internalType": "string",
          "name": "",
          "type": "string"
        }
      ],
      "stateMutability": "view",
      "type": "function"
    },
    {
      "inputs": [
        {
          "internalType": "uint256",
          "name": "_tokenId",
          "type": "uint256"
        }
      ],
      "name": "tokenURI",
      "outputs": [
        {
          "internalType": "string",
          "name": "",
          "type": "string"
        }
      ],
      "stateMutability": "view",
      "type": "function"
    },
    {
      "inputs": [
        {
          "internalType": "address",
          "name": "from",
          "type": "address"
        },
        {
          "internalType": "address",
          "name": "to",
          "type": "address"
        },
        {
          "internalType": "uint256",
          "name": "tokenId",
          "type": "uint256"
        }
      ],
      "name": "transferFrom",
      "outputs": [],
      "stateMutability": "nonpayable",
      "type": "function"
    },
    {
      "inputs": [
        {
          "internalType": "address",
          "name": "newOwner",
          "type": "address"
        }
      ],
      "name": "transferOwnership",
      "outputs": [],
      "stateMutability": "nonpayable",
      "type": "function"
    },
    {
      "inputs": [],
      "name": "withdraw",
      "outputs": [],
      "stateMutability": "payable",
      "type": "function"
    }
  ],
  "bytecode": "0x6080604052611538600755600a600881905560098190556611c37937e08000905564173539b7b760d91b600e55600f80546001600160a01b0319908116730200e96f5253edd00769e443ec904bc3fa1ce0fc179091556010805490911673471a8e8fb0fc106a6fc448e3644dc13493134ae21790553480156200008157600080fd5b50604080518082018252600b81526a4c61727661204c6f72647360a81b6020808301918252835180850190945260058452644c4152564160d81b908401528151919291620000d29160009162000161565b508051620000e890600190602084019062000161565b50505062000105620000ff6200010b60201b60201c565b6200010f565b62000244565b3390565b600680546001600160a01b038381166001600160a01b0319831681179093556040519116919082907f8be0079c531659141344cd1fd0a4f28419497f9722a3daafe3b4186f6b6457e090600090a35050565b8280546200016f9062000207565b90600052602060002090601f016020900481019282620001935760008555620001de565b82601f10620001ae57805160ff1916838001178555620001de565b82800160010185558215620001de579182015b82811115620001de578251825591602001919060010190620001c1565b50620001ec929150620001f0565b5090565b5b80821115620001ec5760008155600101620001f1565b6002810460018216806200021c57607f821691505b602082108114156200023e57634e487b7160e01b600052602260045260246000fd5b50919050565b61212b80620002546000396000f3fe6080604052600436106101f95760003560e01c806370a082311161010d578063a0712d68116100a0578063c6dbdf611161006f578063c6dbdf61146104f0578063c87b56dd14610505578063e1f3763b14610525578063e985e9c51461053a578063f2fde38b1461055a576101f9565b8063a0712d6814610488578063a22cb4651461049b578063aa46a400146104bb578063b88d4fde146104d0576101f9565b80637f78636a116100dc5780637f78636a146104345780638da5cb5b14610449578063950bff9f1461045e57806395d89b4114610473576101f9565b806370a08231146103d5578063715018a6146103f557806373138e4f1461040a5780637f205a741461041f576101f9565b80633ccfd60b11610190578063484d59e61161015f578063484d59e61461035657806349f2553a1461036b57806356f8f78c1461038b5780635c975abb146103a05780636352211e146103b5576101f9565b80633ccfd60b146103115780633cd29ac81461031957806342842e0e1461032157806346f1361914610341576101f9565b8063095ea7b3116101cc578063095ea7b31461029857806323b872dd146102ba57806332cb6b0c146102da57806337a66d85146102fc576101f9565b806301ffc9a7146101fe57806302fb0c5e1461023457806306fdde0314610249578063081812fc1461026b575b600080fd5b34801561020a57600080fd5b5061021e610219366004611786565b61057a565b60405161022b9190611963565b60405180910390f35b34801561024057600080fd5b5061021e6105c2565b34801561025557600080fd5b5061025e6105cb565b60405161022b9190611977565b34801561027757600080fd5b5061028b610286366004611804565b61065d565b60405161022b9190611912565b3480156102a457600080fd5b506102b86102b336600461175d565b6106a9565b005b3480156102c657600080fd5b506102b86102d536600461166f565b610741565b3480156102e657600080fd5b506102ef610779565b60405161022b919061196e565b34801561030857600080fd5b506102b861077f565b6102b86107db565b6102b861088b565b34801561032d57600080fd5b506102b861033c36600461166f565b61093a565b34801561034d57600080fd5b506102ef610955565b34801561036257600080fd5b5061028b61095b565b34801561037757600080fd5b506102b86103863660046117be565b61096a565b34801561039757600080fd5b506102b86109c0565b3480156103ac57600080fd5b5061021e610a13565b3480156103c157600080fd5b5061028b6103d0366004611804565b610a21565b3480156103e157600080fd5b506102ef6103f036600461161c565b610a56565b34801561040157600080fd5b506102b8610a9a565b34801561041657600080fd5b506102ef610ae5565b34801561042b57600080fd5b506102ef610aeb565b34801561044057600080fd5b5061025e610af1565b34801561045557600080fd5b5061028b610b7f565b34801561046a57600080fd5b506102ef610b8e565b34801561047f57600080fd5b5061025e610b94565b6102b8610496366004611804565b610ba3565b3480156104a757600080fd5b506102b86104b6366004611723565b610cdf565b3480156104c757600080fd5b506102ef610cf1565b3480156104dc57600080fd5b506102b86104eb3660046116aa565b610cf7565b3480156104fc57600080fd5b5061028b610d36565b34801561051157600080fd5b5061025e610520366004611804565b610d45565b34801561053157600080fd5b506102b8610d7d565b34801561054657600080fd5b5061021e61055536600461163d565b610dc3565b34801561056657600080fd5b506102b861057536600461161c565b610df1565b60006001600160e01b031982166380ac58cd60e01b14806105ab57506001600160e01b03198216635b5e139f60e01b145b806105ba57506105ba82610e5f565b90505b919050565b600c5460ff1681565b6060600080546105da90612033565b80601f016020809104026020016040519081016040528092919081815260200182805461060690612033565b80156106535780601f1061062857610100808354040283529160200191610653565b820191906000526020600020905b81548152906001019060200180831161063657829003601f168201915b5050505050905090565b600061066882610e78565b61068d5760405162461bcd60e51b815260040161068490611cdd565b60405180910390fd5b506000908152600460205260409020546001600160a01b031690565b60006106b482610a21565b9050806001600160a01b0316836001600160a01b031614156106e85760405162461bcd60e51b815260040161068490611dde565b806001600160a01b03166106fa610e95565b6001600160a01b03161480610716575061071681610555610e95565b6107325760405162461bcd60e51b815260040161068490611b6e565b61073c8383610e99565b505050565b61075261074c610e95565b82610f07565b61076e5760405162461bcd60e51b815260040161068490611e56565b61073c838383610f8c565b60075481565b610787610e95565b6001600160a01b0316610798610b7f565b6001600160a01b0316146107be5760405162461bcd60e51b815260040161068490611d29565b600c805461ff001981166101009182900460ff1615909102179055565b6107e3610e95565b6001600160a01b03166107f4610b7f565b6001600160a01b03161461081a5760405162461bcd60e51b815260040161068490611d29565b600f546040516000916001600160a01b03169047906108389061190f565b60006040518083038185875af1925050503d8060008114610875576040519150601f19603f3d011682016040523d82523d6000602084013e61087a565b606091505b505090508061088857600080fd5b50565b600c54610100900460ff16156108a057600080fd5b6010546001600160a01b031633146108ca5760405162461bcd60e51b815260040161068490611e1f565b600954600b54106108ed5760405162461bcd60e51b815260040161068490611ede565b60005b6009548110156108885761091233600b54600161090d9190611fa5565b6110b9565b600b80549060006109228361206e565b919050555080806109329061206e565b9150506108f0565b61073c83838360405180602001604052806000815250610cf7565b600e5481565b6010546001600160a01b031681565b610972610e95565b6001600160a01b0316610983610b7f565b6001600160a01b0316146109a95760405162461bcd60e51b815260040161068490611d29565b80516109bc90600d9060208401906114fc565b5050565b6109c8610e95565b6001600160a01b03166109d9610b7f565b6001600160a01b0316146109ff5760405162461bcd60e51b815260040161068490611d29565b600c805460ff19811660ff90911615179055565b600c54610100900460ff1681565b6000818152600260205260408120546001600160a01b0316806105ba5760405162461bcd60e51b815260040161068490611c15565b60006001600160a01b038216610a7e5760405162461bcd60e51b815260040161068490611bcb565b506001600160a01b031660009081526003602052604090205490565b610aa2610e95565b6001600160a01b0316610ab3610b7f565b6001600160a01b031614610ad95760405162461bcd60e51b815260040161068490611d29565b610ae36000611198565b565b60095481565b600a5481565b600d8054610afe90612033565b80601f0160208091040260200160405190810160405280929190818152602001828054610b2a90612033565b8015610b775780601f10610b4c57610100808354040283529160200191610b77565b820191906000526020600020905b815481529060010190602001808311610b5a57829003601f168201915b505050505081565b6006546001600160a01b031690565b60085481565b6060600180546105da90612033565b600c54610100900460ff1615610bb857600080fd5b600c5460ff16610bda5760405162461bcd60e51b815260040161068490611da7565b323314610bf95760405162461bcd60e51b815260040161068490611f58565b600854811115610c1b5760405162461bcd60e51b815260040161068490611b20565b80600a54610c299190611fd1565b3414610c475760405162461bcd60e51b815260040161068490611ea7565b600754600b5410610c6a5760405162461bcd60e51b815260040161068490611f21565b60075481600b54610c7b9190611fa5565b1115610c995760405162461bcd60e51b815260040161068490611c5e565b60005b818110156109bc57610cb733600b54600161090d9190611fa5565b600b8054906000610cc78361206e565b91905055508080610cd79061206e565b915050610c9c565b6109bc610cea610e95565b83836111ea565b600b5481565b610d08610d02610e95565b83610f07565b610d245760405162461bcd60e51b815260040161068490611e56565b610d308484848461128d565b50505050565b600f546001600160a01b031681565b6060600d610d52836112c0565b600e54604051602001610d6793929190611864565b6040516020818303038152906040529050919050565b610d85610e95565b6001600160a01b0316610d96610b7f565b6001600160a01b031614610dbc5760405162461bcd60e51b815260040161068490611d29565b6000600a55565b6001600160a01b03918216600090815260056020908152604080832093909416825291909152205460ff1690565b610df9610e95565b6001600160a01b0316610e0a610b7f565b6001600160a01b031614610e305760405162461bcd60e51b815260040161068490611d29565b6001600160a01b038116610e565760405162461bcd60e51b8152600401610684906119dc565b61088881611198565b6001600160e01b031981166301ffc9a760e01b14919050565b6000908152600260205260409020546001600160a01b0316151590565b3390565b600081815260046020526040902080546001600160a01b0319166001600160a01b0384169081179091558190610ece82610a21565b6001600160a01b03167f8c5be1e5ebec7d5bd14f71427d1e84f3dd0314c0f7b2291e5b200ac8c7c3b92560405160405180910390a45050565b6000610f1282610e78565b610f2e5760405162461bcd60e51b815260040161068490611ad4565b6000610f3983610a21565b9050806001600160a01b0316846001600160a01b03161480610f745750836001600160a01b0316610f698461065d565b6001600160a01b0316145b80610f845750610f848185610dc3565b949350505050565b826001600160a01b0316610f9f82610a21565b6001600160a01b031614610fc55760405162461bcd60e51b815260040161068490611d5e565b6001600160a01b038216610feb5760405162461bcd60e51b815260040161068490611a59565b610ff683838361073c565b611001600082610e99565b6001600160a01b038316600090815260036020526040812080546001929061102a908490611ff0565b90915550506001600160a01b0382166000908152600360205260408120805460019290611058908490611fa5565b909155505060008181526002602052604080822080546001600160a01b0319166001600160a01b0386811691821790925591518493918716917fddf252ad1be2c89b69c2b068fc378daa952ba7f163c4a11628f55a4df523b3ef91a4505050565b6001600160a01b0382166110df5760405162461bcd60e51b815260040161068490611ca8565b6110e881610e78565b156111055760405162461bcd60e51b815260040161068490611a22565b6111116000838361073c565b6001600160a01b038216600090815260036020526040812080546001929061113a908490611fa5565b909155505060008181526002602052604080822080546001600160a01b0319166001600160a01b03861690811790915590518392907fddf252ad1be2c89b69c2b068fc378daa952ba7f163c4a11628f55a4df523b3ef908290a45050565b600680546001600160a01b038381166001600160a01b0319831681179093556040519116919082907f8be0079c531659141344cd1fd0a4f28419497f9722a3daafe3b4186f6b6457e090600090a35050565b816001600160a01b0316836001600160a01b0316141561121c5760405162461bcd60e51b815260040161068490611a9d565b6001600160a01b0383811660008181526005602090815260408083209487168084529490915290819020805460ff1916851515179055517f17307eab39ab6107e8899845ad3d59bd9653f200f220920489ca2b5937696c3190611280908590611963565b60405180910390a3505050565b611298848484610f8c565b6112a4848484846113db565b610d305760405162461bcd60e51b81526004016106849061198a565b6060816112e557506040805180820190915260018152600360fc1b60208201526105bd565b8160005b811561130f57806112f98161206e565b91506113089050600a83611fbd565b91506112e9565b60008167ffffffffffffffff81111561133857634e487b7160e01b600052604160045260246000fd5b6040519080825280601f01601f191660200182016040528015611362576020820181803683370190505b5090505b8415610f8457611377600183611ff0565b9150611384600a86612089565b61138f906030611fa5565b60f81b8183815181106113b257634e487b7160e01b600052603260045260246000fd5b60200101906001600160f81b031916908160001a9053506113d4600a86611fbd565b9450611366565b60006113ef846001600160a01b03166114f6565b156114eb57836001600160a01b031663150b7a0261140b610e95565b8786866040518563ffffffff1660e01b815260040161142d9493929190611926565b602060405180830381600087803b15801561144757600080fd5b505af1925050508015611477575060408051601f3d908101601f19168201909252611474918101906117a2565b60015b6114d1573d8080156114a5576040519150601f19603f3d011682016040523d82523d6000602084013e6114aa565b606091505b5080516114c95760405162461bcd60e51b81526004016106849061198a565b805181602001fd5b6001600160e01b031916630a85bd0160e11b149050610f84565b506001949350505050565b3b151590565b82805461150890612033565b90600052602060002090601f01602090048101928261152a5760008555611570565b82601f1061154357805160ff1916838001178555611570565b82800160010185558215611570579182015b82811115611570578251825591602001919060010190611555565b5061157c929150611580565b5090565b5b8082111561157c5760008155600101611581565b600067ffffffffffffffff808411156115b0576115b06120c9565b604051601f8501601f1916810160200182811182821017156115d4576115d46120c9565b6040528481529150818385018610156115ec57600080fd5b8484602083013760006020868301015250509392505050565b80356001600160a01b03811681146105bd57600080fd5b60006020828403121561162d578081fd5b61163682611605565b9392505050565b6000806040838503121561164f578081fd5b61165883611605565b915061166660208401611605565b90509250929050565b600080600060608486031215611683578081fd5b61168c84611605565b925061169a60208501611605565b9150604084013590509250925092565b600080600080608085870312156116bf578081fd5b6116c885611605565b93506116d660208601611605565b925060408501359150606085013567ffffffffffffffff8111156116f8578182fd5b8501601f81018713611708578182fd5b61171787823560208401611595565b91505092959194509250565b60008060408385031215611735578182fd5b61173e83611605565b915060208301358015158114611752578182fd5b809150509250929050565b6000806040838503121561176f578182fd5b61177883611605565b946020939093013593505050565b600060208284031215611797578081fd5b8135611636816120df565b6000602082840312156117b3578081fd5b8151611636816120df565b6000602082840312156117cf578081fd5b813567ffffffffffffffff8111156117e5578182fd5b8201601f810184136117f5578182fd5b610f8484823560208401611595565b600060208284031215611815578081fd5b5035919050565b60008151808452611834816020860160208601612007565b601f01601f19169290920160200192915050565b6000815161185a818560208601612007565b9290920192915050565b835460009081906002810460018083168061188057607f831692505b60208084108214156118a057634e487b7160e01b87526022600452602487fd5b8180156118b457600181146118c5576118f1565b60ff198616895284890196506118f1565b6118ce8c611f99565b885b868110156118e95781548b8201529085019083016118d0565b505084890196505b506118fc868b611848565b9889529097019998505050505050505050565b90565b6001600160a01b0391909116815260200190565b6001600160a01b03858116825284166020820152604081018390526080606082018190526000906119599083018461181c565b9695505050505050565b901515815260200190565b90815260200190565b600060208252611636602083018461181c565b60208082526032908201527f4552433732313a207472616e7366657220746f206e6f6e20455243373231526560408201527131b2b4bb32b91034b6b83632b6b2b73a32b960711b606082015260800190565b60208082526026908201527f4f776e61626c653a206e6577206f776e657220697320746865207a65726f206160408201526564647265737360d01b606082015260800190565b6020808252601c908201527f4552433732313a20746f6b656e20616c7265616479206d696e74656400000000604082015260600190565b60208082526024908201527f4552433732313a207472616e7366657220746f20746865207a65726f206164646040820152637265737360e01b606082015260800190565b60208082526019908201527f4552433732313a20617070726f766520746f2063616c6c657200000000000000604082015260600190565b6020808252602c908201527f4552433732313a206f70657261746f7220717565727920666f72206e6f6e657860408201526b34b9ba32b73a103a37b5b2b760a11b606082015260800190565b6020808252602e908201527f4f6e6c7920616c6c6f77656420746f206d696e7420313020746f6b656e73207060408201526d32b9103a3930b739b0b1ba34b7b760911b606082015260800190565b60208082526038908201527f4552433732313a20617070726f76652063616c6c6572206973206e6f74206f7760408201527f6e6572206e6f7220617070726f76656420666f7220616c6c0000000000000000606082015260800190565b6020808252602a908201527f4552433732313a2062616c616e636520717565727920666f7220746865207a65604082015269726f206164647265737360b01b606082015260800190565b60208082526029908201527f4552433732313a206f776e657220717565727920666f72206e6f6e657869737460408201526832b73a103a37b5b2b760b91b606082015260800190565b6020808252602a908201527f507572636861736520776f756c6420657863656564206d617820737570706c79604082015269206f6620746f6b656e7360b01b606082015260800190565b6020808252818101527f4552433732313a206d696e7420746f20746865207a65726f2061646472657373604082015260600190565b6020808252602c908201527f4552433732313a20617070726f76656420717565727920666f72206e6f6e657860408201526b34b9ba32b73a103a37b5b2b760a11b606082015260800190565b6020808252818101527f4f776e61626c653a2063616c6c6572206973206e6f7420746865206f776e6572604082015260600190565b60208082526029908201527f4552433732313a207472616e73666572206f6620746f6b656e2074686174206960408201526839903737ba1037bbb760b91b606082015260800190565b6020808252601a908201527f53616c652069732063757272656e746c7920696e616374697665000000000000604082015260600190565b60208082526021908201527f4552433732313a20617070726f76616c20746f2063757272656e74206f776e656040820152603960f91b606082015260800190565b6020808252601f908201527f41646472657373206973206e6f7420616c6c6f77656420746f206d696e742e00604082015260600190565b60208082526031908201527f4552433732313a207472616e736665722063616c6c6572206973206e6f74206f6040820152701ddb995c881b9bdc88185c1c1c9bdd9959607a1b606082015260800190565b60208082526019908201527f496e636f727265637420616d6f756e74206f6620657468657200000000000000604082015260600190565b60208082526023908201527f416c6c2070726573616c6520746f6b656e732068617665206265656e206d696e6040820152621d195960ea1b606082015260800190565b6020808252601b908201527f416c6c20746f6b656e732068617665206265656e206d696e7465640000000000604082015260600190565b60208082526021908201527f436f6e74726163747320617265206e6f7420616c6c6f77656420746f206d696e6040820152601d60fa1b606082015260800190565b60009081526020902090565b60008219821115611fb857611fb861209d565b500190565b600082611fcc57611fcc6120b3565b500490565b6000816000190483118215151615611feb57611feb61209d565b500290565b6000828210156120025761200261209d565b500390565b60005b8381101561202257818101518382015260200161200a565b83811115610d305750506000910152565b60028104600182168061204757607f821691505b6020821081141561206857634e487b7160e01b600052602260045260246000fd5b50919050565b60006000198214156120825761208261209d565b5060010190565b600082612098576120986120b3565b500690565b634e487b7160e01b600052601160045260246000fd5b634e487b7160e01b600052601260045260246000fd5b634e487b7160e01b600052604160045260246000fd5b6001600160e01b03198116811461088857600080fdfea2646970667358221220124c83b2316206c6d020d3a7a545c53493039e2f97915cabc5427cf1d762129664736f6c63430008000033",
  "linkReferences": {},
  "deployedLinkReferences": {}
}