{
  "_format": "hh-sol-artifact-1",
  "contractName": "LarvaLords",
  "sourceName": "contracts/LarvaLords.sol",
  "abi": [
    {
      "inputs": [],
      "stateMutability": "nonpayable",
      "type": "constructor"
    },
    {
      "anonymous": false,
      "inputs": [
        {
          "indexed": true,
          "internalType": "address",
          "name": "owner",
          "type": "address"
        },
        {
          "indexed": true,
          "internalType": "address",
          "name": "approved",
          "type": "address"
        },
        {
          "indexed": true,
          "internalType": "uint256",
          "name": "tokenId",
          "type": "uint256"
        }
      ],
      "name": "Approval",
      "type": "event"
    },
    {
      "anonymous": false,
      "inputs": [
        {
          "indexed": true,
          "internalType": "address",
          "name": "owner",
          "type": "address"
        },
        {
          "indexed": true,
          "internalType": "address",
          "name": "operator",
          "type": "address"
        },
        {
          "indexed": false,
          "internalType": "bool",
          "name": "approved",
          "type": "bool"
        }
      ],
      "name": "ApprovalForAll",
      "type": "event"
    },
    {
      "anonymous": false,
      "inputs": [
        {
          "indexed": true,
          "internalType": "address",
          "name": "previousOwner",
          "type": "address"
        },
        {
          "indexed": true,
          "internalType": "address",
          "name": "newOwner",
          "type": "address"
        }
      ],
      "name": "OwnershipTransferred",
      "type": "event"
    },
    {
      "anonymous": false,
      "inputs": [
        {
          "indexed": true,
          "internalType": "address",
          "name": "from",
          "type": "address"
        },
        {
          "indexed": true,
          "internalType": "address",
          "name": "to",
          "type": "address"
        },
        {
          "indexed": true,
          "internalType": "uint256",
          "name": "tokenId",
          "type": "uint256"
        }
      ],
      "name": "Transfer",
      "type": "event"
    },
    {
      "inputs": [],
      "name": "BASE_URL",
      "outputs": [
        {
          "internalType": "string",
          "name": "",
          "type": "string"
        }
      ],
      "stateMutability": "view",
      "type": "function"
    },
    {
      "inputs": [],
      "name": "EXTENSION",
      "outputs": [
        {
          "internalType": "bytes32",
          "name": "",
          "type": "bytes32"
        }
      ],
      "stateMutability": "view",
      "type": "function"
    },
    {
      "inputs": [],
      "name": "MAX_BATCH",
      "outputs": [
        {
          "internalType": "uint256",
          "name": "",
          "type": "uint256"
        }
      ],
      "stateMutability": "view",
      "type": "function"
    },
    {
      "inputs": [],
      "name": "MAX_SUPPLY",
      "outputs": [
        {
          "internalType": "uint256",
          "name": "",
          "type": "uint256"
        }
      ],
      "stateMutability": "view",
      "type": "function"
    },
    {
      "inputs": [],
      "name": "PRESALE_SUPPLY",
      "outputs": [
        {
          "internalType": "uint256",
          "name": "",
          "type": "uint256"
        }
      ],
      "stateMutability": "view",
      "type": "function"
    },
    {
      "inputs": [],
      "name": "SALE_PRICE",
      "outputs": [
        {
          "internalType": "uint256",
          "name": "",
          "type": "uint256"
        }
      ],
      "stateMutability": "view",
      "type": "function"
    },
    {
      "inputs": [],
      "name": "_tokenIds",
      "outputs": [
        {
          "internalType": "uint256",
          "name": "",
          "type": "uint256"
        }
      ],
      "stateMutability": "view",
      "type": "function"
    },
    {
      "inputs": [],
      "name": "active",
      "outputs": [
        {
          "internalType": "bool",
          "name": "",
          "type": "bool"
        }
      ],
      "stateMutability": "view",
      "type": "function"
    },
    {
      "inputs": [
        {
          "internalType": "address",
          "name": "to",
          "type": "address"
        },
        {
          "internalType": "uint256",
          "name": "tokenId",
          "type": "uint256"
        }
      ],
      "name": "approve",
      "outputs": [],
      "stateMutability": "nonpayable",
      "type": "function"
    },
    {
      "inputs": [
        {
          "internalType": "address",
          "name": "owner",
          "type": "address"
        }
      ],
      "name": "balanceOf",
      "outputs": [
        {
          "internalType": "uint256",
          "name": "",
          "type": "uint256"
        }
      ],
      "stateMutability": "view",
      "type": "function"
    },
    {
      "inputs": [
        {
          "internalType": "uint256",
          "name": "tokenId",
          "type": "uint256"
        }
      ],
      "name": "getApproved",
      "outputs": [
        {
          "internalType": "address",
          "name": "",
          "type": "address"
        }
      ],
      "stateMutability": "view",
      "type": "function"
    },
    {
      "inputs": [
        {
          "internalType": "address",
          "name": "owner",
          "type": "address"
        },
        {
          "internalType": "address",
          "name": "operator",
          "type": "address"
        }
      ],
      "name": "isApprovedForAll",
      "outputs": [
        {
          "internalType": "bool",
          "name": "",
          "type": "bool"
        }
      ],
      "stateMutability": "view",
      "type": "function"
    },
    {
      "inputs": [
        {
          "internalType": "bytes",
          "name": "_signature",
          "type": "bytes"
        },
        {
          "internalType": "address",
          "name": "_user",
          "type": "address"
        }
      ],
      "name": "isWhitelisted",
      "outputs": [
        {
          "internalType": "bool",
          "name": "",
          "type": "bool"
        }
      ],
      "stateMutability": "view",
      "type": "function"
    },
    {
      "inputs": [
        {
          "internalType": "uint256",
          "name": "quantity",
          "type": "uint256"
        }
      ],
      "name": "mint",
      "outputs": [],
      "stateMutability": "payable",
      "type": "function"
    },
    {
      "inputs": [],
      "name": "name",
      "outputs": [
        {
          "internalType": "string",
          "name": "",
          "type": "string"
        }
      ],
      "stateMutability": "view",
      "type": "function"
    },
    {
      "inputs": [],
      "name": "owner",
      "outputs": [
        {
          "internalType": "address",
          "name": "",
          "type": "address"
        }
      ],
      "stateMutability": "view",
      "type": "function"
    },
    {
      "inputs": [
        {
          "internalType": "uint256",
          "name": "tokenId",
          "type": "uint256"
        }
      ],
      "name": "ownerOf",
      "outputs": [
        {
          "internalType": "address",
          "name": "",
          "type": "address"
        }
      ],
      "stateMutability": "view",
      "type": "function"
    },
    {
      "inputs": [],
      "name": "paused",
      "outputs": [
        {
          "internalType": "bool",
          "name": "",
          "type": "bool"
        }
      ],
      "stateMutability": "view",
      "type": "function"
    },
    {
      "inputs": [],
      "name": "presale",
      "outputs": [
        {
          "internalType": "bool",
          "name": "",
          "type": "bool"
        }
      ],
      "stateMutability": "view",
      "type": "function"
    },
    {
      "inputs": [
        {
          "internalType": "bytes",
          "name": "_signature",
          "type": "bytes"
        }
      ],
      "name": "presaleMint",
      "outputs": [],
      "stateMutability": "payable",
      "type": "function"
    },
    {
      "inputs": [],
      "name": "primary",
      "outputs": [
        {
          "internalType": "address",
          "name": "",
          "type": "address"
        }
      ],
      "stateMutability": "view",
      "type": "function"
    },
    {
      "inputs": [],
      "name": "pubkey",
      "outputs": [
        {
          "internalType": "address",
          "name": "",
          "type": "address"
        }
      ],
      "stateMutability": "view",
      "type": "function"
    },
    {
      "inputs": [],
      "name": "renounceOwnership",
      "outputs": [],
      "stateMutability": "nonpayable",
      "type": "function"
    },
    {
      "inputs": [
        {
          "internalType": "address",
          "name": "from",
          "type": "address"
        },
        {
          "internalType": "address",
          "name": "to",
          "type": "address"
        },
        {
          "internalType": "uint256",
          "name": "tokenId",
          "type": "uint256"
        }
      ],
      "name": "safeTransferFrom",
      "outputs": [],
      "stateMutability": "nonpayable",
      "type": "function"
    },
    {
      "inputs": [
        {
          "internalType": "address",
          "name": "from",
          "type": "address"
        },
        {
          "internalType": "address",
          "name": "to",
          "type": "address"
        },
        {
          "internalType": "uint256",
          "name": "tokenId",
          "type": "uint256"
        },
        {
          "internalType": "bytes",
          "name": "_data",
          "type": "bytes"
        }
      ],
      "name": "safeTransferFrom",
      "outputs": [],
      "stateMutability": "nonpayable",
      "type": "function"
    },
    {
      "inputs": [
        {
          "internalType": "address",
          "name": "operator",
          "type": "address"
        },
        {
          "internalType": "bool",
          "name": "approved",
          "type": "bool"
        }
      ],
      "name": "setApprovalForAll",
      "outputs": [],
      "stateMutability": "nonpayable",
      "type": "function"
    },
    {
      "inputs": [
        {
          "internalType": "string",
          "name": "_url",
          "type": "string"
        }
      ],
      "name": "setBaseURL",
      "outputs": [],
      "stateMutability": "nonpayable",
      "type": "function"
    },
    {
      "inputs": [],
      "name": "setPaused",
      "outputs": [],
      "stateMutability": "nonpayable",
      "type": "function"
    },
    {
      "inputs": [],
      "name": "setPublicSale",
      "outputs": [],
      "stateMutability": "nonpayable",
      "type": "function"
    },
    {
      "inputs": [],
      "name": "setStartingBlock",
      "outputs": [],
      "stateMutability": "nonpayable",
      "type": "function"
    },
    {
      "inputs": [],
      "name": "setStartingIdx",
      "outputs": [],
      "stateMutability": "nonpayable",
      "type": "function"
    },
    {
      "inputs": [],
      "name": "starting_idx",
      "outputs": [
        {
          "internalType": "uint256",
          "name": "",
          "type": "uint256"
        }
      ],
      "stateMutability": "view",
      "type": "function"
    },
    {
      "inputs": [
        {
          "internalType": "bytes4",
          "name": "interfaceId",
          "type": "bytes4"
        }
      ],
      "name": "supportsInterface",
      "outputs": [
        {
          "internalType": "bool",
          "name": "",
          "type": "bool"
        }
      ],
      "stateMutability": "view",
      "type": "function"
    },
    {
      "inputs": [],
      "name": "symbol",
      "outputs": [
        {
          "internalType": "string",
          "name": "",
          "type": "string"
        }
      ],
      "stateMutability": "view",
      "type": "function"
    },
    {
      "inputs": [],
      "name": "togglePresale",
      "outputs": [],
      "stateMutability": "nonpayable",
      "type": "function"
    },
    {
      "inputs": [
        {
          "internalType": "uint256",
          "name": "_tokenId",
          "type": "uint256"
        }
      ],
      "name": "tokenURI",
      "outputs": [
        {
          "internalType": "string",
          "name": "",
          "type": "string"
        }
      ],
      "stateMutability": "view",
      "type": "function"
    },
    {
      "inputs": [
        {
          "internalType": "address",
          "name": "from",
          "type": "address"
        },
        {
          "internalType": "address",
          "name": "to",
          "type": "address"
        },
        {
          "internalType": "uint256",
          "name": "tokenId",
          "type": "uint256"
        }
      ],
      "name": "transferFrom",
      "outputs": [],
      "stateMutability": "nonpayable",
      "type": "function"
    },
    {
      "inputs": [
        {
          "internalType": "address",
          "name": "newOwner",
          "type": "address"
        }
      ],
      "name": "transferOwnership",
      "outputs": [],
      "stateMutability": "nonpayable",
      "type": "function"
    },
    {
      "inputs": [],
      "name": "withdraw",
      "outputs": [],
      "stateMutability": "payable",
      "type": "function"
    }
  ],
  "bytecode": "0x6080604052611538600755600a6008819055600b600955661c6bf526340000905564173539b7b760d91b601055601180546001600160a01b0319908116730200e96f5253edd00769e443ec904bc3fa1ce0fc179091556012805490911673f0036aa4b10d8712fdaa193a6036c01e3a12880c1790553480156200008157600080fd5b50604080518082018252600b81526a4c61727661204c6f72647360a81b6020808301918252835180850190945260058452644c4152564160d81b908401528151919291620000d29160009162000161565b508051620000e890600190602084019062000161565b50505062000105620000ff6200010b60201b60201c565b6200010f565b62000244565b3390565b600680546001600160a01b038381166001600160a01b0319831681179093556040519116919082907f8be0079c531659141344cd1fd0a4f28419497f9722a3daafe3b4186f6b6457e090600090a35050565b8280546200016f9062000207565b90600052602060002090601f016020900481019282620001935760008555620001de565b82601f10620001ae57805160ff1916838001178555620001de565b82800160010185558215620001de579182015b82811115620001de578251825591602001919060010190620001c1565b50620001ec929150620001f0565b5090565b5b80821115620001ec5760008155600101620001f1565b6002810460018216806200021c57607f821691505b602082108114156200023e57634e487b7160e01b600052602260045260246000fd5b50919050565b612ab280620002546000396000f3fe6080604052600436106102305760003560e01c8063715018a61161012e578063a22cb465116100ab578063c87b56dd1161006f578063c87b56dd146105a6578063e985e9c5146105c6578063f2fde38b146105e6578063f41fbd5e14610606578063fdea8e0b1461061b57610230565b8063a22cb4651461051c578063a3540c101461053c578063aa46a4001461055c578063b88d4fde14610571578063c6dbdf611461059157610230565b80638da5cb5b116100f25780638da5cb5b146104b75780639333b1e3146104cc578063950bff9f146104df57806395d89b41146104f4578063a0712d681461050957610230565b8063715018a61461044e57806373138e4f1461046357806377106000146104785780637f205a741461048d5780637f78636a146104a257610230565b806337a66d85116101bc57806349f2553a1161018057806349f2553a146103c457806356f8f78c146103e45780635c975abb146103f95780636352211e1461040e57806370a082311461042e57610230565b806337a66d851461035d5780633ccfd60b1461037257806342842e0e1461037a57806346f136191461039a578063484d59e6146103af57610230565b8063095ea7b311610203578063095ea7b3146102cf57806318509269146102f157806323b872dd1461030657806332cb6b0c14610326578063343937431461034857610230565b806301ffc9a71461023557806302fb0c5e1461026b57806306fdde0314610280578063081812fc146102a2575b600080fd5b34801561024157600080fd5b50610255610250366004611db3565b610630565b6040516102629190612096565b60405180910390f35b34801561027757600080fd5b50610255610678565b34801561028c57600080fd5b50610295610681565b60405161026291906120c8565b3480156102ae57600080fd5b506102c26102bd366004611ec3565b610713565b604051610262919061202c565b3480156102db57600080fd5b506102ef6102ea366004611d8a565b61075f565b005b3480156102fd57600080fd5b506102ef6107f7565b34801561031257600080fd5b506102ef610321366004611c9c565b61086b565b34801561033257600080fd5b5061033b6108a3565b60405161026291906120a1565b34801561035457600080fd5b506102ef6108a9565b34801561036957600080fd5b506102ef610905565b6102ef610963565b34801561038657600080fd5b506102ef610395366004611c9c565b610a13565b3480156103a657600080fd5b5061033b610a2e565b3480156103bb57600080fd5b506102c2610a34565b3480156103d057600080fd5b506102ef6103df366004611e7d565b610a43565b3480156103f057600080fd5b506102ef610a99565b34801561040557600080fd5b50610255610aec565b34801561041a57600080fd5b506102c2610429366004611ec3565b610afb565b34801561043a57600080fd5b5061033b610449366004611c49565b610b30565b34801561045a57600080fd5b506102ef610b74565b34801561046f57600080fd5b5061033b610bbf565b34801561048457600080fd5b506102ef610bc5565b34801561049957600080fd5b5061033b610c2a565b3480156104ae57600080fd5b50610295610c30565b3480156104c357600080fd5b506102c2610cbe565b6102ef6104da366004611deb565b610ccd565b3480156104eb57600080fd5b5061033b610dec565b34801561050057600080fd5b50610295610df2565b6102ef610517366004611ec3565b610e01565b34801561052857600080fd5b506102ef610537366004611d50565b610f37565b34801561054857600080fd5b50610255610557366004611e2b565b610f49565b34801561056857600080fd5b5061033b610fd6565b34801561057d57600080fd5b506102ef61058c366004611cd7565b610fdc565b34801561059d57600080fd5b506102c261101b565b3480156105b257600080fd5b506102956105c1366004611ec3565b61102a565b3480156105d257600080fd5b506102556105e1366004611c6a565b611062565b3480156105f257600080fd5b506102ef610601366004611c49565b611090565b34801561061257600080fd5b5061033b6110fe565b34801561062757600080fd5b50610255611104565b60006001600160e01b031982166380ac58cd60e01b148061066157506001600160e01b03198216635b5e139f60e01b145b80610670575061067082611112565b90505b919050565b600c5460ff1681565b606060008054610690906129ba565b80601f01602080910402602001604051908101604052809291908181526020018280546106bc906129ba565b80156107095780601f106106de57610100808354040283529160200191610709565b820191906000526020600020905b8154815290600101906020018083116106ec57829003601f168201915b5050505050905090565b600061071e8261112b565b6107435760405162461bcd60e51b815260040161073a906125a9565b60405180910390fd5b506000908152600460205260409020546001600160a01b031690565b600061076a82610afb565b9050806001600160a01b0316836001600160a01b0316141561079e5760405162461bcd60e51b815260040161073a906126df565b806001600160a01b03166107b0611148565b6001600160a01b031614806107cc57506107cc816105e1611148565b6107e85760405162461bcd60e51b815260040161073a906123f8565b6107f2838361114c565b505050565b6107ff611148565b6001600160a01b0316610810610cbe565b6001600160a01b0316146108365760405162461bcd60e51b815260040161073a906125f5565b600e546108555760405162461bcd60e51b815260040161073a906128e9565b600754600e54610866919040612a10565b600d55565b61087c610876611148565b826111ba565b6108985760405162461bcd60e51b815260040161073a90612720565b6107f283838361123f565b60075481565b6108b1611148565b6001600160a01b03166108c2610cbe565b6001600160a01b0316146108e85760405162461bcd60e51b815260040161073a906125f5565b600c805461ff001981166101009182900460ff1615909102179055565b61090d611148565b6001600160a01b031661091e610cbe565b6001600160a01b0316146109445760405162461bcd60e51b815260040161073a906125f5565b600c805462ff0000198116620100009182900460ff1615909102179055565b61096b611148565b6001600160a01b031661097c610cbe565b6001600160a01b0316146109a25760405162461bcd60e51b815260040161073a906125f5565b6011546040516000916001600160a01b03169047906109c090612029565b60006040518083038185875af1925050503d80600081146109fd576040519150601f19603f3d011682016040523d82523d6000602084013e610a02565b606091505b5050905080610a1057600080fd5b50565b6107f283838360405180602001604052806000815250610fdc565b60105481565b6012546001600160a01b031681565b610a4b611148565b6001600160a01b0316610a5c610cbe565b6001600160a01b031614610a825760405162461bcd60e51b815260040161073a906125f5565b8051610a9590600f906020840190611ae9565b5050565b610aa1611148565b6001600160a01b0316610ab2610cbe565b6001600160a01b031614610ad85760405162461bcd60e51b815260040161073a906125f5565b600c805460ff19811660ff90911615179055565b600c5462010000900460ff1681565b6000818152600260205260408120546001600160a01b0316806106705760405162461bcd60e51b815260040161073a9061249f565b60006001600160a01b038216610b585760405162461bcd60e51b815260040161073a90612455565b506001600160a01b031660009081526003602052604090205490565b610b7c611148565b6001600160a01b0316610b8d610cbe565b6001600160a01b031614610bb35760405162461bcd60e51b815260040161073a906125f5565b610bbd600061136c565b565b60095481565b610bcd611148565b6001600160a01b0316610bde610cbe565b6001600160a01b031614610c045760405162461bcd60e51b815260040161073a906125f5565b600e5415610c245760405162461bcd60e51b815260040161073a9061282d565b43600e55565b600a5481565b600f8054610c3d906129ba565b80601f0160208091040260200160405190810160405280929190818152602001828054610c69906129ba565b8015610cb65780601f10610c8b57610100808354040283529160200191610cb6565b820191906000526020600020905b815481529060010190602001808311610c9957829003601f168201915b505050505081565b6006546001600160a01b031690565b600c5462010000900460ff1615610ce357600080fd5b600c54610100900460ff16610d0a5760405162461bcd60e51b815260040161073a90612673565b3360009081526013602052604090205460ff1615610d3a5760405162461bcd60e51b815260040161073a906127a8565b610d45828233610f49565b610d615760405162461bcd60e51b815260040161073a906127df565b600954600b5410610d845760405162461bcd60e51b815260040161073a90612112565b600954600b541115610da85760405162461bcd60e51b815260040161073a90612319565b336000818152601360205260409020805460ff19166001179055610dd390610dce6113be565b6113ed565b600b8054906000610de3836129f5565b91905055505050565b60085481565b606060018054610690906129ba565b600c5462010000900460ff1615610e1757600080fd5b600c5460ff16610e395760405162461bcd60e51b815260040161073a906126a8565b323314610e585760405162461bcd60e51b815260040161073a906128a8565b600854811115610e7a5760405162461bcd60e51b815260040161073a906123aa565b80600a54610e889190612958565b3414610ea65760405162461bcd60e51b815260040161073a90612771565b600754600b5410610ec95760405162461bcd60e51b815260040161073a90612871565b60075481600b54610eda919061292c565b1115610ef85760405162461bcd60e51b815260040161073a906124e8565b60005b81811015610a9557610f0f33610dce6113be565b600b8054906000610f1f836129f5565b91905055508080610f2f906129f5565b915050610efb565b610a95610f42611148565b83836114cc565b601254604080516020601f86018190048102820181019092528481526000926001600160a01b031691610fc49190879087908190840183828082843760009201919091525050600754604051610fbe9350610faa925088919060200161207d565b60405160208183030381529060405261156f565b906115aa565b6001600160a01b031614949350505050565b600b5481565b610fed610fe7611148565b836111ba565b6110095760405162461bcd60e51b815260040161073a90612720565b611015848484846115ce565b50505050565b6011546001600160a01b031681565b6060600f61103783611601565b60105460405160200161104c93929190611f23565b6040516020818303038152906040529050919050565b6001600160a01b03918216600090815260056020908152604080832093909416825291909152205460ff1690565b611098611148565b6001600160a01b03166110a9610cbe565b6001600160a01b0316146110cf5760405162461bcd60e51b815260040161073a906125f5565b6001600160a01b0381166110f55760405162461bcd60e51b815260040161073a906121df565b610a108161136c565b600d5481565b600c54610100900460ff1681565b6001600160e01b031981166301ffc9a760e01b14919050565b6000908152600260205260409020546001600160a01b0316151590565b3390565b600081815260046020526040902080546001600160a01b0319166001600160a01b038416908117909155819061118182610afb565b6001600160a01b03167f8c5be1e5ebec7d5bd14f71427d1e84f3dd0314c0f7b2291e5b200ac8c7c3b92560405160405180910390a45050565b60006111c58261112b565b6111e15760405162461bcd60e51b815260040161073a9061235e565b60006111ec83610afb565b9050806001600160a01b0316846001600160a01b031614806112275750836001600160a01b031661121c84610713565b6001600160a01b0316145b8061123757506112378185611062565b949350505050565b826001600160a01b031661125282610afb565b6001600160a01b0316146112785760405162461bcd60e51b815260040161073a9061262a565b6001600160a01b03821661129e5760405162461bcd60e51b815260040161073a9061225c565b6112a98383836107f2565b6112b460008261114c565b6001600160a01b03831660009081526003602052604081208054600192906112dd908490612977565b90915550506001600160a01b038216600090815260036020526040812080546001929061130b90849061292c565b909155505060008181526002602052604080822080546001600160a01b0319166001600160a01b0386811691821790925591518493918716917fddf252ad1be2c89b69c2b068fc378daa952ba7f163c4a11628f55a4df523b3ef91a4505050565b600680546001600160a01b038381166001600160a01b0319831681179093556040519116919082907f8be0079c531659141344cd1fd0a4f28419497f9722a3daafe3b4186f6b6457e090600090a35050565b6000600754600d54600b546113d3919061292c565b6113dd9190612a10565b6113e890600161292c565b905090565b6001600160a01b0382166114135760405162461bcd60e51b815260040161073a90612574565b61141c8161112b565b156114395760405162461bcd60e51b815260040161073a90612225565b611445600083836107f2565b6001600160a01b038216600090815260036020526040812080546001929061146e90849061292c565b909155505060008181526002602052604080822080546001600160a01b0319166001600160a01b03861690811790915590518392907fddf252ad1be2c89b69c2b068fc378daa952ba7f163c4a11628f55a4df523b3ef908290a45050565b816001600160a01b0316836001600160a01b031614156114fe5760405162461bcd60e51b815260040161073a906122a0565b6001600160a01b0383811660008181526005602090815260408083209487168084529490915290819020805460ff1916851515179055517f17307eab39ab6107e8899845ad3d59bd9653f200f220920489ca2b5937696c3190611562908590612096565b60405180910390a3505050565b600061157b8251611601565b8260405160200161158d929190611fce565b604051602081830303815290604052805190602001209050919050565b60008060006115b9858561171c565b915091506115c68161178c565b509392505050565b6115d984848461123f565b6115e5848484846118b9565b6110155760405162461bcd60e51b815260040161073a9061218d565b60608161162657506040805180820190915260018152600360fc1b6020820152610673565b8160005b8115611650578061163a816129f5565b91506116499050600a83612944565b915061162a565b60008167ffffffffffffffff81111561167957634e487b7160e01b600052604160045260246000fd5b6040519080825280601f01601f1916602001820160405280156116a3576020820181803683370190505b5090505b8415611237576116b8600183612977565b91506116c5600a86612a10565b6116d090603061292c565b60f81b8183815181106116f357634e487b7160e01b600052603260045260246000fd5b60200101906001600160f81b031916908160001a905350611715600a86612944565b94506116a7565b6000808251604114156117535760208301516040840151606085015160001a611747878285856119d4565b94509450505050611785565b82516040141561177d5760208301516040840151611772868383611ab4565b935093505050611785565b506000905060025b9250929050565b60008160048111156117ae57634e487b7160e01b600052602160045260246000fd5b14156117b957610a10565b60018160048111156117db57634e487b7160e01b600052602160045260246000fd5b14156117f95760405162461bcd60e51b815260040161073a906120db565b600281600481111561181b57634e487b7160e01b600052602160045260246000fd5b14156118395760405162461bcd60e51b815260040161073a90612156565b600381600481111561185b57634e487b7160e01b600052602160045260246000fd5b14156118795760405162461bcd60e51b815260040161073a906122d7565b600481600481111561189b57634e487b7160e01b600052602160045260246000fd5b1415610a105760405162461bcd60e51b815260040161073a90612532565b60006118cd846001600160a01b0316611ae3565b156119c957836001600160a01b031663150b7a026118e9611148565b8786866040518563ffffffff1660e01b815260040161190b9493929190612040565b602060405180830381600087803b15801561192557600080fd5b505af1925050508015611955575060408051601f3d908101601f1916820190925261195291810190611dcf565b60015b6119af573d808015611983576040519150601f19603f3d011682016040523d82523d6000602084013e611988565b606091505b5080516119a75760405162461bcd60e51b815260040161073a9061218d565b805181602001fd5b6001600160e01b031916630a85bd0160e11b149050611237565b506001949350505050565b6000807f7fffffffffffffffffffffffffffffff5d576e7357a4501ddfe92f46681b20a0831115611a0b5750600090506003611aab565b8460ff16601b14158015611a2357508460ff16601c14155b15611a345750600090506004611aab565b600060018787878760405160008152602001604052604051611a5994939291906120aa565b6020604051602081039080840390855afa158015611a7b573d6000803e3d6000fd5b5050604051601f1901519150506001600160a01b038116611aa457600060019250925050611aab565b9150600090505b94509492505050565b6000806001600160ff1b03831660ff84901c601b01611ad5878288856119d4565b935093505050935093915050565b3b151590565b828054611af5906129ba565b90600052602060002090601f016020900481019282611b175760008555611b5d565b82601f10611b3057805160ff1916838001178555611b5d565b82800160010185558215611b5d579182015b82811115611b5d578251825591602001919060010190611b42565b50611b69929150611b6d565b5090565b5b80821115611b695760008155600101611b6e565b600067ffffffffffffffff80841115611b9d57611b9d612a50565b604051601f8501601f191681016020018281118282101715611bc157611bc1612a50565b604052848152915081838501861015611bd957600080fd5b8484602083013760006020868301015250509392505050565b80356001600160a01b038116811461067357600080fd5b60008083601f840112611c1a578182fd5b50813567ffffffffffffffff811115611c31578182fd5b60208301915083602082850101111561178557600080fd5b600060208284031215611c5a578081fd5b611c6382611bf2565b9392505050565b60008060408385031215611c7c578081fd5b611c8583611bf2565b9150611c9360208401611bf2565b90509250929050565b600080600060608486031215611cb0578081fd5b611cb984611bf2565b9250611cc760208501611bf2565b9150604084013590509250925092565b60008060008060808587031215611cec578081fd5b611cf585611bf2565b9350611d0360208601611bf2565b925060408501359150606085013567ffffffffffffffff811115611d25578182fd5b8501601f81018713611d35578182fd5b611d4487823560208401611b82565b91505092959194509250565b60008060408385031215611d62578182fd5b611d6b83611bf2565b915060208301358015158114611d7f578182fd5b809150509250929050565b60008060408385031215611d9c578182fd5b611da583611bf2565b946020939093013593505050565b600060208284031215611dc4578081fd5b8135611c6381612a66565b600060208284031215611de0578081fd5b8151611c6381612a66565b60008060208385031215611dfd578182fd5b823567ffffffffffffffff811115611e13578283fd5b611e1f85828601611c09565b90969095509350505050565b600080600060408486031215611e3f578283fd5b833567ffffffffffffffff811115611e55578384fd5b611e6186828701611c09565b9094509250611e74905060208501611bf2565b90509250925092565b600060208284031215611e8e578081fd5b813567ffffffffffffffff811115611ea4578182fd5b8201601f81018413611eb4578182fd5b61123784823560208401611b82565b600060208284031215611ed4578081fd5b5035919050565b60008151808452611ef381602086016020860161298e565b601f01601f19169290920160200192915050565b60008151611f1981856020860161298e565b9290920192915050565b8354600090819060028104600180831680611f3f57607f831692505b6020808410821415611f5f57634e487b7160e01b87526022600452602487fd5b818015611f735760018114611f8457611fb0565b60ff19861689528489019650611fb0565b611f8d8c612920565b885b86811015611fa85781548b820152908501908301611f8f565b505084890196505b50611fbb868b611f07565b9889529097019998505050505050505050565b60007f19457468657265756d205369676e6564204d6573736167653a0a0000000000008252835161200681601a85016020880161298e565b83519083019061201d81601a84016020880161298e565b01601a01949350505050565b90565b6001600160a01b0391909116815260200190565b6001600160a01b038581168252841660208201526040810183905260806060820181905260009061207390830184611edb565b9695505050505050565b6001600160a01b03929092168252602082015260400190565b901515815260200190565b90815260200190565b93845260ff9290921660208401526040830152606082015260800190565b600060208252611c636020830184611edb565b60208082526018908201527f45434453413a20696e76616c6964207369676e61747572650000000000000000604082015260600190565b60208082526024908201527f416c6c2070726573616c6520746f6b656e732068617665206265656e206d696e6040820152633a32b21760e11b606082015260800190565b6020808252601f908201527f45434453413a20696e76616c6964207369676e6174757265206c656e67746800604082015260600190565b60208082526032908201527f4552433732313a207472616e7366657220746f206e6f6e20455243373231526560408201527131b2b4bb32b91034b6b83632b6b2b73a32b960711b606082015260800190565b60208082526026908201527f4f776e61626c653a206e6577206f776e657220697320746865207a65726f206160408201526564647265737360d01b606082015260800190565b6020808252601c908201527f4552433732313a20746f6b656e20616c7265616479206d696e74656400000000604082015260600190565b60208082526024908201527f4552433732313a207472616e7366657220746f20746865207a65726f206164646040820152637265737360e01b606082015260800190565b60208082526019908201527f4552433732313a20617070726f766520746f2063616c6c657200000000000000604082015260600190565b60208082526022908201527f45434453413a20696e76616c6964207369676e6174757265202773272076616c604082015261756560f01b606082015260800190565b60208082526025908201527f43616e6e6f74206d696e74206d6f7265207468616e2070726573616c652073756040820152643838363c9760d91b606082015260800190565b6020808252602c908201527f4552433732313a206f70657261746f7220717565727920666f72206e6f6e657860408201526b34b9ba32b73a103a37b5b2b760a11b606082015260800190565b6020808252602e908201527f4f6e6c7920616c6c6f77656420746f206d696e7420313020746f6b656e73207060408201526d32b9103a3930b739b0b1ba34b7b760911b606082015260800190565b60208082526038908201527f4552433732313a20617070726f76652063616c6c6572206973206e6f74206f7760408201527f6e6572206e6f7220617070726f76656420666f7220616c6c0000000000000000606082015260800190565b6020808252602a908201527f4552433732313a2062616c616e636520717565727920666f7220746865207a65604082015269726f206164647265737360b01b606082015260800190565b60208082526029908201527f4552433732313a206f776e657220717565727920666f72206e6f6e657869737460408201526832b73a103a37b5b2b760b91b606082015260800190565b6020808252602a908201527f507572636861736520776f756c6420657863656564206d617820737570706c79604082015269206f6620746f6b656e7360b01b606082015260800190565b60208082526022908201527f45434453413a20696e76616c6964207369676e6174757265202776272076616c604082015261756560f01b606082015260800190565b6020808252818101527f4552433732313a206d696e7420746f20746865207a65726f2061646472657373604082015260600190565b6020808252602c908201527f4552433732313a20617070726f76656420717565727920666f72206e6f6e657860408201526b34b9ba32b73a103a37b5b2b760a11b606082015260800190565b6020808252818101527f4f776e61626c653a2063616c6c6572206973206e6f7420746865206f776e6572604082015260600190565b60208082526029908201527f4552433732313a207472616e73666572206f6620746f6b656e2074686174206960408201526839903737ba1037bbb760b91b606082015260800190565b6020808252818101527f50726573616c65206973206e6f742063757272656e746c79206163746976652e604082015260600190565b6020808252601a908201527f53616c652069732063757272656e746c7920696e616374697665000000000000604082015260600190565b60208082526021908201527f4552433732313a20617070726f76616c20746f2063757272656e74206f776e656040820152603960f91b606082015260800190565b60208082526031908201527f4552433732313a207472616e736665722063616c6c6572206973206e6f74206f6040820152701ddb995c881b9bdc88185c1c1c9bdd9959607a1b606082015260800190565b60208082526019908201527f496e636f727265637420616d6f756e74206f6620657468657200000000000000604082015260600190565b6020808252601b908201527f4164647265737320686173206d696e74656420616c72656164792e0000000000604082015260600190565b6020808252602e908201527f41646472657373206973206e6f7420616c6c6f77656420746f206d696e74206460408201526d3ab934b73390383932b9b0b6329760911b606082015260800190565b60208082526024908201527f5374617274696e6720626c6f636b2068617320616c7265616479206265656e2060408201526339b2ba1760e11b606082015260800190565b6020808252601b908201527f416c6c20746f6b656e732068617665206265656e206d696e7465640000000000604082015260600190565b60208082526021908201527f436f6e74726163747320617265206e6f7420616c6c6f77656420746f206d696e6040820152601d60fa1b606082015260800190565b6020808252601b908201527f5374617274696e6720626c6f636b206d757374206265207365742e0000000000604082015260600190565b60009081526020902090565b6000821982111561293f5761293f612a24565b500190565b60008261295357612953612a3a565b500490565b600081600019048311821515161561297257612972612a24565b500290565b60008282101561298957612989612a24565b500390565b60005b838110156129a9578181015183820152602001612991565b838111156110155750506000910152565b6002810460018216806129ce57607f821691505b602082108114156129ef57634e487b7160e01b600052602260045260246000fd5b50919050565b6000600019821415612a0957612a09612a24565b5060010190565b600082612a1f57612a1f612a3a565b500690565b634e487b7160e01b600052601160045260246000fd5b634e487b7160e01b600052601260045260246000fd5b634e487b7160e01b600052604160045260246000fd5b6001600160e01b031981168114610a1057600080fdfea264697066735822122082c6edd0da94a0684fa89b4926134378dc0331c7307b47670a3e4052051fcec364736f6c63430008000033",
  "linkReferences": {},
  "deployedLinkReferences": {}
}