{
  "_format": "hh-sol-artifact-1",
  "contractName": "LarvaLords",
  "sourceName": "contracts/LarvaLords.sol",
  "abi": [
    {
      "inputs": [],
      "stateMutability": "nonpayable",
      "type": "constructor"
    },
    {
      "anonymous": false,
      "inputs": [
        {
          "indexed": true,
          "internalType": "address",
          "name": "owner",
          "type": "address"
        },
        {
          "indexed": true,
          "internalType": "address",
          "name": "approved",
          "type": "address"
        },
        {
          "indexed": true,
          "internalType": "uint256",
          "name": "tokenId",
          "type": "uint256"
        }
      ],
      "name": "Approval",
      "type": "event"
    },
    {
      "anonymous": false,
      "inputs": [
        {
          "indexed": true,
          "internalType": "address",
          "name": "owner",
          "type": "address"
        },
        {
          "indexed": true,
          "internalType": "address",
          "name": "operator",
          "type": "address"
        },
        {
          "indexed": false,
          "internalType": "bool",
          "name": "approved",
          "type": "bool"
        }
      ],
      "name": "ApprovalForAll",
      "type": "event"
    },
    {
      "anonymous": false,
      "inputs": [
        {
          "indexed": true,
          "internalType": "address",
          "name": "previousOwner",
          "type": "address"
        },
        {
          "indexed": true,
          "internalType": "address",
          "name": "newOwner",
          "type": "address"
        }
      ],
      "name": "OwnershipTransferred",
      "type": "event"
    },
    {
      "anonymous": false,
      "inputs": [
        {
          "indexed": true,
          "internalType": "address",
          "name": "from",
          "type": "address"
        },
        {
          "indexed": true,
          "internalType": "address",
          "name": "to",
          "type": "address"
        },
        {
          "indexed": true,
          "internalType": "uint256",
          "name": "tokenId",
          "type": "uint256"
        }
      ],
      "name": "Transfer",
      "type": "event"
    },
    {
      "inputs": [],
      "name": "BASE_URL",
      "outputs": [
        {
          "internalType": "string",
          "name": "",
          "type": "string"
        }
      ],
      "stateMutability": "view",
      "type": "function"
    },
    {
      "inputs": [],
      "name": "EXTENSION",
      "outputs": [
        {
          "internalType": "bytes32",
          "name": "",
          "type": "bytes32"
        }
      ],
      "stateMutability": "view",
      "type": "function"
    },
    {
      "inputs": [],
      "name": "MAX_BATCH",
      "outputs": [
        {
          "internalType": "uint256",
          "name": "",
          "type": "uint256"
        }
      ],
      "stateMutability": "view",
      "type": "function"
    },
    {
      "inputs": [],
      "name": "MAX_SUPPLY",
      "outputs": [
        {
          "internalType": "uint256",
          "name": "",
          "type": "uint256"
        }
      ],
      "stateMutability": "view",
      "type": "function"
    },
    {
      "inputs": [],
      "name": "SALE_PRICE",
      "outputs": [
        {
          "internalType": "uint256",
          "name": "",
          "type": "uint256"
        }
      ],
      "stateMutability": "view",
      "type": "function"
    },
    {
      "inputs": [],
      "name": "_tokenIds",
      "outputs": [
        {
          "internalType": "uint256",
          "name": "",
          "type": "uint256"
        }
      ],
      "stateMutability": "view",
      "type": "function"
    },
    {
      "inputs": [],
      "name": "active",
      "outputs": [
        {
          "internalType": "bool",
          "name": "",
          "type": "bool"
        }
      ],
      "stateMutability": "view",
      "type": "function"
    },
    {
      "inputs": [
        {
          "internalType": "address",
          "name": "to",
          "type": "address"
        },
        {
          "internalType": "uint256",
          "name": "tokenId",
          "type": "uint256"
        }
      ],
      "name": "approve",
      "outputs": [],
      "stateMutability": "nonpayable",
      "type": "function"
    },
    {
      "inputs": [
        {
          "internalType": "address",
          "name": "owner",
          "type": "address"
        }
      ],
      "name": "balanceOf",
      "outputs": [
        {
          "internalType": "uint256",
          "name": "",
          "type": "uint256"
        }
      ],
      "stateMutability": "view",
      "type": "function"
    },
    {
      "inputs": [],
      "name": "founder",
      "outputs": [
        {
          "internalType": "address",
          "name": "",
          "type": "address"
        }
      ],
      "stateMutability": "view",
      "type": "function"
    },
    {
      "inputs": [
        {
          "internalType": "uint256",
          "name": "tokenId",
          "type": "uint256"
        }
      ],
      "name": "getApproved",
      "outputs": [
        {
          "internalType": "address",
          "name": "",
          "type": "address"
        }
      ],
      "stateMutability": "view",
      "type": "function"
    },
    {
      "inputs": [
        {
          "internalType": "address",
          "name": "owner",
          "type": "address"
        },
        {
          "internalType": "address",
          "name": "operator",
          "type": "address"
        }
      ],
      "name": "isApprovedForAll",
      "outputs": [
        {
          "internalType": "bool",
          "name": "",
          "type": "bool"
        }
      ],
      "stateMutability": "view",
      "type": "function"
    },
    {
      "inputs": [
        {
          "internalType": "uint256",
          "name": "quantity",
          "type": "uint256"
        }
      ],
      "name": "mint",
      "outputs": [],
      "stateMutability": "payable",
      "type": "function"
    },
    {
      "inputs": [],
      "name": "name",
      "outputs": [
        {
          "internalType": "string",
          "name": "",
          "type": "string"
        }
      ],
      "stateMutability": "view",
      "type": "function"
    },
    {
      "inputs": [],
      "name": "owner",
      "outputs": [
        {
          "internalType": "address",
          "name": "",
          "type": "address"
        }
      ],
      "stateMutability": "view",
      "type": "function"
    },
    {
      "inputs": [
        {
          "internalType": "uint256",
          "name": "tokenId",
          "type": "uint256"
        }
      ],
      "name": "ownerOf",
      "outputs": [
        {
          "internalType": "address",
          "name": "",
          "type": "address"
        }
      ],
      "stateMutability": "view",
      "type": "function"
    },
    {
      "inputs": [],
      "name": "paused",
      "outputs": [
        {
          "internalType": "bool",
          "name": "",
          "type": "bool"
        }
      ],
      "stateMutability": "view",
      "type": "function"
    },
    {
      "inputs": [],
      "name": "renounceOwnership",
      "outputs": [],
      "stateMutability": "nonpayable",
      "type": "function"
    },
    {
      "inputs": [
        {
          "internalType": "address",
          "name": "from",
          "type": "address"
        },
        {
          "internalType": "address",
          "name": "to",
          "type": "address"
        },
        {
          "internalType": "uint256",
          "name": "tokenId",
          "type": "uint256"
        }
      ],
      "name": "safeTransferFrom",
      "outputs": [],
      "stateMutability": "nonpayable",
      "type": "function"
    },
    {
      "inputs": [
        {
          "internalType": "address",
          "name": "from",
          "type": "address"
        },
        {
          "internalType": "address",
          "name": "to",
          "type": "address"
        },
        {
          "internalType": "uint256",
          "name": "tokenId",
          "type": "uint256"
        },
        {
          "internalType": "bytes",
          "name": "_data",
          "type": "bytes"
        }
      ],
      "name": "safeTransferFrom",
      "outputs": [],
      "stateMutability": "nonpayable",
      "type": "function"
    },
    {
      "inputs": [
        {
          "internalType": "address",
          "name": "operator",
          "type": "address"
        },
        {
          "internalType": "bool",
          "name": "approved",
          "type": "bool"
        }
      ],
      "name": "setApprovalForAll",
      "outputs": [],
      "stateMutability": "nonpayable",
      "type": "function"
    },
    {
      "inputs": [
        {
          "internalType": "string",
          "name": "_url",
          "type": "string"
        }
      ],
      "name": "setBaseURL",
      "outputs": [],
      "stateMutability": "nonpayable",
      "type": "function"
    },
    {
      "inputs": [
        {
          "internalType": "bool",
          "name": "_state",
          "type": "bool"
        }
      ],
      "name": "setPaused",
      "outputs": [],
      "stateMutability": "nonpayable",
      "type": "function"
    },
    {
      "inputs": [
        {
          "internalType": "bool",
          "name": "_active",
          "type": "bool"
        }
      ],
      "name": "setPublicSale",
      "outputs": [],
      "stateMutability": "nonpayable",
      "type": "function"
    },
    {
      "inputs": [],
      "name": "setStartingBlock",
      "outputs": [],
      "stateMutability": "nonpayable",
      "type": "function"
    },
    {
      "inputs": [],
      "name": "setStartingIdx",
      "outputs": [],
      "stateMutability": "nonpayable",
      "type": "function"
    },
    {
      "inputs": [],
      "name": "starting_idx",
      "outputs": [
        {
          "internalType": "uint256",
          "name": "",
          "type": "uint256"
        }
      ],
      "stateMutability": "view",
      "type": "function"
    },
    {
      "inputs": [
        {
          "internalType": "bytes4",
          "name": "interfaceId",
          "type": "bytes4"
        }
      ],
      "name": "supportsInterface",
      "outputs": [
        {
          "internalType": "bool",
          "name": "",
          "type": "bool"
        }
      ],
      "stateMutability": "view",
      "type": "function"
    },
    {
      "inputs": [],
      "name": "symbol",
      "outputs": [
        {
          "internalType": "string",
          "name": "",
          "type": "string"
        }
      ],
      "stateMutability": "view",
      "type": "function"
    },
    {
      "inputs": [
        {
          "internalType": "uint256",
          "name": "_tokenId",
          "type": "uint256"
        }
      ],
      "name": "tokenURI",
      "outputs": [
        {
          "internalType": "string",
          "name": "",
          "type": "string"
        }
      ],
      "stateMutability": "view",
      "type": "function"
    },
    {
      "inputs": [
        {
          "internalType": "address",
          "name": "from",
          "type": "address"
        },
        {
          "internalType": "address",
          "name": "to",
          "type": "address"
        },
        {
          "internalType": "uint256",
          "name": "tokenId",
          "type": "uint256"
        }
      ],
      "name": "transferFrom",
      "outputs": [],
      "stateMutability": "nonpayable",
      "type": "function"
    },
    {
      "inputs": [
        {
          "internalType": "address",
          "name": "newOwner",
          "type": "address"
        }
      ],
      "name": "transferOwnership",
      "outputs": [],
      "stateMutability": "nonpayable",
      "type": "function"
    },
    {
      "inputs": [],
      "name": "withdraw",
      "outputs": [],
      "stateMutability": "payable",
      "type": "function"
    }
  ],
  "bytecode": "0x6080604052611538600755600a600855661c6bf52634000060095564173539b7b760d91b600f55601080546001600160a01b031916730200e96f5253edd00769e443ec904bc3fa1ce0fc1790553480156200005957600080fd5b50604080518082018252600b81526a4c61727661204c6f72647360a81b6020808301918252835180850190945260058452644c4152564160d81b908401528151919291620000aa9160009162000139565b508051620000c090600190602084019062000139565b505050620000dd620000d7620000e360201b60201c565b620000e7565b6200021c565b3390565b600680546001600160a01b038381166001600160a01b0319831681179093556040519116919082907f8be0079c531659141344cd1fd0a4f28419497f9722a3daafe3b4186f6b6457e090600090a35050565b8280546200014790620001df565b90600052602060002090601f0160209004810192826200016b5760008555620001b6565b82601f106200018657805160ff1916838001178555620001b6565b82800160010185558215620001b6579182015b82811115620001b657825182559160200191906001019062000199565b50620001c4929150620001c8565b5090565b5b80821115620001c45760008155600101620001c9565b600281046001821680620001f457607f821691505b602082108114156200021657634e487b7160e01b600052602260045260246000fd5b50919050565b612146806200022c6000396000f3fe6080604052600436106101ee5760003560e01c80636352211e1161010d57806395d89b41116100a0578063b88d4fde1161006f578063b88d4fde146104e8578063c87b56dd14610508578063e985e9c514610528578063f2fde38b14610548578063f41fbd5e14610568576101ee565b806395d89b411461048b578063a0712d68146104a0578063a22cb465146104b3578063aa46a400146104d3576101ee565b80637f205a74116100dc5780637f205a74146104375780637f78636a1461044c5780638da5cb5b14610461578063950bff9f14610476576101ee565b80636352211e146103cd57806370a08231146103ed578063715018a61461040d5780637710600014610422576101ee565b806332cb6b0c1161018557806349f2553a1161015457806349f2553a146103635780634d853ee5146103835780635aca1bb6146103985780635c975abb146103b8576101ee565b806332cb6b0c146103045780633ccfd60b1461032657806342842e0e1461032e57806346f136191461034e576101ee565b8063095ea7b3116101c1578063095ea7b31461028d57806316c38b3c146102af57806318509269146102cf57806323b872dd146102e4576101ee565b806301ffc9a7146101f357806302fb0c5e1461022957806306fdde031461023e578063081812fc14610260575b600080fd5b3480156101ff57600080fd5b5061021361020e3660046117a0565b61057d565b604051610220919061197d565b60405180910390f35b34801561023557600080fd5b506102136105c5565b34801561024a57600080fd5b506102536105ce565b6040516102209190611991565b34801561026c57600080fd5b5061028061027b36600461181e565b610660565b604051610220919061192c565b34801561029957600080fd5b506102ad6102a836600461175d565b6106ac565b005b3480156102bb57600080fd5b506102ad6102ca366004611786565b610744565b3480156102db57600080fd5b506102ad61079d565b3480156102f057600080fd5b506102ad6102ff366004611680565b610811565b34801561031057600080fd5b50610319610849565b6040516102209190611988565b6102ad61084f565b34801561033a57600080fd5b506102ad610349366004611680565b6108ff565b34801561035a57600080fd5b5061031961091a565b34801561036f57600080fd5b506102ad61037e3660046117d8565b610920565b34801561038f57600080fd5b50610280610976565b3480156103a457600080fd5b506102ad6103b3366004611786565b610985565b3480156103c457600080fd5b506102136109d7565b3480156103d957600080fd5b506102806103e836600461181e565b6109e5565b3480156103f957600080fd5b5061031961040836600461162d565b610a1a565b34801561041957600080fd5b506102ad610a5e565b34801561042e57600080fd5b506102ad610aa9565b34801561044357600080fd5b50610319610b0e565b34801561045857600080fd5b50610253610b14565b34801561046d57600080fd5b50610280610ba2565b34801561048257600080fd5b50610319610bb1565b34801561049757600080fd5b50610253610bb7565b6102ad6104ae36600461181e565b610bc6565b3480156104bf57600080fd5b506102ad6104ce366004611734565b610d00565b3480156104df57600080fd5b50610319610d12565b3480156104f457600080fd5b506102ad6105033660046116bb565b610d18565b34801561051457600080fd5b5061025361052336600461181e565b610d57565b34801561053457600080fd5b5061021361054336600461164e565b610d8f565b34801561055457600080fd5b506102ad61056336600461162d565b610dbd565b34801561057457600080fd5b50610319610e2b565b60006001600160e01b031982166380ac58cd60e01b14806105ae57506001600160e01b03198216635b5e139f60e01b145b806105bd57506105bd82610e31565b90505b919050565b600b5460ff1681565b6060600080546105dd9061204e565b80601f01602080910402602001604051908101604052809291908181526020018280546106099061204e565b80156106565780601f1061062b57610100808354040283529160200191610656565b820191906000526020600020905b81548152906001019060200180831161063957829003601f168201915b5050505050905090565b600061066b82610e4a565b6106905760405162461bcd60e51b815260040161068790611cf7565b60405180910390fd5b506000908152600460205260409020546001600160a01b031690565b60006106b7826109e5565b9050806001600160a01b0316836001600160a01b031614156106eb5760405162461bcd60e51b815260040161068790611df8565b806001600160a01b03166106fd610e67565b6001600160a01b03161480610719575061071981610543610e67565b6107355760405162461bcd60e51b815260040161068790611b88565b61073f8383610e6b565b505050565b61074c610e67565b6001600160a01b031661075d610ba2565b6001600160a01b0316146107835760405162461bcd60e51b815260040161068790611d43565b600b80549115156101000261ff0019909216919091179055565b6107a5610e67565b6001600160a01b03166107b6610ba2565b6001600160a01b0316146107dc5760405162461bcd60e51b815260040161068790611d43565b600d546107fb5760405162461bcd60e51b815260040161068790611f7d565b600754600d5461080c9190406120a4565b600c55565b61082261081c610e67565b82610ed9565b61083e5760405162461bcd60e51b815260040161068790611e39565b61073f838383610f5e565b60075481565b610857610e67565b6001600160a01b0316610868610ba2565b6001600160a01b03161461088e5760405162461bcd60e51b815260040161068790611d43565b6010546040516000916001600160a01b03169047906108ac90611929565b60006040518083038185875af1925050503d80600081146108e9576040519150601f19603f3d011682016040523d82523d6000602084013e6108ee565b606091505b50509050806108fc57600080fd5b50565b61073f83838360405180602001604052806000815250610d18565b600f5481565b610928610e67565b6001600160a01b0316610939610ba2565b6001600160a01b03161461095f5760405162461bcd60e51b815260040161068790611d43565b805161097290600e9060208401906114fd565b5050565b6010546001600160a01b031681565b61098d610e67565b6001600160a01b031661099e610ba2565b6001600160a01b0316146109c45760405162461bcd60e51b815260040161068790611d43565b600b805460ff1916911515919091179055565b600b54610100900460ff1681565b6000818152600260205260408120546001600160a01b0316806105bd5760405162461bcd60e51b815260040161068790611c2f565b60006001600160a01b038216610a425760405162461bcd60e51b815260040161068790611be5565b506001600160a01b031660009081526003602052604090205490565b610a66610e67565b6001600160a01b0316610a77610ba2565b6001600160a01b031614610a9d5760405162461bcd60e51b815260040161068790611d43565b610aa7600061108b565b565b610ab1610e67565b6001600160a01b0316610ac2610ba2565b6001600160a01b031614610ae85760405162461bcd60e51b815260040161068790611d43565b600d5415610b085760405162461bcd60e51b815260040161068790611ec1565b43600d55565b60095481565b600e8054610b219061204e565b80601f0160208091040260200160405190810160405280929190818152602001828054610b4d9061204e565b8015610b9a5780601f10610b6f57610100808354040283529160200191610b9a565b820191906000526020600020905b815481529060010190602001808311610b7d57829003601f168201915b505050505081565b6006546001600160a01b031690565b60085481565b6060600180546105dd9061204e565b600b54610100900460ff1615610bdb57600080fd5b600b5460ff16610bfd5760405162461bcd60e51b815260040161068790611dc1565b323314610c1c5760405162461bcd60e51b815260040161068790611f3c565b600854811115610c3e5760405162461bcd60e51b815260040161068790611b3a565b80600954610c4c9190611fec565b3414610c6a5760405162461bcd60e51b815260040161068790611e8a565b600754600a5410610c8d5760405162461bcd60e51b815260040161068790611f05565b60075481600a54610c9e9190611fc0565b1115610cbc5760405162461bcd60e51b815260040161068790611c78565b60005b8181101561097257610cd833610cd36110dd565b61110c565b600a8054906000610ce883612089565b91905055508080610cf890612089565b915050610cbf565b610972610d0b610e67565b83836111eb565b600a5481565b610d29610d23610e67565b83610ed9565b610d455760405162461bcd60e51b815260040161068790611e39565b610d518484848461128e565b50505050565b6060600e610d64836112c1565b600f54604051602001610d799392919061187e565b6040516020818303038152906040529050919050565b6001600160a01b03918216600090815260056020908152604080832093909416825291909152205460ff1690565b610dc5610e67565b6001600160a01b0316610dd6610ba2565b6001600160a01b031614610dfc5760405162461bcd60e51b815260040161068790611d43565b6001600160a01b038116610e225760405162461bcd60e51b8152600401610687906119f6565b6108fc8161108b565b600c5481565b6001600160e01b031981166301ffc9a760e01b14919050565b6000908152600260205260409020546001600160a01b0316151590565b3390565b600081815260046020526040902080546001600160a01b0319166001600160a01b0384169081179091558190610ea0826109e5565b6001600160a01b03167f8c5be1e5ebec7d5bd14f71427d1e84f3dd0314c0f7b2291e5b200ac8c7c3b92560405160405180910390a45050565b6000610ee482610e4a565b610f005760405162461bcd60e51b815260040161068790611aee565b6000610f0b836109e5565b9050806001600160a01b0316846001600160a01b03161480610f465750836001600160a01b0316610f3b84610660565b6001600160a01b0316145b80610f565750610f568185610d8f565b949350505050565b826001600160a01b0316610f71826109e5565b6001600160a01b031614610f975760405162461bcd60e51b815260040161068790611d78565b6001600160a01b038216610fbd5760405162461bcd60e51b815260040161068790611a73565b610fc883838361073f565b610fd3600082610e6b565b6001600160a01b0383166000908152600360205260408120805460019290610ffc90849061200b565b90915550506001600160a01b038216600090815260036020526040812080546001929061102a908490611fc0565b909155505060008181526002602052604080822080546001600160a01b0319166001600160a01b0386811691821790925591518493918716917fddf252ad1be2c89b69c2b068fc378daa952ba7f163c4a11628f55a4df523b3ef91a4505050565b600680546001600160a01b038381166001600160a01b0319831681179093556040519116919082907f8be0079c531659141344cd1fd0a4f28419497f9722a3daafe3b4186f6b6457e090600090a35050565b6000600754600c54600a546110f29190611fc0565b6110fc91906120a4565b611107906001611fc0565b905090565b6001600160a01b0382166111325760405162461bcd60e51b815260040161068790611cc2565b61113b81610e4a565b156111585760405162461bcd60e51b815260040161068790611a3c565b6111646000838361073f565b6001600160a01b038216600090815260036020526040812080546001929061118d908490611fc0565b909155505060008181526002602052604080822080546001600160a01b0319166001600160a01b03861690811790915590518392907fddf252ad1be2c89b69c2b068fc378daa952ba7f163c4a11628f55a4df523b3ef908290a45050565b816001600160a01b0316836001600160a01b0316141561121d5760405162461bcd60e51b815260040161068790611ab7565b6001600160a01b0383811660008181526005602090815260408083209487168084529490915290819020805460ff1916851515179055517f17307eab39ab6107e8899845ad3d59bd9653f200f220920489ca2b5937696c319061128190859061197d565b60405180910390a3505050565b611299848484610f5e565b6112a5848484846113dc565b610d515760405162461bcd60e51b8152600401610687906119a4565b6060816112e657506040805180820190915260018152600360fc1b60208201526105c0565b8160005b811561131057806112fa81612089565b91506113099050600a83611fd8565b91506112ea565b60008167ffffffffffffffff81111561133957634e487b7160e01b600052604160045260246000fd5b6040519080825280601f01601f191660200182016040528015611363576020820181803683370190505b5090505b8415610f565761137860018361200b565b9150611385600a866120a4565b611390906030611fc0565b60f81b8183815181106113b357634e487b7160e01b600052603260045260246000fd5b60200101906001600160f81b031916908160001a9053506113d5600a86611fd8565b9450611367565b60006113f0846001600160a01b03166114f7565b156114ec57836001600160a01b031663150b7a0261140c610e67565b8786866040518563ffffffff1660e01b815260040161142e9493929190611940565b602060405180830381600087803b15801561144857600080fd5b505af1925050508015611478575060408051601f3d908101601f19168201909252611475918101906117bc565b60015b6114d2573d8080156114a6576040519150601f19603f3d011682016040523d82523d6000602084013e6114ab565b606091505b5080516114ca5760405162461bcd60e51b8152600401610687906119a4565b805181602001fd5b6001600160e01b031916630a85bd0160e11b149050610f56565b506001949350505050565b3b151590565b8280546115099061204e565b90600052602060002090601f01602090048101928261152b5760008555611571565b82601f1061154457805160ff1916838001178555611571565b82800160010185558215611571579182015b82811115611571578251825591602001919060010190611556565b5061157d929150611581565b5090565b5b8082111561157d5760008155600101611582565b600067ffffffffffffffff808411156115b1576115b16120e4565b604051601f8501601f1916810160200182811182821017156115d5576115d56120e4565b6040528481529150818385018610156115ed57600080fd5b8484602083013760006020868301015250509392505050565b80356001600160a01b03811681146105c057600080fd5b803580151581146105c057600080fd5b60006020828403121561163e578081fd5b61164782611606565b9392505050565b60008060408385031215611660578081fd5b61166983611606565b915061167760208401611606565b90509250929050565b600080600060608486031215611694578081fd5b61169d84611606565b92506116ab60208501611606565b9150604084013590509250925092565b600080600080608085870312156116d0578081fd5b6116d985611606565b93506116e760208601611606565b925060408501359150606085013567ffffffffffffffff811115611709578182fd5b8501601f81018713611719578182fd5b61172887823560208401611596565b91505092959194509250565b60008060408385031215611746578182fd5b61174f83611606565b91506116776020840161161d565b6000806040838503121561176f578182fd5b61177883611606565b946020939093013593505050565b600060208284031215611797578081fd5b6116478261161d565b6000602082840312156117b1578081fd5b8135611647816120fa565b6000602082840312156117cd578081fd5b8151611647816120fa565b6000602082840312156117e9578081fd5b813567ffffffffffffffff8111156117ff578182fd5b8201601f8101841361180f578182fd5b610f5684823560208401611596565b60006020828403121561182f578081fd5b5035919050565b6000815180845261184e816020860160208601612022565b601f01601f19169290920160200192915050565b60008151611874818560208601612022565b9290920192915050565b835460009081906002810460018083168061189a57607f831692505b60208084108214156118ba57634e487b7160e01b87526022600452602487fd5b8180156118ce57600181146118df5761190b565b60ff1986168952848901965061190b565b6118e88c611fb4565b885b868110156119035781548b8201529085019083016118ea565b505084890196505b50611916868b611862565b9889529097019998505050505050505050565b90565b6001600160a01b0391909116815260200190565b6001600160a01b038581168252841660208201526040810183905260806060820181905260009061197390830184611836565b9695505050505050565b901515815260200190565b90815260200190565b6000602082526116476020830184611836565b60208082526032908201527f4552433732313a207472616e7366657220746f206e6f6e20455243373231526560408201527131b2b4bb32b91034b6b83632b6b2b73a32b960711b606082015260800190565b60208082526026908201527f4f776e61626c653a206e6577206f776e657220697320746865207a65726f206160408201526564647265737360d01b606082015260800190565b6020808252601c908201527f4552433732313a20746f6b656e20616c7265616479206d696e74656400000000604082015260600190565b60208082526024908201527f4552433732313a207472616e7366657220746f20746865207a65726f206164646040820152637265737360e01b606082015260800190565b60208082526019908201527f4552433732313a20617070726f766520746f2063616c6c657200000000000000604082015260600190565b6020808252602c908201527f4552433732313a206f70657261746f7220717565727920666f72206e6f6e657860408201526b34b9ba32b73a103a37b5b2b760a11b606082015260800190565b6020808252602e908201527f4f6e6c7920616c6c6f77656420746f206d696e7420313020746f6b656e73207060408201526d32b9103a3930b739b0b1ba34b7b760911b606082015260800190565b60208082526038908201527f4552433732313a20617070726f76652063616c6c6572206973206e6f74206f7760408201527f6e6572206e6f7220617070726f76656420666f7220616c6c0000000000000000606082015260800190565b6020808252602a908201527f4552433732313a2062616c616e636520717565727920666f7220746865207a65604082015269726f206164647265737360b01b606082015260800190565b60208082526029908201527f4552433732313a206f776e657220717565727920666f72206e6f6e657869737460408201526832b73a103a37b5b2b760b91b606082015260800190565b6020808252602a908201527f507572636861736520776f756c6420657863656564206d617820737570706c79604082015269206f6620746f6b656e7360b01b606082015260800190565b6020808252818101527f4552433732313a206d696e7420746f20746865207a65726f2061646472657373604082015260600190565b6020808252602c908201527f4552433732313a20617070726f76656420717565727920666f72206e6f6e657860408201526b34b9ba32b73a103a37b5b2b760a11b606082015260800190565b6020808252818101527f4f776e61626c653a2063616c6c6572206973206e6f7420746865206f776e6572604082015260600190565b60208082526029908201527f4552433732313a207472616e73666572206f6620746f6b656e2074686174206960408201526839903737ba1037bbb760b91b606082015260800190565b6020808252601a908201527f53616c652069732063757272656e746c7920696e616374697665000000000000604082015260600190565b60208082526021908201527f4552433732313a20617070726f76616c20746f2063757272656e74206f776e656040820152603960f91b606082015260800190565b60208082526031908201527f4552433732313a207472616e736665722063616c6c6572206973206e6f74206f6040820152701ddb995c881b9bdc88185c1c1c9bdd9959607a1b606082015260800190565b60208082526019908201527f496e636f727265637420616d6f756e74206f6620657468657200000000000000604082015260600190565b60208082526024908201527f5374617274696e6720626c6f636b2068617320616c7265616479206265656e2060408201526339b2ba1760e11b606082015260800190565b6020808252601b908201527f416c6c20746f6b656e732068617665206265656e206d696e7465640000000000604082015260600190565b60208082526021908201527f436f6e74726163747320617265206e6f7420616c6c6f77656420746f206d696e6040820152601d60fa1b606082015260800190565b6020808252601b908201527f5374617274696e6720626c6f636b206d757374206265207365742e0000000000604082015260600190565b60009081526020902090565b60008219821115611fd357611fd36120b8565b500190565b600082611fe757611fe76120ce565b500490565b6000816000190483118215151615612006576120066120b8565b500290565b60008282101561201d5761201d6120b8565b500390565b60005b8381101561203d578181015183820152602001612025565b83811115610d515750506000910152565b60028104600182168061206257607f821691505b6020821081141561208357634e487b7160e01b600052602260045260246000fd5b50919050565b600060001982141561209d5761209d6120b8565b5060010190565b6000826120b3576120b36120ce565b500690565b634e487b7160e01b600052601160045260246000fd5b634e487b7160e01b600052601260045260246000fd5b634e487b7160e01b600052604160045260246000fd5b6001600160e01b0319811681146108fc57600080fdfea264697066735822122009489cc4a7db8809b3a2ddc81782250c5713777d0ffb0a3ff4548d738d57235b64736f6c63430008000033",
  "linkReferences": {},
  "deployedLinkReferences": {}
}